{
	"data": {
		"bytecode": {
			"linkReferences": {},
			"object": "608060405234801561000f575f80fd5b50604051610ec6380380610ec683398181016040528101906100319190610297565b335f806101000a81548173ffffffffffffffffffffffffffffffffffffffff021916908373ffffffffffffffffffffffffffffffffffffffff1602179055508160015f6101000a81548173ffffffffffffffffffffffffffffffffffffffff021916908373ffffffffffffffffffffffffffffffffffffffff16021790555080600290816100bf91906104fe565b505f60035f6101000a81548160ff021916908360018111156100e4576100e36105cd565b5b021790555050506105fa565b5f604051905090565b5f80fd5b5f80fd5b5f73ffffffffffffffffffffffffffffffffffffffff82169050919050565b5f61012a82610101565b9050919050565b61013a81610120565b8114610144575f80fd5b50565b5f8151905061015581610131565b92915050565b5f80fd5b5f80fd5b5f601f19601f8301169050919050565b7f4e487b71000000000000000000000000000000000000000000000000000000005f52604160045260245ffd5b6101a982610163565b810181811067ffffffffffffffff821117156101c8576101c7610173565b5b80604052505050565b5f6101da6100f0565b90506101e682826101a0565b919050565b5f67ffffffffffffffff82111561020557610204610173565b5b61020e82610163565b9050602081019050919050565b8281835e5f83830152505050565b5f61023b610236846101eb565b6101d1565b9050828152602081018484840111156102575761025661015f565b5b61026284828561021b565b509392505050565b5f82601f83011261027e5761027d61015b565b5b815161028e848260208601610229565b91505092915050565b5f80604083850312156102ad576102ac6100f9565b5b5f6102ba85828601610147565b925050602083015167ffffffffffffffff8111156102db576102da6100fd565b5b6102e78582860161026a565b9150509250929050565b5f81519050919050565b7f4e487b71000000000000000000000000000000000000000000000000000000005f52602260045260245ffd5b5f600282049050600182168061033f57607f821691505b602082108103610352576103516102fb565b5b50919050565b5f819050815f5260205f209050919050565b5f6020601f8301049050919050565b5f82821b905092915050565b5f600883026103b47fffffffffffffffffffffffffffffffffffffffffffffffffffffffffffffffff82610379565b6103be8683610379565b95508019841693508086168417925050509392505050565b5f819050919050565b5f819050919050565b5f6104026103fd6103f8846103d6565b6103df565b6103d6565b9050919050565b5f819050919050565b61041b836103e8565b61042f61042782610409565b848454610385565b825550505050565b5f90565b610443610437565b61044e818484610412565b505050565b5b81811015610471576104665f8261043b565b600181019050610454565b5050565b601f8211156104b65761048781610358565b6104908461036a565b8101602085101561049f578190505b6104b36104ab8561036a565b830182610453565b50505b505050565b5f82821c905092915050565b5f6104d65f19846008026104bb565b1980831691505092915050565b5f6104ee83836104c7565b9150826002028217905092915050565b610507826102f1565b67ffffffffffffffff8111156105205761051f610173565b5b61052a8254610328565b610535828285610475565b5f60209050601f831160018114610566575f8415610554578287015190505b61055e85826104e3565b8655506105c5565b601f19841661057486610358565b5f5b8281101561059b57848901518255600182019150602085019450602081019050610576565b868310156105b857848901516105b4601f8916826104c7565b8355505b6001600288020188555050505b505050505050565b7f4e487b71000000000000000000000000000000000000000000000000000000005f52602160045260245ffd5b6108bf806106075f395ff3fe608060405260043610610049575f3560e01c80631af8c5d01461004d5780631c91a65e1461007757806381f4f9bf14610093578063ef8a9235146100bd578063f0d13785146100e7575b5f80fd5b348015610058575f80fd5b50610061610111565b60405161006e919061044d565b60405180910390f35b610091600480360381019061008c91906104a4565b61019d565b005b34801561009e575f80fd5b506100a7610383565b6040516100b4919061050e565b60405180910390f35b3480156100c8575f80fd5b506100d16103a6565b6040516100de919061059a565b60405180910390f35b3480156100f2575f80fd5b506100fb6103b8565b604051610108919061060e565b60405180910390f35b6002805461011e90610654565b80601f016020809104026020016040519081016040528092919081815260200182805461014a90610654565b80156101955780601f1061016c57610100808354040283529160200191610195565b820191905f5260205f20905b81548152906001019060200180831161017857829003601f168201915b505050505081565b5f60018111156101b0576101af610527565b5b60035f9054906101000a900460ff1660018111156101d1576101d0610527565b5b14610211576040517f08c379a0000000000000000000000000000000000000000000000000000000008152600401610208906106ce565b60405180910390fd5b5f60015f9054906101000a900473ffffffffffffffffffffffffffffffffffffffff1673ffffffffffffffffffffffffffffffffffffffff1663fc2157486002846040518363ffffffff1660e01b815260040161026f92919061078e565b602060405180830381865afa15801561028a573d5f803e3d5ffd5b505050506040513d601f19601f820116820180604052508101906102ae91906107d0565b90508034146102f2576040517f08c379a00000000000000000000000000000000000000000000000000000000081526004016102e99061086b565b60405180910390fd5b600160035f6101000a81548160ff0219169083600181111561031757610316610527565b5b02179055505f8054906101000a900473ffffffffffffffffffffffffffffffffffffffff1673ffffffffffffffffffffffffffffffffffffffff166108fc3490811502906040515f60405180830381858888f1935050505015801561037e573d5f803e3d5ffd5b505050565b5f8054906101000a900473ffffffffffffffffffffffffffffffffffffffff1681565b60035f9054906101000a900460ff1681565b60015f9054906101000a900473ffffffffffffffffffffffffffffffffffffffff1681565b5f81519050919050565b5f82825260208201905092915050565b8281835e5f83830152505050565b5f601f19601f8301169050919050565b5f61041f826103dd565b61042981856103e7565b93506104398185602086016103f7565b61044281610405565b840191505092915050565b5f6020820190508181035f8301526104658184610415565b905092915050565b5f80fd5b5f819050919050565b61048381610471565b811461048d575f80fd5b50565b5f8135905061049e8161047a565b92915050565b5f602082840312156104b9576104b861046d565b5b5f6104c684828501610490565b91505092915050565b5f73ffffffffffffffffffffffffffffffffffffffff82169050919050565b5f6104f8826104cf565b9050919050565b610508816104ee565b82525050565b5f6020820190506105215f8301846104ff565b92915050565b7f4e487b71000000000000000000000000000000000000000000000000000000005f52602160045260245ffd5b6002811061056557610564610527565b5b50565b5f81905061057582610554565b919050565b5f61058482610568565b9050919050565b6105948161057a565b82525050565b5f6020820190506105ad5f83018461058b565b92915050565b5f819050919050565b5f6105d66105d16105cc846104cf565b6105b3565b6104cf565b9050919050565b5f6105e7826105bc565b9050919050565b5f6105f8826105dd565b9050919050565b610608816105ee565b82525050565b5f6020820190506106215f8301846105ff565b92915050565b7f4e487b71000000000000000000000000000000000000000000000000000000005f52602260045260245ffd5b5f600282049050600182168061066b57607f821691505b60208210810361067e5761067d610627565b5b50919050565b7f536561742069732074616b656e2e0000000000000000000000000000000000005f82015250565b5f6106b8600e836103e7565b91506106c382610684565b602082019050919050565b5f6020820190508181035f8301526106e5816106ac565b9050919050565b5f819050815f5260205f209050919050565b5f815461070a81610654565b61071481866103e7565b9450600182165f811461072e576001811461074457610776565b60ff198316865281151560200286019350610776565b61074d856106ec565b5f5b8381101561076e5781548189015260018201915060208101905061074f565b808801955050505b50505092915050565b61078881610471565b82525050565b5f6040820190508181035f8301526107a681856106fe565b90506107b5602083018461077f565b9392505050565b5f815190506107ca8161047a565b92915050565b5f602082840312156107e5576107e461046d565b5b5f6107f2848285016107bc565b91505092915050565b7f506c656173652073656e6420746865206578616374207469636b6574207072695f8201527f63652e0000000000000000000000000000000000000000000000000000000000602082015250565b5f6108556023836103e7565b9150610860826107fb565b604082019050919050565b5f6020820190508181035f83015261088281610849565b905091905056fea26469706673582212209fc1f92cf55475d7d471f085fd98cb2221e7112df59176971d2d0b15f7cd8d2d64736f6c63430008190033",
			"opcodes": "PUSH1 0x80 PUSH1 0x40 MSTORE CALLVALUE DUP1 ISZERO PUSH2 0xF JUMPI PUSH0 DUP1 REVERT JUMPDEST POP PUSH1 0x40 MLOAD PUSH2 0xEC6 CODESIZE SUB DUP1 PUSH2 0xEC6 DUP4 CODECOPY DUP2 DUP2 ADD PUSH1 0x40 MSTORE DUP2 ADD SWAP1 PUSH2 0x31 SWAP2 SWAP1 PUSH2 0x297 JUMP JUMPDEST CALLER PUSH0 DUP1 PUSH2 0x100 EXP DUP2 SLOAD DUP2 PUSH20 0xFFFFFFFFFFFFFFFFFFFFFFFFFFFFFFFFFFFFFFFF MUL NOT AND SWAP1 DUP4 PUSH20 0xFFFFFFFFFFFFFFFFFFFFFFFFFFFFFFFFFFFFFFFF AND MUL OR SWAP1 SSTORE POP DUP2 PUSH1 0x1 PUSH0 PUSH2 0x100 EXP DUP2 SLOAD DUP2 PUSH20 0xFFFFFFFFFFFFFFFFFFFFFFFFFFFFFFFFFFFFFFFF MUL NOT AND SWAP1 DUP4 PUSH20 0xFFFFFFFFFFFFFFFFFFFFFFFFFFFFFFFFFFFFFFFF AND MUL OR SWAP1 SSTORE POP DUP1 PUSH1 0x2 SWAP1 DUP2 PUSH2 0xBF SWAP2 SWAP1 PUSH2 0x4FE JUMP JUMPDEST POP PUSH0 PUSH1 0x3 PUSH0 PUSH2 0x100 EXP DUP2 SLOAD DUP2 PUSH1 0xFF MUL NOT AND SWAP1 DUP4 PUSH1 0x1 DUP2 GT ISZERO PUSH2 0xE4 JUMPI PUSH2 0xE3 PUSH2 0x5CD JUMP JUMPDEST JUMPDEST MUL OR SWAP1 SSTORE POP POP POP PUSH2 0x5FA JUMP JUMPDEST PUSH0 PUSH1 0x40 MLOAD SWAP1 POP SWAP1 JUMP JUMPDEST PUSH0 DUP1 REVERT JUMPDEST PUSH0 DUP1 REVERT JUMPDEST PUSH0 PUSH20 0xFFFFFFFFFFFFFFFFFFFFFFFFFFFFFFFFFFFFFFFF DUP3 AND SWAP1 POP SWAP2 SWAP1 POP JUMP JUMPDEST PUSH0 PUSH2 0x12A DUP3 PUSH2 0x101 JUMP JUMPDEST SWAP1 POP SWAP2 SWAP1 POP JUMP JUMPDEST PUSH2 0x13A DUP2 PUSH2 0x120 JUMP JUMPDEST DUP2 EQ PUSH2 0x144 JUMPI PUSH0 DUP1 REVERT JUMPDEST POP JUMP JUMPDEST PUSH0 DUP2 MLOAD SWAP1 POP PUSH2 0x155 DUP2 PUSH2 0x131 JUMP JUMPDEST SWAP3 SWAP2 POP POP JUMP JUMPDEST PUSH0 DUP1 REVERT JUMPDEST PUSH0 DUP1 REVERT JUMPDEST PUSH0 PUSH1 0x1F NOT PUSH1 0x1F DUP4 ADD AND SWAP1 POP SWAP2 SWAP1 POP JUMP JUMPDEST PUSH32 0x4E487B7100000000000000000000000000000000000000000000000000000000 PUSH0 MSTORE PUSH1 0x41 PUSH1 0x4 MSTORE PUSH1 0x24 PUSH0 REVERT JUMPDEST PUSH2 0x1A9 DUP3 PUSH2 0x163 JUMP JUMPDEST DUP2 ADD DUP2 DUP2 LT PUSH8 0xFFFFFFFFFFFFFFFF DUP3 GT OR ISZERO PUSH2 0x1C8 JUMPI PUSH2 0x1C7 PUSH2 0x173 JUMP JUMPDEST JUMPDEST DUP1 PUSH1 0x40 MSTORE POP POP POP JUMP JUMPDEST PUSH0 PUSH2 0x1DA PUSH2 0xF0 JUMP JUMPDEST SWAP1 POP PUSH2 0x1E6 DUP3 DUP3 PUSH2 0x1A0 JUMP JUMPDEST SWAP2 SWAP1 POP JUMP JUMPDEST PUSH0 PUSH8 0xFFFFFFFFFFFFFFFF DUP3 GT ISZERO PUSH2 0x205 JUMPI PUSH2 0x204 PUSH2 0x173 JUMP JUMPDEST JUMPDEST PUSH2 0x20E DUP3 PUSH2 0x163 JUMP JUMPDEST SWAP1 POP PUSH1 0x20 DUP2 ADD SWAP1 POP SWAP2 SWAP1 POP JUMP JUMPDEST DUP3 DUP2 DUP4 MCOPY PUSH0 DUP4 DUP4 ADD MSTORE POP POP POP JUMP JUMPDEST PUSH0 PUSH2 0x23B PUSH2 0x236 DUP5 PUSH2 0x1EB JUMP JUMPDEST PUSH2 0x1D1 JUMP JUMPDEST SWAP1 POP DUP3 DUP2 MSTORE PUSH1 0x20 DUP2 ADD DUP5 DUP5 DUP5 ADD GT ISZERO PUSH2 0x257 JUMPI PUSH2 0x256 PUSH2 0x15F JUMP JUMPDEST JUMPDEST PUSH2 0x262 DUP5 DUP3 DUP6 PUSH2 0x21B JUMP JUMPDEST POP SWAP4 SWAP3 POP POP POP JUMP JUMPDEST PUSH0 DUP3 PUSH1 0x1F DUP4 ADD SLT PUSH2 0x27E JUMPI PUSH2 0x27D PUSH2 0x15B JUMP JUMPDEST JUMPDEST DUP2 MLOAD PUSH2 0x28E DUP5 DUP3 PUSH1 0x20 DUP7 ADD PUSH2 0x229 JUMP JUMPDEST SWAP2 POP POP SWAP3 SWAP2 POP POP JUMP JUMPDEST PUSH0 DUP1 PUSH1 0x40 DUP4 DUP6 SUB SLT ISZERO PUSH2 0x2AD JUMPI PUSH2 0x2AC PUSH2 0xF9 JUMP JUMPDEST JUMPDEST PUSH0 PUSH2 0x2BA DUP6 DUP3 DUP7 ADD PUSH2 0x147 JUMP JUMPDEST SWAP3 POP POP PUSH1 0x20 DUP4 ADD MLOAD PUSH8 0xFFFFFFFFFFFFFFFF DUP2 GT ISZERO PUSH2 0x2DB JUMPI PUSH2 0x2DA PUSH2 0xFD JUMP JUMPDEST JUMPDEST PUSH2 0x2E7 DUP6 DUP3 DUP7 ADD PUSH2 0x26A JUMP JUMPDEST SWAP2 POP POP SWAP3 POP SWAP3 SWAP1 POP JUMP JUMPDEST PUSH0 DUP2 MLOAD SWAP1 POP SWAP2 SWAP1 POP JUMP JUMPDEST PUSH32 0x4E487B7100000000000000000000000000000000000000000000000000000000 PUSH0 MSTORE PUSH1 0x22 PUSH1 0x4 MSTORE PUSH1 0x24 PUSH0 REVERT JUMPDEST PUSH0 PUSH1 0x2 DUP3 DIV SWAP1 POP PUSH1 0x1 DUP3 AND DUP1 PUSH2 0x33F JUMPI PUSH1 0x7F DUP3 AND SWAP2 POP JUMPDEST PUSH1 0x20 DUP3 LT DUP2 SUB PUSH2 0x352 JUMPI PUSH2 0x351 PUSH2 0x2FB JUMP JUMPDEST JUMPDEST POP SWAP2 SWAP1 POP JUMP JUMPDEST PUSH0 DUP2 SWAP1 POP DUP2 PUSH0 MSTORE PUSH1 0x20 PUSH0 KECCAK256 SWAP1 POP SWAP2 SWAP1 POP JUMP JUMPDEST PUSH0 PUSH1 0x20 PUSH1 0x1F DUP4 ADD DIV SWAP1 POP SWAP2 SWAP1 POP JUMP JUMPDEST PUSH0 DUP3 DUP3 SHL SWAP1 POP SWAP3 SWAP2 POP POP JUMP JUMPDEST PUSH0 PUSH1 0x8 DUP4 MUL PUSH2 0x3B4 PUSH32 0xFFFFFFFFFFFFFFFFFFFFFFFFFFFFFFFFFFFFFFFFFFFFFFFFFFFFFFFFFFFFFFFF DUP3 PUSH2 0x379 JUMP JUMPDEST PUSH2 0x3BE DUP7 DUP4 PUSH2 0x379 JUMP JUMPDEST SWAP6 POP DUP1 NOT DUP5 AND SWAP4 POP DUP1 DUP7 AND DUP5 OR SWAP3 POP POP POP SWAP4 SWAP3 POP POP POP JUMP JUMPDEST PUSH0 DUP2 SWAP1 POP SWAP2 SWAP1 POP JUMP JUMPDEST PUSH0 DUP2 SWAP1 POP SWAP2 SWAP1 POP JUMP JUMPDEST PUSH0 PUSH2 0x402 PUSH2 0x3FD PUSH2 0x3F8 DUP5 PUSH2 0x3D6 JUMP JUMPDEST PUSH2 0x3DF JUMP JUMPDEST PUSH2 0x3D6 JUMP JUMPDEST SWAP1 POP SWAP2 SWAP1 POP JUMP JUMPDEST PUSH0 DUP2 SWAP1 POP SWAP2 SWAP1 POP JUMP JUMPDEST PUSH2 0x41B DUP4 PUSH2 0x3E8 JUMP JUMPDEST PUSH2 0x42F PUSH2 0x427 DUP3 PUSH2 0x409 JUMP JUMPDEST DUP5 DUP5 SLOAD PUSH2 0x385 JUMP JUMPDEST DUP3 SSTORE POP POP POP POP JUMP JUMPDEST PUSH0 SWAP1 JUMP JUMPDEST PUSH2 0x443 PUSH2 0x437 JUMP JUMPDEST PUSH2 0x44E DUP2 DUP5 DUP5 PUSH2 0x412 JUMP JUMPDEST POP POP POP JUMP JUMPDEST JUMPDEST DUP2 DUP2 LT ISZERO PUSH2 0x471 JUMPI PUSH2 0x466 PUSH0 DUP3 PUSH2 0x43B JUMP JUMPDEST PUSH1 0x1 DUP2 ADD SWAP1 POP PUSH2 0x454 JUMP JUMPDEST POP POP JUMP JUMPDEST PUSH1 0x1F DUP3 GT ISZERO PUSH2 0x4B6 JUMPI PUSH2 0x487 DUP2 PUSH2 0x358 JUMP JUMPDEST PUSH2 0x490 DUP5 PUSH2 0x36A JUMP JUMPDEST DUP2 ADD PUSH1 0x20 DUP6 LT ISZERO PUSH2 0x49F JUMPI DUP2 SWAP1 POP JUMPDEST PUSH2 0x4B3 PUSH2 0x4AB DUP6 PUSH2 0x36A JUMP JUMPDEST DUP4 ADD DUP3 PUSH2 0x453 JUMP JUMPDEST POP POP JUMPDEST POP POP POP JUMP JUMPDEST PUSH0 DUP3 DUP3 SHR SWAP1 POP SWAP3 SWAP2 POP POP JUMP JUMPDEST PUSH0 PUSH2 0x4D6 PUSH0 NOT DUP5 PUSH1 0x8 MUL PUSH2 0x4BB JUMP JUMPDEST NOT DUP1 DUP4 AND SWAP2 POP POP SWAP3 SWAP2 POP POP JUMP JUMPDEST PUSH0 PUSH2 0x4EE DUP4 DUP4 PUSH2 0x4C7 JUMP JUMPDEST SWAP2 POP DUP3 PUSH1 0x2 MUL DUP3 OR SWAP1 POP SWAP3 SWAP2 POP POP JUMP JUMPDEST PUSH2 0x507 DUP3 PUSH2 0x2F1 JUMP JUMPDEST PUSH8 0xFFFFFFFFFFFFFFFF DUP2 GT ISZERO PUSH2 0x520 JUMPI PUSH2 0x51F PUSH2 0x173 JUMP JUMPDEST JUMPDEST PUSH2 0x52A DUP3 SLOAD PUSH2 0x328 JUMP JUMPDEST PUSH2 0x535 DUP3 DUP3 DUP6 PUSH2 0x475 JUMP JUMPDEST PUSH0 PUSH1 0x20 SWAP1 POP PUSH1 0x1F DUP4 GT PUSH1 0x1 DUP2 EQ PUSH2 0x566 JUMPI PUSH0 DUP5 ISZERO PUSH2 0x554 JUMPI DUP3 DUP8 ADD MLOAD SWAP1 POP JUMPDEST PUSH2 0x55E DUP6 DUP3 PUSH2 0x4E3 JUMP JUMPDEST DUP7 SSTORE POP PUSH2 0x5C5 JUMP JUMPDEST PUSH1 0x1F NOT DUP5 AND PUSH2 0x574 DUP7 PUSH2 0x358 JUMP JUMPDEST PUSH0 JUMPDEST DUP3 DUP2 LT ISZERO PUSH2 0x59B JUMPI DUP5 DUP10 ADD MLOAD DUP3 SSTORE PUSH1 0x1 DUP3 ADD SWAP2 POP PUSH1 0x20 DUP6 ADD SWAP5 POP PUSH1 0x20 DUP2 ADD SWAP1 POP PUSH2 0x576 JUMP JUMPDEST DUP7 DUP4 LT ISZERO PUSH2 0x5B8 JUMPI DUP5 DUP10 ADD MLOAD PUSH2 0x5B4 PUSH1 0x1F DUP10 AND DUP3 PUSH2 0x4C7 JUMP JUMPDEST DUP4 SSTORE POP JUMPDEST PUSH1 0x1 PUSH1 0x2 DUP9 MUL ADD DUP9 SSTORE POP POP POP JUMPDEST POP POP POP POP POP POP JUMP JUMPDEST PUSH32 0x4E487B7100000000000000000000000000000000000000000000000000000000 PUSH0 MSTORE PUSH1 0x21 PUSH1 0x4 MSTORE PUSH1 0x24 PUSH0 REVERT JUMPDEST PUSH2 0x8BF DUP1 PUSH2 0x607 PUSH0 CODECOPY PUSH0 RETURN INVALID PUSH1 0x80 PUSH1 0x40 MSTORE PUSH1 0x4 CALLDATASIZE LT PUSH2 0x49 JUMPI PUSH0 CALLDATALOAD PUSH1 0xE0 SHR DUP1 PUSH4 0x1AF8C5D0 EQ PUSH2 0x4D JUMPI DUP1 PUSH4 0x1C91A65E EQ PUSH2 0x77 JUMPI DUP1 PUSH4 0x81F4F9BF EQ PUSH2 0x93 JUMPI DUP1 PUSH4 0xEF8A9235 EQ PUSH2 0xBD JUMPI DUP1 PUSH4 0xF0D13785 EQ PUSH2 0xE7 JUMPI JUMPDEST PUSH0 DUP1 REVERT JUMPDEST CALLVALUE DUP1 ISZERO PUSH2 0x58 JUMPI PUSH0 DUP1 REVERT JUMPDEST POP PUSH2 0x61 PUSH2 0x111 JUMP JUMPDEST PUSH1 0x40 MLOAD PUSH2 0x6E SWAP2 SWAP1 PUSH2 0x44D JUMP JUMPDEST PUSH1 0x40 MLOAD DUP1 SWAP2 SUB SWAP1 RETURN JUMPDEST PUSH2 0x91 PUSH1 0x4 DUP1 CALLDATASIZE SUB DUP2 ADD SWAP1 PUSH2 0x8C SWAP2 SWAP1 PUSH2 0x4A4 JUMP JUMPDEST PUSH2 0x19D JUMP JUMPDEST STOP JUMPDEST CALLVALUE DUP1 ISZERO PUSH2 0x9E JUMPI PUSH0 DUP1 REVERT JUMPDEST POP PUSH2 0xA7 PUSH2 0x383 JUMP JUMPDEST PUSH1 0x40 MLOAD PUSH2 0xB4 SWAP2 SWAP1 PUSH2 0x50E JUMP JUMPDEST PUSH1 0x40 MLOAD DUP1 SWAP2 SUB SWAP1 RETURN JUMPDEST CALLVALUE DUP1 ISZERO PUSH2 0xC8 JUMPI PUSH0 DUP1 REVERT JUMPDEST POP PUSH2 0xD1 PUSH2 0x3A6 JUMP JUMPDEST PUSH1 0x40 MLOAD PUSH2 0xDE SWAP2 SWAP1 PUSH2 0x59A JUMP JUMPDEST PUSH1 0x40 MLOAD DUP1 SWAP2 SUB SWAP1 RETURN JUMPDEST CALLVALUE DUP1 ISZERO PUSH2 0xF2 JUMPI PUSH0 DUP1 REVERT JUMPDEST POP PUSH2 0xFB PUSH2 0x3B8 JUMP JUMPDEST PUSH1 0x40 MLOAD PUSH2 0x108 SWAP2 SWAP1 PUSH2 0x60E JUMP JUMPDEST PUSH1 0x40 MLOAD DUP1 SWAP2 SUB SWAP1 RETURN JUMPDEST PUSH1 0x2 DUP1 SLOAD PUSH2 0x11E SWAP1 PUSH2 0x654 JUMP JUMPDEST DUP1 PUSH1 0x1F ADD PUSH1 0x20 DUP1 SWAP2 DIV MUL PUSH1 0x20 ADD PUSH1 0x40 MLOAD SWAP1 DUP2 ADD PUSH1 0x40 MSTORE DUP1 SWAP3 SWAP2 SWAP1 DUP2 DUP2 MSTORE PUSH1 0x20 ADD DUP3 DUP1 SLOAD PUSH2 0x14A SWAP1 PUSH2 0x654 JUMP JUMPDEST DUP1 ISZERO PUSH2 0x195 JUMPI DUP1 PUSH1 0x1F LT PUSH2 0x16C JUMPI PUSH2 0x100 DUP1 DUP4 SLOAD DIV MUL DUP4 MSTORE SWAP2 PUSH1 0x20 ADD SWAP2 PUSH2 0x195 JUMP JUMPDEST DUP3 ADD SWAP2 SWAP1 PUSH0 MSTORE PUSH1 0x20 PUSH0 KECCAK256 SWAP1 JUMPDEST DUP2 SLOAD DUP2 MSTORE SWAP1 PUSH1 0x1 ADD SWAP1 PUSH1 0x20 ADD DUP1 DUP4 GT PUSH2 0x178 JUMPI DUP3 SWAP1 SUB PUSH1 0x1F AND DUP3 ADD SWAP2 JUMPDEST POP POP POP POP POP DUP2 JUMP JUMPDEST PUSH0 PUSH1 0x1 DUP2 GT ISZERO PUSH2 0x1B0 JUMPI PUSH2 0x1AF PUSH2 0x527 JUMP JUMPDEST JUMPDEST PUSH1 0x3 PUSH0 SWAP1 SLOAD SWAP1 PUSH2 0x100 EXP SWAP1 DIV PUSH1 0xFF AND PUSH1 0x1 DUP2 GT ISZERO PUSH2 0x1D1 JUMPI PUSH2 0x1D0 PUSH2 0x527 JUMP JUMPDEST JUMPDEST EQ PUSH2 0x211 JUMPI PUSH1 0x40 MLOAD PUSH32 0x8C379A000000000000000000000000000000000000000000000000000000000 DUP2 MSTORE PUSH1 0x4 ADD PUSH2 0x208 SWAP1 PUSH2 0x6CE JUMP JUMPDEST PUSH1 0x40 MLOAD DUP1 SWAP2 SUB SWAP1 REVERT JUMPDEST PUSH0 PUSH1 0x1 PUSH0 SWAP1 SLOAD SWAP1 PUSH2 0x100 EXP SWAP1 DIV PUSH20 0xFFFFFFFFFFFFFFFFFFFFFFFFFFFFFFFFFFFFFFFF AND PUSH20 0xFFFFFFFFFFFFFFFFFFFFFFFFFFFFFFFFFFFFFFFF AND PUSH4 0xFC215748 PUSH1 0x2 DUP5 PUSH1 0x40 MLOAD DUP4 PUSH4 0xFFFFFFFF AND PUSH1 0xE0 SHL DUP2 MSTORE PUSH1 0x4 ADD PUSH2 0x26F SWAP3 SWAP2 SWAP1 PUSH2 0x78E JUMP JUMPDEST PUSH1 0x20 PUSH1 0x40 MLOAD DUP1 DUP4 SUB DUP2 DUP7 GAS STATICCALL ISZERO DUP1 ISZERO PUSH2 0x28A JUMPI RETURNDATASIZE PUSH0 DUP1 RETURNDATACOPY RETURNDATASIZE PUSH0 REVERT JUMPDEST POP POP POP POP PUSH1 0x40 MLOAD RETURNDATASIZE PUSH1 0x1F NOT PUSH1 0x1F DUP3 ADD AND DUP3 ADD DUP1 PUSH1 0x40 MSTORE POP DUP2 ADD SWAP1 PUSH2 0x2AE SWAP2 SWAP1 PUSH2 0x7D0 JUMP JUMPDEST SWAP1 POP DUP1 CALLVALUE EQ PUSH2 0x2F2 JUMPI PUSH1 0x40 MLOAD PUSH32 0x8C379A000000000000000000000000000000000000000000000000000000000 DUP2 MSTORE PUSH1 0x4 ADD PUSH2 0x2E9 SWAP1 PUSH2 0x86B JUMP JUMPDEST PUSH1 0x40 MLOAD DUP1 SWAP2 SUB SWAP1 REVERT JUMPDEST PUSH1 0x1 PUSH1 0x3 PUSH0 PUSH2 0x100 EXP DUP2 SLOAD DUP2 PUSH1 0xFF MUL NOT AND SWAP1 DUP4 PUSH1 0x1 DUP2 GT ISZERO PUSH2 0x317 JUMPI PUSH2 0x316 PUSH2 0x527 JUMP JUMPDEST JUMPDEST MUL OR SWAP1 SSTORE POP PUSH0 DUP1 SLOAD SWAP1 PUSH2 0x100 EXP SWAP1 DIV PUSH20 0xFFFFFFFFFFFFFFFFFFFFFFFFFFFFFFFFFFFFFFFF AND PUSH20 0xFFFFFFFFFFFFFFFFFFFFFFFFFFFFFFFFFFFFFFFF AND PUSH2 0x8FC CALLVALUE SWAP1 DUP2 ISZERO MUL SWAP1 PUSH1 0x40 MLOAD PUSH0 PUSH1 0x40 MLOAD DUP1 DUP4 SUB DUP2 DUP6 DUP9 DUP9 CALL SWAP4 POP POP POP POP ISZERO DUP1 ISZERO PUSH2 0x37E JUMPI RETURNDATASIZE PUSH0 DUP1 RETURNDATACOPY RETURNDATASIZE PUSH0 REVERT JUMPDEST POP POP POP JUMP JUMPDEST PUSH0 DUP1 SLOAD SWAP1 PUSH2 0x100 EXP SWAP1 DIV PUSH20 0xFFFFFFFFFFFFFFFFFFFFFFFFFFFFFFFFFFFFFFFF AND DUP2 JUMP JUMPDEST PUSH1 0x3 PUSH0 SWAP1 SLOAD SWAP1 PUSH2 0x100 EXP SWAP1 DIV PUSH1 0xFF AND DUP2 JUMP JUMPDEST PUSH1 0x1 PUSH0 SWAP1 SLOAD SWAP1 PUSH2 0x100 EXP SWAP1 DIV PUSH20 0xFFFFFFFFFFFFFFFFFFFFFFFFFFFFFFFFFFFFFFFF AND DUP2 JUMP JUMPDEST PUSH0 DUP2 MLOAD SWAP1 POP SWAP2 SWAP1 POP JUMP JUMPDEST PUSH0 DUP3 DUP3 MSTORE PUSH1 0x20 DUP3 ADD SWAP1 POP SWAP3 SWAP2 POP POP JUMP JUMPDEST DUP3 DUP2 DUP4 MCOPY PUSH0 DUP4 DUP4 ADD MSTORE POP POP POP JUMP JUMPDEST PUSH0 PUSH1 0x1F NOT PUSH1 0x1F DUP4 ADD AND SWAP1 POP SWAP2 SWAP1 POP JUMP JUMPDEST PUSH0 PUSH2 0x41F DUP3 PUSH2 0x3DD JUMP JUMPDEST PUSH2 0x429 DUP2 DUP6 PUSH2 0x3E7 JUMP JUMPDEST SWAP4 POP PUSH2 0x439 DUP2 DUP6 PUSH1 0x20 DUP7 ADD PUSH2 0x3F7 JUMP JUMPDEST PUSH2 0x442 DUP2 PUSH2 0x405 JUMP JUMPDEST DUP5 ADD SWAP2 POP POP SWAP3 SWAP2 POP POP JUMP JUMPDEST PUSH0 PUSH1 0x20 DUP3 ADD SWAP1 POP DUP2 DUP2 SUB PUSH0 DUP4 ADD MSTORE PUSH2 0x465 DUP2 DUP5 PUSH2 0x415 JUMP JUMPDEST SWAP1 POP SWAP3 SWAP2 POP POP JUMP JUMPDEST PUSH0 DUP1 REVERT JUMPDEST PUSH0 DUP2 SWAP1 POP SWAP2 SWAP1 POP JUMP JUMPDEST PUSH2 0x483 DUP2 PUSH2 0x471 JUMP JUMPDEST DUP2 EQ PUSH2 0x48D JUMPI PUSH0 DUP1 REVERT JUMPDEST POP JUMP JUMPDEST PUSH0 DUP2 CALLDATALOAD SWAP1 POP PUSH2 0x49E DUP2 PUSH2 0x47A JUMP JUMPDEST SWAP3 SWAP2 POP POP JUMP JUMPDEST PUSH0 PUSH1 0x20 DUP3 DUP5 SUB SLT ISZERO PUSH2 0x4B9 JUMPI PUSH2 0x4B8 PUSH2 0x46D JUMP JUMPDEST JUMPDEST PUSH0 PUSH2 0x4C6 DUP5 DUP3 DUP6 ADD PUSH2 0x490 JUMP JUMPDEST SWAP2 POP POP SWAP3 SWAP2 POP POP JUMP JUMPDEST PUSH0 PUSH20 0xFFFFFFFFFFFFFFFFFFFFFFFFFFFFFFFFFFFFFFFF DUP3 AND SWAP1 POP SWAP2 SWAP1 POP JUMP JUMPDEST PUSH0 PUSH2 0x4F8 DUP3 PUSH2 0x4CF JUMP JUMPDEST SWAP1 POP SWAP2 SWAP1 POP JUMP JUMPDEST PUSH2 0x508 DUP2 PUSH2 0x4EE JUMP JUMPDEST DUP3 MSTORE POP POP JUMP JUMPDEST PUSH0 PUSH1 0x20 DUP3 ADD SWAP1 POP PUSH2 0x521 PUSH0 DUP4 ADD DUP5 PUSH2 0x4FF JUMP JUMPDEST SWAP3 SWAP2 POP POP JUMP JUMPDEST PUSH32 0x4E487B7100000000000000000000000000000000000000000000000000000000 PUSH0 MSTORE PUSH1 0x21 PUSH1 0x4 MSTORE PUSH1 0x24 PUSH0 REVERT JUMPDEST PUSH1 0x2 DUP2 LT PUSH2 0x565 JUMPI PUSH2 0x564 PUSH2 0x527 JUMP JUMPDEST JUMPDEST POP JUMP JUMPDEST PUSH0 DUP2 SWAP1 POP PUSH2 0x575 DUP3 PUSH2 0x554 JUMP JUMPDEST SWAP2 SWAP1 POP JUMP JUMPDEST PUSH0 PUSH2 0x584 DUP3 PUSH2 0x568 JUMP JUMPDEST SWAP1 POP SWAP2 SWAP1 POP JUMP JUMPDEST PUSH2 0x594 DUP2 PUSH2 0x57A JUMP JUMPDEST DUP3 MSTORE POP POP JUMP JUMPDEST PUSH0 PUSH1 0x20 DUP3 ADD SWAP1 POP PUSH2 0x5AD PUSH0 DUP4 ADD DUP5 PUSH2 0x58B JUMP JUMPDEST SWAP3 SWAP2 POP POP JUMP JUMPDEST PUSH0 DUP2 SWAP1 POP SWAP2 SWAP1 POP JUMP JUMPDEST PUSH0 PUSH2 0x5D6 PUSH2 0x5D1 PUSH2 0x5CC DUP5 PUSH2 0x4CF JUMP JUMPDEST PUSH2 0x5B3 JUMP JUMPDEST PUSH2 0x4CF JUMP JUMPDEST SWAP1 POP SWAP2 SWAP1 POP JUMP JUMPDEST PUSH0 PUSH2 0x5E7 DUP3 PUSH2 0x5BC JUMP JUMPDEST SWAP1 POP SWAP2 SWAP1 POP JUMP JUMPDEST PUSH0 PUSH2 0x5F8 DUP3 PUSH2 0x5DD JUMP JUMPDEST SWAP1 POP SWAP2 SWAP1 POP JUMP JUMPDEST PUSH2 0x608 DUP2 PUSH2 0x5EE JUMP JUMPDEST DUP3 MSTORE POP POP JUMP JUMPDEST PUSH0 PUSH1 0x20 DUP3 ADD SWAP1 POP PUSH2 0x621 PUSH0 DUP4 ADD DUP5 PUSH2 0x5FF JUMP JUMPDEST SWAP3 SWAP2 POP POP JUMP JUMPDEST PUSH32 0x4E487B7100000000000000000000000000000000000000000000000000000000 PUSH0 MSTORE PUSH1 0x22 PUSH1 0x4 MSTORE PUSH1 0x24 PUSH0 REVERT JUMPDEST PUSH0 PUSH1 0x2 DUP3 DIV SWAP1 POP PUSH1 0x1 DUP3 AND DUP1 PUSH2 0x66B JUMPI PUSH1 0x7F DUP3 AND SWAP2 POP JUMPDEST PUSH1 0x20 DUP3 LT DUP2 SUB PUSH2 0x67E JUMPI PUSH2 0x67D PUSH2 0x627 JUMP JUMPDEST JUMPDEST POP SWAP2 SWAP1 POP JUMP JUMPDEST PUSH32 0x536561742069732074616B656E2E000000000000000000000000000000000000 PUSH0 DUP3 ADD MSTORE POP JUMP JUMPDEST PUSH0 PUSH2 0x6B8 PUSH1 0xE DUP4 PUSH2 0x3E7 JUMP JUMPDEST SWAP2 POP PUSH2 0x6C3 DUP3 PUSH2 0x684 JUMP JUMPDEST PUSH1 0x20 DUP3 ADD SWAP1 POP SWAP2 SWAP1 POP JUMP JUMPDEST PUSH0 PUSH1 0x20 DUP3 ADD SWAP1 POP DUP2 DUP2 SUB PUSH0 DUP4 ADD MSTORE PUSH2 0x6E5 DUP2 PUSH2 0x6AC JUMP JUMPDEST SWAP1 POP SWAP2 SWAP1 POP JUMP JUMPDEST PUSH0 DUP2 SWAP1 POP DUP2 PUSH0 MSTORE PUSH1 0x20 PUSH0 KECCAK256 SWAP1 POP SWAP2 SWAP1 POP JUMP JUMPDEST PUSH0 DUP2 SLOAD PUSH2 0x70A DUP2 PUSH2 0x654 JUMP JUMPDEST PUSH2 0x714 DUP2 DUP7 PUSH2 0x3E7 JUMP JUMPDEST SWAP5 POP PUSH1 0x1 DUP3 AND PUSH0 DUP2 EQ PUSH2 0x72E JUMPI PUSH1 0x1 DUP2 EQ PUSH2 0x744 JUMPI PUSH2 0x776 JUMP JUMPDEST PUSH1 0xFF NOT DUP4 AND DUP7 MSTORE DUP2 ISZERO ISZERO PUSH1 0x20 MUL DUP7 ADD SWAP4 POP PUSH2 0x776 JUMP JUMPDEST PUSH2 0x74D DUP6 PUSH2 0x6EC JUMP JUMPDEST PUSH0 JUMPDEST DUP4 DUP2 LT ISZERO PUSH2 0x76E JUMPI DUP2 SLOAD DUP2 DUP10 ADD MSTORE PUSH1 0x1 DUP3 ADD SWAP2 POP PUSH1 0x20 DUP2 ADD SWAP1 POP PUSH2 0x74F JUMP JUMPDEST DUP1 DUP9 ADD SWAP6 POP POP POP JUMPDEST POP POP POP SWAP3 SWAP2 POP POP JUMP JUMPDEST PUSH2 0x788 DUP2 PUSH2 0x471 JUMP JUMPDEST DUP3 MSTORE POP POP JUMP JUMPDEST PUSH0 PUSH1 0x40 DUP3 ADD SWAP1 POP DUP2 DUP2 SUB PUSH0 DUP4 ADD MSTORE PUSH2 0x7A6 DUP2 DUP6 PUSH2 0x6FE JUMP JUMPDEST SWAP1 POP PUSH2 0x7B5 PUSH1 0x20 DUP4 ADD DUP5 PUSH2 0x77F JUMP JUMPDEST SWAP4 SWAP3 POP POP POP JUMP JUMPDEST PUSH0 DUP2 MLOAD SWAP1 POP PUSH2 0x7CA DUP2 PUSH2 0x47A JUMP JUMPDEST SWAP3 SWAP2 POP POP JUMP JUMPDEST PUSH0 PUSH1 0x20 DUP3 DUP5 SUB SLT ISZERO PUSH2 0x7E5 JUMPI PUSH2 0x7E4 PUSH2 0x46D JUMP JUMPDEST JUMPDEST PUSH0 PUSH2 0x7F2 DUP5 DUP3 DUP6 ADD PUSH2 0x7BC JUMP JUMPDEST SWAP2 POP POP SWAP3 SWAP2 POP POP JUMP JUMPDEST PUSH32 0x506C656173652073656E6420746865206578616374207469636B657420707269 PUSH0 DUP3 ADD MSTORE PUSH32 0x63652E0000000000000000000000000000000000000000000000000000000000 PUSH1 0x20 DUP3 ADD MSTORE POP JUMP JUMPDEST PUSH0 PUSH2 0x855 PUSH1 0x23 DUP4 PUSH2 0x3E7 JUMP JUMPDEST SWAP2 POP PUSH2 0x860 DUP3 PUSH2 0x7FB JUMP JUMPDEST PUSH1 0x40 DUP3 ADD SWAP1 POP SWAP2 SWAP1 POP JUMP JUMPDEST PUSH0 PUSH1 0x20 DUP3 ADD SWAP1 POP DUP2 DUP2 SUB PUSH0 DUP4 ADD MSTORE PUSH2 0x882 DUP2 PUSH2 0x849 JUMP JUMPDEST SWAP1 POP SWAP2 SWAP1 POP JUMP INVALID LOG2 PUSH5 0x6970667358 0x22 SLT KECCAK256 SWAP16 0xC1 0xF9 0x2C CREATE2 SLOAD PUSH22 0xD7D471F085FD98CB2221E7112DF59176971D2D0B15F7 0xCD DUP14 0x2D PUSH5 0x736F6C6343 STOP ADDMOD NOT STOP CALLER "
		},
		"gasEstimates": {
			"creation": {
				"codeDepositCost": "447800",
				"executionCost": "infinite",
				"totalCost": "infinite"
			},
			"external": {
				"bookTicket(uint256)": "infinite",
				"currentStatus()": "2598",
				"flightNumber()": "infinite",
				"flightPricingContract()": "infinite",
				"ticketHolder()": "2527"
			}
		},
		"methodIdentifiers": {
			"bookTicket(uint256)": "1c91a65e",
			"currentStatus()": "ef8a9235",
			"flightNumber()": "1af8c5d0",
			"flightPricingContract()": "f0d13785",
			"ticketHolder()": "81f4f9bf"
		}
	},
	"abi": [
		{
			"inputs": [
				{
					"internalType": "address",
					"name": "_flightPricingContract",
					"type": "address"
				},
				{
					"internalType": "string",
					"name": "_flightNumber",
					"type": "string"
				}
			],
			"stateMutability": "nonpayable",
			"type": "constructor"
		},
		{
			"inputs": [
				{
					"internalType": "uint256",
					"name": "seatClass",
					"type": "uint256"
				}
			],
			"name": "bookTicket",
			"outputs": [],
			"stateMutability": "payable",
			"type": "function"
		},
		{
			"inputs": [],
			"name": "currentStatus",
			"outputs": [
				{
					"internalType": "enum PlaneTicket.Statuses",
					"name": "",
					"type": "uint8"
				}
			],
			"stateMutability": "view",
			"type": "function"
		},
		{
			"inputs": [],
			"name": "flightNumber",
			"outputs": [
				{
					"internalType": "string",
					"name": "",
					"type": "string"
				}
			],
			"stateMutability": "view",
			"type": "function"
		},
		{
			"inputs": [],
			"name": "flightPricingContract",
			"outputs": [
				{
					"internalType": "contract FlightPricing",
					"name": "",
					"type": "address"
				}
			],
			"stateMutability": "view",
			"type": "function"
		},
		{
			"inputs": [],
			"name": "ticketHolder",
			"outputs": [
				{
					"internalType": "address payable",
					"name": "",
					"type": "address"
				}
			],
			"stateMutability": "view",
			"type": "function"
		}
	]
}