{
	"contracts/FlightPricing.sol": {
		"FlightPricing": {
			"abi": [
				{
					"inputs": [
						{
							"internalType": "string",
							"name": "",
							"type": "string"
						}
					],
					"name": "flightPrices",
					"outputs": [
						{
							"internalType": "uint256",
							"name": "economy",
							"type": "uint256"
						},
						{
							"internalType": "uint256",
							"name": "business",
							"type": "uint256"
						},
						{
							"internalType": "uint256",
							"name": "firstClass",
							"type": "uint256"
						}
					],
					"stateMutability": "view",
					"type": "function"
				},
				{
					"inputs": [
						{
							"internalType": "string",
							"name": "_flightNumber",
							"type": "string"
						},
						{
							"internalType": "uint256",
							"name": "seatClass",
							"type": "uint256"
						}
					],
					"name": "getFlightPrice",
					"outputs": [
						{
							"internalType": "uint256",
							"name": "",
							"type": "uint256"
						}
					],
					"stateMutability": "view",
					"type": "function"
				},
				{
					"inputs": [
						{
							"internalType": "string",
							"name": "_flightNumber",
							"type": "string"
						},
						{
							"internalType": "uint256",
							"name": "_economy",
							"type": "uint256"
						},
						{
							"internalType": "uint256",
							"name": "_business",
							"type": "uint256"
						},
						{
							"internalType": "uint256",
							"name": "_firstClass",
							"type": "uint256"
						}
					],
					"name": "setFlightPrice",
					"outputs": [],
					"stateMutability": "nonpayable",
					"type": "function"
				}
			],
			"devdoc": {
				"kind": "dev",
				"methods": {},
				"version": 1
			},
			"evm": {
				"assembly": "    /* \"contracts/FlightPricing.sol\":58:1215  contract FlightPricing {... */\n  mstore(0x40, 0x80)\n  callvalue\n  dup1\n  iszero\n  tag_1\n  jumpi\n  0x00\n  dup1\n  revert\ntag_1:\n  pop\n  dataSize(sub_0)\n  dup1\n  dataOffset(sub_0)\n  0x00\n  codecopy\n  0x00\n  return\nstop\n\nsub_0: assembly {\n        /* \"contracts/FlightPricing.sol\":58:1215  contract FlightPricing {... */\n      mstore(0x40, 0x80)\n      callvalue\n      dup1\n      iszero\n      tag_1\n      jumpi\n      0x00\n      dup1\n      revert\n    tag_1:\n      pop\n      jumpi(tag_2, lt(calldatasize, 0x04))\n      shr(0xe0, calldataload(0x00))\n      dup1\n      0x271a6dea\n      eq\n      tag_3\n      jumpi\n      dup1\n      0x35a85184\n      eq\n      tag_4\n      jumpi\n      dup1\n      0xfc215748\n      eq\n      tag_5\n      jumpi\n    tag_2:\n      0x00\n      dup1\n      revert\n        /* \"contracts/FlightPricing.sol\":220:264  mapping(string => Price) public flightPrices */\n    tag_3:\n      tag_6\n      0x04\n      dup1\n      calldatasize\n      sub\n      dup2\n      add\n      swap1\n      tag_7\n      swap2\n      swap1\n      tag_8\n      jump\t// in\n    tag_7:\n      tag_9\n      jump\t// in\n    tag_6:\n      mload(0x40)\n      tag_10\n      swap4\n      swap3\n      swap2\n      swap1\n      tag_11\n      jump\t// in\n    tag_10:\n      mload(0x40)\n      dup1\n      swap2\n      sub\n      swap1\n      return\n        /* \"contracts/FlightPricing.sol\":271:693  function setFlightPrice(... */\n    tag_4:\n      tag_12\n      0x04\n      dup1\n      calldatasize\n      sub\n      dup2\n      add\n      swap1\n      tag_13\n      swap2\n      swap1\n      tag_14\n      jump\t// in\n    tag_13:\n      tag_15\n      jump\t// in\n    tag_12:\n      stop\n        /* \"contracts/FlightPricing.sol\":762:1213  function getFlightPrice(string memory _flightNumber, uint256 seatClass) public view returns (uint256) {... */\n    tag_5:\n      tag_16\n      0x04\n      dup1\n      calldatasize\n      sub\n      dup2\n      add\n      swap1\n      tag_17\n      swap2\n      swap1\n      tag_18\n      jump\t// in\n    tag_17:\n      tag_19\n      jump\t// in\n    tag_16:\n      mload(0x40)\n      tag_20\n      swap2\n      swap1\n      tag_21\n      jump\t// in\n    tag_20:\n      mload(0x40)\n      dup1\n      swap2\n      sub\n      swap1\n      return\n        /* \"contracts/FlightPricing.sol\":220:264  mapping(string => Price) public flightPrices */\n    tag_9:\n      0x00\n      dup2\n      dup1\n      mload\n      0x20\n      dup2\n      add\n      dup3\n      add\n      dup1\n      mload\n      dup5\n      dup3\n      mstore\n      0x20\n      dup4\n      add\n      0x20\n      dup6\n      add\n      keccak256\n      dup2\n      dup4\n      mstore\n      dup1\n      swap6\n      pop\n      pop\n      pop\n      pop\n      pop\n      pop\n      0x00\n      swap2\n      pop\n      swap1\n      pop\n      dup1\n      0x00\n      add\n      sload\n      swap1\n      dup1\n      0x01\n      add\n      sload\n      swap1\n      dup1\n      0x02\n      add\n      sload\n      swap1\n      pop\n      dup4\n      jump\t// out\n        /* \"contracts/FlightPricing.sol\":271:693  function setFlightPrice(... */\n    tag_15:\n        /* \"contracts/FlightPricing.sol\":568:686  Price({... */\n      mload(0x40)\n      dup1\n      0x60\n      add\n      0x40\n      mstore\n      dup1\n        /* \"contracts/FlightPricing.sol\":597:605  _economy */\n      dup5\n        /* \"contracts/FlightPricing.sol\":568:686  Price({... */\n      dup2\n      mstore\n      0x20\n      add\n        /* \"contracts/FlightPricing.sol\":629:638  _business */\n      dup4\n        /* \"contracts/FlightPricing.sol\":568:686  Price({... */\n      dup2\n      mstore\n      0x20\n      add\n        /* \"contracts/FlightPricing.sol\":664:675  _firstClass */\n      dup3\n        /* \"contracts/FlightPricing.sol\":568:686  Price({... */\n      dup2\n      mstore\n      pop\n        /* \"contracts/FlightPricing.sol\":538:550  flightPrices */\n      0x00\n        /* \"contracts/FlightPricing.sol\":551:564  _flightNumber */\n      dup6\n        /* \"contracts/FlightPricing.sol\":538:565  flightPrices[_flightNumber] */\n      mload(0x40)\n      tag_23\n      swap2\n      swap1\n      tag_24\n      jump\t// in\n    tag_23:\n      swap1\n      dup2\n      mstore\n      0x20\n      add\n      mload(0x40)\n      dup1\n      swap2\n      sub\n      swap1\n      keccak256\n        /* \"contracts/FlightPricing.sol\":538:686  flightPrices[_flightNumber] = Price({... */\n      0x00\n      dup3\n      add\n      mload\n      dup2\n      0x00\n      add\n      sstore\n      0x20\n      dup3\n      add\n      mload\n      dup2\n      0x01\n      add\n      sstore\n      0x40\n      dup3\n      add\n      mload\n      dup2\n      0x02\n      add\n      sstore\n      swap1\n      pop\n      pop\n        /* \"contracts/FlightPricing.sol\":271:693  function setFlightPrice(... */\n      pop\n      pop\n      pop\n      pop\n      jump\t// out\n        /* \"contracts/FlightPricing.sol\":762:1213  function getFlightPrice(string memory _flightNumber, uint256 seatClass) public view returns (uint256) {... */\n    tag_19:\n        /* \"contracts/FlightPricing.sol\":855:862  uint256 */\n      0x00\n        /* \"contracts/FlightPricing.sol\":874:893  Price memory prices */\n      dup1\n        /* \"contracts/FlightPricing.sol\":896:908  flightPrices */\n      0x00\n        /* \"contracts/FlightPricing.sol\":909:922  _flightNumber */\n      dup5\n        /* \"contracts/FlightPricing.sol\":896:923  flightPrices[_flightNumber] */\n      mload(0x40)\n      tag_26\n      swap2\n      swap1\n      tag_24\n      jump\t// in\n    tag_26:\n      swap1\n      dup2\n      mstore\n      0x20\n      add\n      mload(0x40)\n      dup1\n      swap2\n      sub\n      swap1\n      keccak256\n        /* \"contracts/FlightPricing.sol\":874:923  Price memory prices = flightPrices[_flightNumber] */\n      mload(0x40)\n      dup1\n      0x60\n      add\n      0x40\n      mstore\n      swap1\n      dup2\n      0x00\n      dup3\n      add\n      sload\n      dup2\n      mstore\n      0x20\n      add\n      0x01\n      dup3\n      add\n      sload\n      dup2\n      mstore\n      0x20\n      add\n      0x02\n      dup3\n      add\n      sload\n      dup2\n      mstore\n      pop\n      pop\n      swap1\n      pop\n        /* \"contracts/FlightPricing.sol\":950:951  0 */\n      0x00\n        /* \"contracts/FlightPricing.sol\":937:946  seatClass */\n      dup4\n        /* \"contracts/FlightPricing.sol\":937:951  seatClass == 0 */\n      sub\n        /* \"contracts/FlightPricing.sol\":933:1207  if (seatClass == 0) {... */\n      tag_27\n      jumpi\n        /* \"contracts/FlightPricing.sol\":974:980  prices */\n      dup1\n        /* \"contracts/FlightPricing.sol\":974:988  prices.economy */\n      0x00\n      add\n      mload\n        /* \"contracts/FlightPricing.sol\":967:988  return prices.economy */\n      swap2\n      pop\n      pop\n      jump(tag_25)\n        /* \"contracts/FlightPricing.sol\":933:1207  if (seatClass == 0) {... */\n    tag_27:\n        /* \"contracts/FlightPricing.sol\":1022:1023  1 */\n      0x01\n        /* \"contracts/FlightPricing.sol\":1009:1018  seatClass */\n      dup4\n        /* \"contracts/FlightPricing.sol\":1009:1023  seatClass == 1 */\n      sub\n        /* \"contracts/FlightPricing.sol\":1005:1207  if (seatClass == 1) {... */\n      tag_29\n      jumpi\n        /* \"contracts/FlightPricing.sol\":1046:1052  prices */\n      dup1\n        /* \"contracts/FlightPricing.sol\":1046:1061  prices.business */\n      0x20\n      add\n      mload\n        /* \"contracts/FlightPricing.sol\":1039:1061  return prices.business */\n      swap2\n      pop\n      pop\n      jump(tag_25)\n        /* \"contracts/FlightPricing.sol\":1005:1207  if (seatClass == 1) {... */\n    tag_29:\n        /* \"contracts/FlightPricing.sol\":1095:1096  2 */\n      0x02\n        /* \"contracts/FlightPricing.sol\":1082:1091  seatClass */\n      dup4\n        /* \"contracts/FlightPricing.sol\":1082:1096  seatClass == 2 */\n      sub\n        /* \"contracts/FlightPricing.sol\":1078:1207  if (seatClass == 2) {... */\n      tag_31\n      jumpi\n        /* \"contracts/FlightPricing.sol\":1119:1125  prices */\n      dup1\n        /* \"contracts/FlightPricing.sol\":1119:1136  prices.firstClass */\n      0x40\n      add\n      mload\n        /* \"contracts/FlightPricing.sol\":1112:1136  return prices.firstClass */\n      swap2\n      pop\n      pop\n      jump(tag_25)\n        /* \"contracts/FlightPricing.sol\":1078:1207  if (seatClass == 2) {... */\n    tag_31:\n        /* \"contracts/FlightPricing.sol\":1167:1196  revert(\"Invalid seat class.\") */\n      mload(0x40)\n      0x08c379a000000000000000000000000000000000000000000000000000000000\n      dup2\n      mstore\n      0x04\n      add\n      tag_33\n      swap1\n      tag_34\n      jump\t// in\n    tag_33:\n      mload(0x40)\n      dup1\n      swap2\n      sub\n      swap1\n      revert\n        /* \"contracts/FlightPricing.sol\":762:1213  function getFlightPrice(string memory _flightNumber, uint256 seatClass) public view returns (uint256) {... */\n    tag_25:\n      swap3\n      swap2\n      pop\n      pop\n      jump\t// out\n        /* \"#utility.yul\":7:82   */\n    tag_35:\n        /* \"#utility.yul\":40:46   */\n      0x00\n        /* \"#utility.yul\":73:75   */\n      0x40\n        /* \"#utility.yul\":67:76   */\n      mload\n        /* \"#utility.yul\":57:76   */\n      swap1\n      pop\n        /* \"#utility.yul\":7:82   */\n      swap1\n      jump\t// out\n        /* \"#utility.yul\":88:205   */\n    tag_36:\n        /* \"#utility.yul\":197:198   */\n      0x00\n        /* \"#utility.yul\":194:195   */\n      dup1\n        /* \"#utility.yul\":187:199   */\n      revert\n        /* \"#utility.yul\":211:328   */\n    tag_37:\n        /* \"#utility.yul\":320:321   */\n      0x00\n        /* \"#utility.yul\":317:318   */\n      dup1\n        /* \"#utility.yul\":310:322   */\n      revert\n        /* \"#utility.yul\":334:451   */\n    tag_38:\n        /* \"#utility.yul\":443:444   */\n      0x00\n        /* \"#utility.yul\":440:441   */\n      dup1\n        /* \"#utility.yul\":433:445   */\n      revert\n        /* \"#utility.yul\":457:574   */\n    tag_39:\n        /* \"#utility.yul\":566:567   */\n      0x00\n        /* \"#utility.yul\":563:564   */\n      dup1\n        /* \"#utility.yul\":556:568   */\n      revert\n        /* \"#utility.yul\":580:682   */\n    tag_40:\n        /* \"#utility.yul\":621:627   */\n      0x00\n        /* \"#utility.yul\":672:674   */\n      0x1f\n        /* \"#utility.yul\":668:675   */\n      not\n        /* \"#utility.yul\":663:665   */\n      0x1f\n        /* \"#utility.yul\":656:661   */\n      dup4\n        /* \"#utility.yul\":652:666   */\n      add\n        /* \"#utility.yul\":648:676   */\n      and\n        /* \"#utility.yul\":638:676   */\n      swap1\n      pop\n        /* \"#utility.yul\":580:682   */\n      swap2\n      swap1\n      pop\n      jump\t// out\n        /* \"#utility.yul\":688:868   */\n    tag_41:\n        /* \"#utility.yul\":736:813   */\n      0x4e487b7100000000000000000000000000000000000000000000000000000000\n        /* \"#utility.yul\":733:734   */\n      0x00\n        /* \"#utility.yul\":726:814   */\n      mstore\n        /* \"#utility.yul\":833:837   */\n      0x41\n        /* \"#utility.yul\":830:831   */\n      0x04\n        /* \"#utility.yul\":823:838   */\n      mstore\n        /* \"#utility.yul\":857:861   */\n      0x24\n        /* \"#utility.yul\":854:855   */\n      0x00\n        /* \"#utility.yul\":847:862   */\n      revert\n        /* \"#utility.yul\":874:1155   */\n    tag_42:\n        /* \"#utility.yul\":957:984   */\n      tag_68\n        /* \"#utility.yul\":979:983   */\n      dup3\n        /* \"#utility.yul\":957:984   */\n      tag_40\n      jump\t// in\n    tag_68:\n        /* \"#utility.yul\":949:955   */\n      dup2\n        /* \"#utility.yul\":945:985   */\n      add\n        /* \"#utility.yul\":1087:1093   */\n      dup2\n        /* \"#utility.yul\":1075:1085   */\n      dup2\n        /* \"#utility.yul\":1072:1094   */\n      lt\n        /* \"#utility.yul\":1051:1069   */\n      0xffffffffffffffff\n        /* \"#utility.yul\":1039:1049   */\n      dup3\n        /* \"#utility.yul\":1036:1070   */\n      gt\n        /* \"#utility.yul\":1033:1095   */\n      or\n        /* \"#utility.yul\":1030:1118   */\n      iszero\n      tag_69\n      jumpi\n        /* \"#utility.yul\":1098:1116   */\n      tag_70\n      tag_41\n      jump\t// in\n    tag_70:\n        /* \"#utility.yul\":1030:1118   */\n    tag_69:\n        /* \"#utility.yul\":1138:1148   */\n      dup1\n        /* \"#utility.yul\":1134:1136   */\n      0x40\n        /* \"#utility.yul\":1127:1149   */\n      mstore\n        /* \"#utility.yul\":917:1155   */\n      pop\n        /* \"#utility.yul\":874:1155   */\n      pop\n      pop\n      jump\t// out\n        /* \"#utility.yul\":1161:1290   */\n    tag_43:\n        /* \"#utility.yul\":1195:1201   */\n      0x00\n        /* \"#utility.yul\":1222:1242   */\n      tag_72\n      tag_35\n      jump\t// in\n    tag_72:\n        /* \"#utility.yul\":1212:1242   */\n      swap1\n      pop\n        /* \"#utility.yul\":1251:1284   */\n      tag_73\n        /* \"#utility.yul\":1279:1283   */\n      dup3\n        /* \"#utility.yul\":1271:1277   */\n      dup3\n        /* \"#utility.yul\":1251:1284   */\n      tag_42\n      jump\t// in\n    tag_73:\n        /* \"#utility.yul\":1161:1290   */\n      swap2\n      swap1\n      pop\n      jump\t// out\n        /* \"#utility.yul\":1296:1604   */\n    tag_44:\n        /* \"#utility.yul\":1358:1362   */\n      0x00\n        /* \"#utility.yul\":1448:1466   */\n      0xffffffffffffffff\n        /* \"#utility.yul\":1440:1446   */\n      dup3\n        /* \"#utility.yul\":1437:1467   */\n      gt\n        /* \"#utility.yul\":1434:1490   */\n      iszero\n      tag_75\n      jumpi\n        /* \"#utility.yul\":1470:1488   */\n      tag_76\n      tag_41\n      jump\t// in\n    tag_76:\n        /* \"#utility.yul\":1434:1490   */\n    tag_75:\n        /* \"#utility.yul\":1508:1537   */\n      tag_77\n        /* \"#utility.yul\":1530:1536   */\n      dup3\n        /* \"#utility.yul\":1508:1537   */\n      tag_40\n      jump\t// in\n    tag_77:\n        /* \"#utility.yul\":1500:1537   */\n      swap1\n      pop\n        /* \"#utility.yul\":1592:1596   */\n      0x20\n        /* \"#utility.yul\":1586:1590   */\n      dup2\n        /* \"#utility.yul\":1582:1597   */\n      add\n        /* \"#utility.yul\":1574:1597   */\n      swap1\n      pop\n        /* \"#utility.yul\":1296:1604   */\n      swap2\n      swap1\n      pop\n      jump\t// out\n        /* \"#utility.yul\":1610:1758   */\n    tag_45:\n        /* \"#utility.yul\":1708:1714   */\n      dup3\n        /* \"#utility.yul\":1703:1706   */\n      dup2\n        /* \"#utility.yul\":1698:1701   */\n      dup4\n        /* \"#utility.yul\":1685:1715   */\n      calldatacopy\n        /* \"#utility.yul\":1749:1750   */\n      0x00\n        /* \"#utility.yul\":1740:1746   */\n      dup4\n        /* \"#utility.yul\":1735:1738   */\n      dup4\n        /* \"#utility.yul\":1731:1747   */\n      add\n        /* \"#utility.yul\":1724:1751   */\n      mstore\n        /* \"#utility.yul\":1610:1758   */\n      pop\n      pop\n      pop\n      jump\t// out\n        /* \"#utility.yul\":1764:2189   */\n    tag_46:\n        /* \"#utility.yul\":1842:1847   */\n      0x00\n        /* \"#utility.yul\":1867:1933   */\n      tag_80\n        /* \"#utility.yul\":1883:1932   */\n      tag_81\n        /* \"#utility.yul\":1925:1931   */\n      dup5\n        /* \"#utility.yul\":1883:1932   */\n      tag_44\n      jump\t// in\n    tag_81:\n        /* \"#utility.yul\":1867:1933   */\n      tag_43\n      jump\t// in\n    tag_80:\n        /* \"#utility.yul\":1858:1933   */\n      swap1\n      pop\n        /* \"#utility.yul\":1956:1962   */\n      dup3\n        /* \"#utility.yul\":1949:1954   */\n      dup2\n        /* \"#utility.yul\":1942:1963   */\n      mstore\n        /* \"#utility.yul\":1994:1998   */\n      0x20\n        /* \"#utility.yul\":1987:1992   */\n      dup2\n        /* \"#utility.yul\":1983:1999   */\n      add\n        /* \"#utility.yul\":2032:2035   */\n      dup5\n        /* \"#utility.yul\":2023:2029   */\n      dup5\n        /* \"#utility.yul\":2018:2021   */\n      dup5\n        /* \"#utility.yul\":2014:2030   */\n      add\n        /* \"#utility.yul\":2011:2036   */\n      gt\n        /* \"#utility.yul\":2008:2120   */\n      iszero\n      tag_82\n      jumpi\n        /* \"#utility.yul\":2039:2118   */\n      tag_83\n      tag_39\n      jump\t// in\n    tag_83:\n        /* \"#utility.yul\":2008:2120   */\n    tag_82:\n        /* \"#utility.yul\":2129:2183   */\n      tag_84\n        /* \"#utility.yul\":2176:2182   */\n      dup5\n        /* \"#utility.yul\":2171:2174   */\n      dup3\n        /* \"#utility.yul\":2166:2169   */\n      dup6\n        /* \"#utility.yul\":2129:2183   */\n      tag_45\n      jump\t// in\n    tag_84:\n        /* \"#utility.yul\":1848:2189   */\n      pop\n        /* \"#utility.yul\":1764:2189   */\n      swap4\n      swap3\n      pop\n      pop\n      pop\n      jump\t// out\n        /* \"#utility.yul\":2209:2549   */\n    tag_47:\n        /* \"#utility.yul\":2265:2270   */\n      0x00\n        /* \"#utility.yul\":2314:2317   */\n      dup3\n        /* \"#utility.yul\":2307:2311   */\n      0x1f\n        /* \"#utility.yul\":2299:2305   */\n      dup4\n        /* \"#utility.yul\":2295:2312   */\n      add\n        /* \"#utility.yul\":2291:2318   */\n      slt\n        /* \"#utility.yul\":2281:2403   */\n      tag_86\n      jumpi\n        /* \"#utility.yul\":2322:2401   */\n      tag_87\n      tag_38\n      jump\t// in\n    tag_87:\n        /* \"#utility.yul\":2281:2403   */\n    tag_86:\n        /* \"#utility.yul\":2439:2445   */\n      dup2\n        /* \"#utility.yul\":2426:2446   */\n      calldataload\n        /* \"#utility.yul\":2464:2543   */\n      tag_88\n        /* \"#utility.yul\":2539:2542   */\n      dup5\n        /* \"#utility.yul\":2531:2537   */\n      dup3\n        /* \"#utility.yul\":2524:2528   */\n      0x20\n        /* \"#utility.yul\":2516:2522   */\n      dup7\n        /* \"#utility.yul\":2512:2529   */\n      add\n        /* \"#utility.yul\":2464:2543   */\n      tag_46\n      jump\t// in\n    tag_88:\n        /* \"#utility.yul\":2455:2543   */\n      swap2\n      pop\n        /* \"#utility.yul\":2271:2549   */\n      pop\n        /* \"#utility.yul\":2209:2549   */\n      swap3\n      swap2\n      pop\n      pop\n      jump\t// out\n        /* \"#utility.yul\":2555:3064   */\n    tag_8:\n        /* \"#utility.yul\":2624:2630   */\n      0x00\n        /* \"#utility.yul\":2673:2675   */\n      0x20\n        /* \"#utility.yul\":2661:2670   */\n      dup3\n        /* \"#utility.yul\":2652:2659   */\n      dup5\n        /* \"#utility.yul\":2648:2671   */\n      sub\n        /* \"#utility.yul\":2644:2676   */\n      slt\n        /* \"#utility.yul\":2641:2760   */\n      iszero\n      tag_90\n      jumpi\n        /* \"#utility.yul\":2679:2758   */\n      tag_91\n      tag_36\n      jump\t// in\n    tag_91:\n        /* \"#utility.yul\":2641:2760   */\n    tag_90:\n        /* \"#utility.yul\":2827:2828   */\n      0x00\n        /* \"#utility.yul\":2816:2825   */\n      dup3\n        /* \"#utility.yul\":2812:2829   */\n      add\n        /* \"#utility.yul\":2799:2830   */\n      calldataload\n        /* \"#utility.yul\":2857:2875   */\n      0xffffffffffffffff\n        /* \"#utility.yul\":2849:2855   */\n      dup2\n        /* \"#utility.yul\":2846:2876   */\n      gt\n        /* \"#utility.yul\":2843:2960   */\n      iszero\n      tag_92\n      jumpi\n        /* \"#utility.yul\":2879:2958   */\n      tag_93\n      tag_37\n      jump\t// in\n    tag_93:\n        /* \"#utility.yul\":2843:2960   */\n    tag_92:\n        /* \"#utility.yul\":2984:3047   */\n      tag_94\n        /* \"#utility.yul\":3039:3046   */\n      dup5\n        /* \"#utility.yul\":3030:3036   */\n      dup3\n        /* \"#utility.yul\":3019:3028   */\n      dup6\n        /* \"#utility.yul\":3015:3037   */\n      add\n        /* \"#utility.yul\":2984:3047   */\n      tag_47\n      jump\t// in\n    tag_94:\n        /* \"#utility.yul\":2974:3047   */\n      swap2\n      pop\n        /* \"#utility.yul\":2770:3057   */\n      pop\n        /* \"#utility.yul\":2555:3064   */\n      swap3\n      swap2\n      pop\n      pop\n      jump\t// out\n        /* \"#utility.yul\":3070:3147   */\n    tag_48:\n        /* \"#utility.yul\":3107:3114   */\n      0x00\n        /* \"#utility.yul\":3136:3141   */\n      dup2\n        /* \"#utility.yul\":3125:3141   */\n      swap1\n      pop\n        /* \"#utility.yul\":3070:3147   */\n      swap2\n      swap1\n      pop\n      jump\t// out\n        /* \"#utility.yul\":3153:3271   */\n    tag_49:\n        /* \"#utility.yul\":3240:3264   */\n      tag_97\n        /* \"#utility.yul\":3258:3263   */\n      dup2\n        /* \"#utility.yul\":3240:3264   */\n      tag_48\n      jump\t// in\n    tag_97:\n        /* \"#utility.yul\":3235:3238   */\n      dup3\n        /* \"#utility.yul\":3228:3265   */\n      mstore\n        /* \"#utility.yul\":3153:3271   */\n      pop\n      pop\n      jump\t// out\n        /* \"#utility.yul\":3277:3719   */\n    tag_11:\n        /* \"#utility.yul\":3426:3430   */\n      0x00\n        /* \"#utility.yul\":3464:3466   */\n      0x60\n        /* \"#utility.yul\":3453:3462   */\n      dup3\n        /* \"#utility.yul\":3449:3467   */\n      add\n        /* \"#utility.yul\":3441:3467   */\n      swap1\n      pop\n        /* \"#utility.yul\":3477:3548   */\n      tag_99\n        /* \"#utility.yul\":3545:3546   */\n      0x00\n        /* \"#utility.yul\":3534:3543   */\n      dup4\n        /* \"#utility.yul\":3530:3547   */\n      add\n        /* \"#utility.yul\":3521:3527   */\n      dup7\n        /* \"#utility.yul\":3477:3548   */\n      tag_49\n      jump\t// in\n    tag_99:\n        /* \"#utility.yul\":3558:3630   */\n      tag_100\n        /* \"#utility.yul\":3626:3628   */\n      0x20\n        /* \"#utility.yul\":3615:3624   */\n      dup4\n        /* \"#utility.yul\":3611:3629   */\n      add\n        /* \"#utility.yul\":3602:3608   */\n      dup6\n        /* \"#utility.yul\":3558:3630   */\n      tag_49\n      jump\t// in\n    tag_100:\n        /* \"#utility.yul\":3640:3712   */\n      tag_101\n        /* \"#utility.yul\":3708:3710   */\n      0x40\n        /* \"#utility.yul\":3697:3706   */\n      dup4\n        /* \"#utility.yul\":3693:3711   */\n      add\n        /* \"#utility.yul\":3684:3690   */\n      dup5\n        /* \"#utility.yul\":3640:3712   */\n      tag_49\n      jump\t// in\n    tag_101:\n        /* \"#utility.yul\":3277:3719   */\n      swap5\n      swap4\n      pop\n      pop\n      pop\n      pop\n      jump\t// out\n        /* \"#utility.yul\":3725:3847   */\n    tag_50:\n        /* \"#utility.yul\":3798:3822   */\n      tag_103\n        /* \"#utility.yul\":3816:3821   */\n      dup2\n        /* \"#utility.yul\":3798:3822   */\n      tag_48\n      jump\t// in\n    tag_103:\n        /* \"#utility.yul\":3791:3796   */\n      dup2\n        /* \"#utility.yul\":3788:3823   */\n      eq\n        /* \"#utility.yul\":3778:3841   */\n      tag_104\n      jumpi\n        /* \"#utility.yul\":3837:3838   */\n      0x00\n        /* \"#utility.yul\":3834:3835   */\n      dup1\n        /* \"#utility.yul\":3827:3839   */\n      revert\n        /* \"#utility.yul\":3778:3841   */\n    tag_104:\n        /* \"#utility.yul\":3725:3847   */\n      pop\n      jump\t// out\n        /* \"#utility.yul\":3853:3992   */\n    tag_51:\n        /* \"#utility.yul\":3899:3904   */\n      0x00\n        /* \"#utility.yul\":3937:3943   */\n      dup2\n        /* \"#utility.yul\":3924:3944   */\n      calldataload\n        /* \"#utility.yul\":3915:3944   */\n      swap1\n      pop\n        /* \"#utility.yul\":3953:3986   */\n      tag_106\n        /* \"#utility.yul\":3980:3985   */\n      dup2\n        /* \"#utility.yul\":3953:3986   */\n      tag_50\n      jump\t// in\n    tag_106:\n        /* \"#utility.yul\":3853:3992   */\n      swap3\n      swap2\n      pop\n      pop\n      jump\t// out\n        /* \"#utility.yul\":3998:4943   */\n    tag_14:\n        /* \"#utility.yul\":4094:4100   */\n      0x00\n        /* \"#utility.yul\":4102:4108   */\n      dup1\n        /* \"#utility.yul\":4110:4116   */\n      0x00\n        /* \"#utility.yul\":4118:4124   */\n      dup1\n        /* \"#utility.yul\":4167:4170   */\n      0x80\n        /* \"#utility.yul\":4155:4164   */\n      dup6\n        /* \"#utility.yul\":4146:4153   */\n      dup8\n        /* \"#utility.yul\":4142:4165   */\n      sub\n        /* \"#utility.yul\":4138:4171   */\n      slt\n        /* \"#utility.yul\":4135:4255   */\n      iszero\n      tag_108\n      jumpi\n        /* \"#utility.yul\":4174:4253   */\n      tag_109\n      tag_36\n      jump\t// in\n    tag_109:\n        /* \"#utility.yul\":4135:4255   */\n    tag_108:\n        /* \"#utility.yul\":4322:4323   */\n      0x00\n        /* \"#utility.yul\":4311:4320   */\n      dup6\n        /* \"#utility.yul\":4307:4324   */\n      add\n        /* \"#utility.yul\":4294:4325   */\n      calldataload\n        /* \"#utility.yul\":4352:4370   */\n      0xffffffffffffffff\n        /* \"#utility.yul\":4344:4350   */\n      dup2\n        /* \"#utility.yul\":4341:4371   */\n      gt\n        /* \"#utility.yul\":4338:4455   */\n      iszero\n      tag_110\n      jumpi\n        /* \"#utility.yul\":4374:4453   */\n      tag_111\n      tag_37\n      jump\t// in\n    tag_111:\n        /* \"#utility.yul\":4338:4455   */\n    tag_110:\n        /* \"#utility.yul\":4479:4542   */\n      tag_112\n        /* \"#utility.yul\":4534:4541   */\n      dup8\n        /* \"#utility.yul\":4525:4531   */\n      dup3\n        /* \"#utility.yul\":4514:4523   */\n      dup9\n        /* \"#utility.yul\":4510:4532   */\n      add\n        /* \"#utility.yul\":4479:4542   */\n      tag_47\n      jump\t// in\n    tag_112:\n        /* \"#utility.yul\":4469:4542   */\n      swap5\n      pop\n        /* \"#utility.yul\":4265:4552   */\n      pop\n        /* \"#utility.yul\":4591:4593   */\n      0x20\n        /* \"#utility.yul\":4617:4670   */\n      tag_113\n        /* \"#utility.yul\":4662:4669   */\n      dup8\n        /* \"#utility.yul\":4653:4659   */\n      dup3\n        /* \"#utility.yul\":4642:4651   */\n      dup9\n        /* \"#utility.yul\":4638:4660   */\n      add\n        /* \"#utility.yul\":4617:4670   */\n      tag_51\n      jump\t// in\n    tag_113:\n        /* \"#utility.yul\":4607:4670   */\n      swap4\n      pop\n        /* \"#utility.yul\":4562:4680   */\n      pop\n        /* \"#utility.yul\":4719:4721   */\n      0x40\n        /* \"#utility.yul\":4745:4798   */\n      tag_114\n        /* \"#utility.yul\":4790:4797   */\n      dup8\n        /* \"#utility.yul\":4781:4787   */\n      dup3\n        /* \"#utility.yul\":4770:4779   */\n      dup9\n        /* \"#utility.yul\":4766:4788   */\n      add\n        /* \"#utility.yul\":4745:4798   */\n      tag_51\n      jump\t// in\n    tag_114:\n        /* \"#utility.yul\":4735:4798   */\n      swap3\n      pop\n        /* \"#utility.yul\":4690:4808   */\n      pop\n        /* \"#utility.yul\":4847:4849   */\n      0x60\n        /* \"#utility.yul\":4873:4926   */\n      tag_115\n        /* \"#utility.yul\":4918:4925   */\n      dup8\n        /* \"#utility.yul\":4909:4915   */\n      dup3\n        /* \"#utility.yul\":4898:4907   */\n      dup9\n        /* \"#utility.yul\":4894:4916   */\n      add\n        /* \"#utility.yul\":4873:4926   */\n      tag_51\n      jump\t// in\n    tag_115:\n        /* \"#utility.yul\":4863:4926   */\n      swap2\n      pop\n        /* \"#utility.yul\":4818:4936   */\n      pop\n        /* \"#utility.yul\":3998:4943   */\n      swap3\n      swap6\n      swap2\n      swap5\n      pop\n      swap3\n      pop\n      jump\t// out\n        /* \"#utility.yul\":4949:5603   */\n    tag_18:\n        /* \"#utility.yul\":5027:5033   */\n      0x00\n        /* \"#utility.yul\":5035:5041   */\n      dup1\n        /* \"#utility.yul\":5084:5086   */\n      0x40\n        /* \"#utility.yul\":5072:5081   */\n      dup4\n        /* \"#utility.yul\":5063:5070   */\n      dup6\n        /* \"#utility.yul\":5059:5082   */\n      sub\n        /* \"#utility.yul\":5055:5087   */\n      slt\n        /* \"#utility.yul\":5052:5171   */\n      iszero\n      tag_117\n      jumpi\n        /* \"#utility.yul\":5090:5169   */\n      tag_118\n      tag_36\n      jump\t// in\n    tag_118:\n        /* \"#utility.yul\":5052:5171   */\n    tag_117:\n        /* \"#utility.yul\":5238:5239   */\n      0x00\n        /* \"#utility.yul\":5227:5236   */\n      dup4\n        /* \"#utility.yul\":5223:5240   */\n      add\n        /* \"#utility.yul\":5210:5241   */\n      calldataload\n        /* \"#utility.yul\":5268:5286   */\n      0xffffffffffffffff\n        /* \"#utility.yul\":5260:5266   */\n      dup2\n        /* \"#utility.yul\":5257:5287   */\n      gt\n        /* \"#utility.yul\":5254:5371   */\n      iszero\n      tag_119\n      jumpi\n        /* \"#utility.yul\":5290:5369   */\n      tag_120\n      tag_37\n      jump\t// in\n    tag_120:\n        /* \"#utility.yul\":5254:5371   */\n    tag_119:\n        /* \"#utility.yul\":5395:5458   */\n      tag_121\n        /* \"#utility.yul\":5450:5457   */\n      dup6\n        /* \"#utility.yul\":5441:5447   */\n      dup3\n        /* \"#utility.yul\":5430:5439   */\n      dup7\n        /* \"#utility.yul\":5426:5448   */\n      add\n        /* \"#utility.yul\":5395:5458   */\n      tag_47\n      jump\t// in\n    tag_121:\n        /* \"#utility.yul\":5385:5458   */\n      swap3\n      pop\n        /* \"#utility.yul\":5181:5468   */\n      pop\n        /* \"#utility.yul\":5507:5509   */\n      0x20\n        /* \"#utility.yul\":5533:5586   */\n      tag_122\n        /* \"#utility.yul\":5578:5585   */\n      dup6\n        /* \"#utility.yul\":5569:5575   */\n      dup3\n        /* \"#utility.yul\":5558:5567   */\n      dup7\n        /* \"#utility.yul\":5554:5576   */\n      add\n        /* \"#utility.yul\":5533:5586   */\n      tag_51\n      jump\t// in\n    tag_122:\n        /* \"#utility.yul\":5523:5586   */\n      swap2\n      pop\n        /* \"#utility.yul\":5478:5596   */\n      pop\n        /* \"#utility.yul\":4949:5603   */\n      swap3\n      pop\n      swap3\n      swap1\n      pop\n      jump\t// out\n        /* \"#utility.yul\":5609:5831   */\n    tag_21:\n        /* \"#utility.yul\":5702:5706   */\n      0x00\n        /* \"#utility.yul\":5740:5742   */\n      0x20\n        /* \"#utility.yul\":5729:5738   */\n      dup3\n        /* \"#utility.yul\":5725:5743   */\n      add\n        /* \"#utility.yul\":5717:5743   */\n      swap1\n      pop\n        /* \"#utility.yul\":5753:5824   */\n      tag_124\n        /* \"#utility.yul\":5821:5822   */\n      0x00\n        /* \"#utility.yul\":5810:5819   */\n      dup4\n        /* \"#utility.yul\":5806:5823   */\n      add\n        /* \"#utility.yul\":5797:5803   */\n      dup5\n        /* \"#utility.yul\":5753:5824   */\n      tag_49\n      jump\t// in\n    tag_124:\n        /* \"#utility.yul\":5609:5831   */\n      swap3\n      swap2\n      pop\n      pop\n      jump\t// out\n        /* \"#utility.yul\":5837:5936   */\n    tag_52:\n        /* \"#utility.yul\":5889:5895   */\n      0x00\n        /* \"#utility.yul\":5923:5928   */\n      dup2\n        /* \"#utility.yul\":5917:5929   */\n      mload\n        /* \"#utility.yul\":5907:5929   */\n      swap1\n      pop\n        /* \"#utility.yul\":5837:5936   */\n      swap2\n      swap1\n      pop\n      jump\t// out\n        /* \"#utility.yul\":5942:6090   */\n    tag_53:\n        /* \"#utility.yul\":6044:6055   */\n      0x00\n        /* \"#utility.yul\":6081:6084   */\n      dup2\n        /* \"#utility.yul\":6066:6084   */\n      swap1\n      pop\n        /* \"#utility.yul\":5942:6090   */\n      swap3\n      swap2\n      pop\n      pop\n      jump\t// out\n        /* \"#utility.yul\":6096:6235   */\n    tag_54:\n        /* \"#utility.yul\":6185:6191   */\n      dup3\n        /* \"#utility.yul\":6180:6183   */\n      dup2\n        /* \"#utility.yul\":6175:6178   */\n      dup4\n        /* \"#utility.yul\":6169:6192   */\n      mcopy\n        /* \"#utility.yul\":6226:6227   */\n      0x00\n        /* \"#utility.yul\":6217:6223   */\n      dup4\n        /* \"#utility.yul\":6212:6215   */\n      dup4\n        /* \"#utility.yul\":6208:6224   */\n      add\n        /* \"#utility.yul\":6201:6228   */\n      mstore\n        /* \"#utility.yul\":6096:6235   */\n      pop\n      pop\n      pop\n      jump\t// out\n        /* \"#utility.yul\":6241:6631   */\n    tag_55:\n        /* \"#utility.yul\":6347:6350   */\n      0x00\n        /* \"#utility.yul\":6375:6414   */\n      tag_129\n        /* \"#utility.yul\":6408:6413   */\n      dup3\n        /* \"#utility.yul\":6375:6414   */\n      tag_52\n      jump\t// in\n    tag_129:\n        /* \"#utility.yul\":6430:6519   */\n      tag_130\n        /* \"#utility.yul\":6512:6518   */\n      dup2\n        /* \"#utility.yul\":6507:6510   */\n      dup6\n        /* \"#utility.yul\":6430:6519   */\n      tag_53\n      jump\t// in\n    tag_130:\n        /* \"#utility.yul\":6423:6519   */\n      swap4\n      pop\n        /* \"#utility.yul\":6528:6593   */\n      tag_131\n        /* \"#utility.yul\":6586:6592   */\n      dup2\n        /* \"#utility.yul\":6581:6584   */\n      dup6\n        /* \"#utility.yul\":6574:6578   */\n      0x20\n        /* \"#utility.yul\":6567:6572   */\n      dup7\n        /* \"#utility.yul\":6563:6579   */\n      add\n        /* \"#utility.yul\":6528:6593   */\n      tag_54\n      jump\t// in\n    tag_131:\n        /* \"#utility.yul\":6618:6624   */\n      dup1\n        /* \"#utility.yul\":6613:6616   */\n      dup5\n        /* \"#utility.yul\":6609:6625   */\n      add\n        /* \"#utility.yul\":6602:6625   */\n      swap2\n      pop\n        /* \"#utility.yul\":6351:6631   */\n      pop\n        /* \"#utility.yul\":6241:6631   */\n      swap3\n      swap2\n      pop\n      pop\n      jump\t// out\n        /* \"#utility.yul\":6637:6912   */\n    tag_24:\n        /* \"#utility.yul\":6769:6772   */\n      0x00\n        /* \"#utility.yul\":6791:6886   */\n      tag_133\n        /* \"#utility.yul\":6882:6885   */\n      dup3\n        /* \"#utility.yul\":6873:6879   */\n      dup5\n        /* \"#utility.yul\":6791:6886   */\n      tag_55\n      jump\t// in\n    tag_133:\n        /* \"#utility.yul\":6784:6886   */\n      swap2\n      pop\n        /* \"#utility.yul\":6903:6906   */\n      dup2\n        /* \"#utility.yul\":6896:6906   */\n      swap1\n      pop\n        /* \"#utility.yul\":6637:6912   */\n      swap3\n      swap2\n      pop\n      pop\n      jump\t// out\n        /* \"#utility.yul\":6918:7087   */\n    tag_56:\n        /* \"#utility.yul\":7002:7013   */\n      0x00\n        /* \"#utility.yul\":7036:7042   */\n      dup3\n        /* \"#utility.yul\":7031:7034   */\n      dup3\n        /* \"#utility.yul\":7024:7043   */\n      mstore\n        /* \"#utility.yul\":7076:7080   */\n      0x20\n        /* \"#utility.yul\":7071:7074   */\n      dup3\n        /* \"#utility.yul\":7067:7081   */\n      add\n        /* \"#utility.yul\":7052:7081   */\n      swap1\n      pop\n        /* \"#utility.yul\":6918:7087   */\n      swap3\n      swap2\n      pop\n      pop\n      jump\t// out\n        /* \"#utility.yul\":7093:7262   */\n    tag_57:\n        /* \"#utility.yul\":7233:7254   */\n      0x496e76616c6964207365617420636c6173732e00000000000000000000000000\n        /* \"#utility.yul\":7229:7230   */\n      0x00\n        /* \"#utility.yul\":7221:7227   */\n      dup3\n        /* \"#utility.yul\":7217:7231   */\n      add\n        /* \"#utility.yul\":7210:7255   */\n      mstore\n        /* \"#utility.yul\":7093:7262   */\n      pop\n      jump\t// out\n        /* \"#utility.yul\":7268:7634   */\n    tag_58:\n        /* \"#utility.yul\":7410:7413   */\n      0x00\n        /* \"#utility.yul\":7431:7498   */\n      tag_137\n        /* \"#utility.yul\":7495:7497   */\n      0x13\n        /* \"#utility.yul\":7490:7493   */\n      dup4\n        /* \"#utility.yul\":7431:7498   */\n      tag_56\n      jump\t// in\n    tag_137:\n        /* \"#utility.yul\":7424:7498   */\n      swap2\n      pop\n        /* \"#utility.yul\":7507:7600   */\n      tag_138\n        /* \"#utility.yul\":7596:7599   */\n      dup3\n        /* \"#utility.yul\":7507:7600   */\n      tag_57\n      jump\t// in\n    tag_138:\n        /* \"#utility.yul\":7625:7627   */\n      0x20\n        /* \"#utility.yul\":7620:7623   */\n      dup3\n        /* \"#utility.yul\":7616:7628   */\n      add\n        /* \"#utility.yul\":7609:7628   */\n      swap1\n      pop\n        /* \"#utility.yul\":7268:7634   */\n      swap2\n      swap1\n      pop\n      jump\t// out\n        /* \"#utility.yul\":7640:8059   */\n    tag_34:\n        /* \"#utility.yul\":7806:7810   */\n      0x00\n        /* \"#utility.yul\":7844:7846   */\n      0x20\n        /* \"#utility.yul\":7833:7842   */\n      dup3\n        /* \"#utility.yul\":7829:7847   */\n      add\n        /* \"#utility.yul\":7821:7847   */\n      swap1\n      pop\n        /* \"#utility.yul\":7893:7902   */\n      dup2\n        /* \"#utility.yul\":7887:7891   */\n      dup2\n        /* \"#utility.yul\":7883:7903   */\n      sub\n        /* \"#utility.yul\":7879:7880   */\n      0x00\n        /* \"#utility.yul\":7868:7877   */\n      dup4\n        /* \"#utility.yul\":7864:7881   */\n      add\n        /* \"#utility.yul\":7857:7904   */\n      mstore\n        /* \"#utility.yul\":7921:8052   */\n      tag_140\n        /* \"#utility.yul\":8047:8051   */\n      dup2\n        /* \"#utility.yul\":7921:8052   */\n      tag_58\n      jump\t// in\n    tag_140:\n        /* \"#utility.yul\":7913:8052   */\n      swap1\n      pop\n        /* \"#utility.yul\":7640:8059   */\n      swap2\n      swap1\n      pop\n      jump\t// out\n\n    auxdata: 0xa2646970667358221220ea26a9b87695210b9a57f2a7397cb92be0631cb314a20b7de8ab6e7ef97adff264736f6c63430008190033\n}\n",
				"bytecode": {
					"linkReferences": {},
					"object": "6080604052348015600e575f80fd5b506106368061001c5f395ff3fe608060405234801561000f575f80fd5b506004361061003f575f3560e01c8063271a6dea1461004357806335a8518414610075578063fc21574814610091575b5f80fd5b61005d6004803603810190610058919061036f565b6100c1565b60405161006c939291906103ce565b60405180910390f35b61008f600480360381019061008a919061042d565b6100fe565b005b6100ab60048036038101906100a691906104ad565b61015b565b6040516100b89190610507565b60405180910390f35b5f818051602081018201805184825260208301602085012081835280955050505050505f91509050805f0154908060010154908060020154905083565b6040518060600160405280848152602001838152602001828152505f856040516101289190610572565b90815260200160405180910390205f820151815f0155602082015181600101556040820151816002015590505050505050565b5f805f8460405161016c9190610572565b90815260200160405180910390206040518060600160405290815f82015481526020016001820154815260200160028201548152505090505f83036101b757805f015191505061021c565b600183036101cc57806020015191505061021c565b600283036101e157806040015191505061021c565b6040517f08c379a0000000000000000000000000000000000000000000000000000000008152600401610213906105e2565b60405180910390fd5b92915050565b5f604051905090565b5f80fd5b5f80fd5b5f80fd5b5f80fd5b5f601f19601f8301169050919050565b7f4e487b71000000000000000000000000000000000000000000000000000000005f52604160045260245ffd5b6102818261023b565b810181811067ffffffffffffffff821117156102a05761029f61024b565b5b80604052505050565b5f6102b2610222565b90506102be8282610278565b919050565b5f67ffffffffffffffff8211156102dd576102dc61024b565b5b6102e68261023b565b9050602081019050919050565b828183375f83830152505050565b5f61031361030e846102c3565b6102a9565b90508281526020810184848401111561032f5761032e610237565b5b61033a8482856102f3565b509392505050565b5f82601f83011261035657610355610233565b5b8135610366848260208601610301565b91505092915050565b5f602082840312156103845761038361022b565b5b5f82013567ffffffffffffffff8111156103a1576103a061022f565b5b6103ad84828501610342565b91505092915050565b5f819050919050565b6103c8816103b6565b82525050565b5f6060820190506103e15f8301866103bf565b6103ee60208301856103bf565b6103fb60408301846103bf565b949350505050565b61040c816103b6565b8114610416575f80fd5b50565b5f8135905061042781610403565b92915050565b5f805f80608085870312156104455761044461022b565b5b5f85013567ffffffffffffffff8111156104625761046161022f565b5b61046e87828801610342565b945050602061047f87828801610419565b935050604061049087828801610419565b92505060606104a187828801610419565b91505092959194509250565b5f80604083850312156104c3576104c261022b565b5b5f83013567ffffffffffffffff8111156104e0576104df61022f565b5b6104ec85828601610342565b92505060206104fd85828601610419565b9150509250929050565b5f60208201905061051a5f8301846103bf565b92915050565b5f81519050919050565b5f81905092915050565b8281835e5f83830152505050565b5f61054c82610520565b610556818561052a565b9350610566818560208601610534565b80840191505092915050565b5f61057d8284610542565b915081905092915050565b5f82825260208201905092915050565b7f496e76616c6964207365617420636c6173732e000000000000000000000000005f82015250565b5f6105cc601383610588565b91506105d782610598565b602082019050919050565b5f6020820190508181035f8301526105f9816105c0565b905091905056fea2646970667358221220ea26a9b87695210b9a57f2a7397cb92be0631cb314a20b7de8ab6e7ef97adff264736f6c63430008190033",
					"opcodes": "PUSH1 0x80 PUSH1 0x40 MSTORE CALLVALUE DUP1 ISZERO PUSH1 0xE JUMPI PUSH0 DUP1 REVERT JUMPDEST POP PUSH2 0x636 DUP1 PUSH2 0x1C PUSH0 CODECOPY PUSH0 RETURN INVALID PUSH1 0x80 PUSH1 0x40 MSTORE CALLVALUE DUP1 ISZERO PUSH2 0xF JUMPI PUSH0 DUP1 REVERT JUMPDEST POP PUSH1 0x4 CALLDATASIZE LT PUSH2 0x3F JUMPI PUSH0 CALLDATALOAD PUSH1 0xE0 SHR DUP1 PUSH4 0x271A6DEA EQ PUSH2 0x43 JUMPI DUP1 PUSH4 0x35A85184 EQ PUSH2 0x75 JUMPI DUP1 PUSH4 0xFC215748 EQ PUSH2 0x91 JUMPI JUMPDEST PUSH0 DUP1 REVERT JUMPDEST PUSH2 0x5D PUSH1 0x4 DUP1 CALLDATASIZE SUB DUP2 ADD SWAP1 PUSH2 0x58 SWAP2 SWAP1 PUSH2 0x36F JUMP JUMPDEST PUSH2 0xC1 JUMP JUMPDEST PUSH1 0x40 MLOAD PUSH2 0x6C SWAP4 SWAP3 SWAP2 SWAP1 PUSH2 0x3CE JUMP JUMPDEST PUSH1 0x40 MLOAD DUP1 SWAP2 SUB SWAP1 RETURN JUMPDEST PUSH2 0x8F PUSH1 0x4 DUP1 CALLDATASIZE SUB DUP2 ADD SWAP1 PUSH2 0x8A SWAP2 SWAP1 PUSH2 0x42D JUMP JUMPDEST PUSH2 0xFE JUMP JUMPDEST STOP JUMPDEST PUSH2 0xAB PUSH1 0x4 DUP1 CALLDATASIZE SUB DUP2 ADD SWAP1 PUSH2 0xA6 SWAP2 SWAP1 PUSH2 0x4AD JUMP JUMPDEST PUSH2 0x15B JUMP JUMPDEST PUSH1 0x40 MLOAD PUSH2 0xB8 SWAP2 SWAP1 PUSH2 0x507 JUMP JUMPDEST PUSH1 0x40 MLOAD DUP1 SWAP2 SUB SWAP1 RETURN JUMPDEST PUSH0 DUP2 DUP1 MLOAD PUSH1 0x20 DUP2 ADD DUP3 ADD DUP1 MLOAD DUP5 DUP3 MSTORE PUSH1 0x20 DUP4 ADD PUSH1 0x20 DUP6 ADD KECCAK256 DUP2 DUP4 MSTORE DUP1 SWAP6 POP POP POP POP POP POP PUSH0 SWAP2 POP SWAP1 POP DUP1 PUSH0 ADD SLOAD SWAP1 DUP1 PUSH1 0x1 ADD SLOAD SWAP1 DUP1 PUSH1 0x2 ADD SLOAD SWAP1 POP DUP4 JUMP JUMPDEST PUSH1 0x40 MLOAD DUP1 PUSH1 0x60 ADD PUSH1 0x40 MSTORE DUP1 DUP5 DUP2 MSTORE PUSH1 0x20 ADD DUP4 DUP2 MSTORE PUSH1 0x20 ADD DUP3 DUP2 MSTORE POP PUSH0 DUP6 PUSH1 0x40 MLOAD PUSH2 0x128 SWAP2 SWAP1 PUSH2 0x572 JUMP JUMPDEST SWAP1 DUP2 MSTORE PUSH1 0x20 ADD PUSH1 0x40 MLOAD DUP1 SWAP2 SUB SWAP1 KECCAK256 PUSH0 DUP3 ADD MLOAD DUP2 PUSH0 ADD SSTORE PUSH1 0x20 DUP3 ADD MLOAD DUP2 PUSH1 0x1 ADD SSTORE PUSH1 0x40 DUP3 ADD MLOAD DUP2 PUSH1 0x2 ADD SSTORE SWAP1 POP POP POP POP POP POP JUMP JUMPDEST PUSH0 DUP1 PUSH0 DUP5 PUSH1 0x40 MLOAD PUSH2 0x16C SWAP2 SWAP1 PUSH2 0x572 JUMP JUMPDEST SWAP1 DUP2 MSTORE PUSH1 0x20 ADD PUSH1 0x40 MLOAD DUP1 SWAP2 SUB SWAP1 KECCAK256 PUSH1 0x40 MLOAD DUP1 PUSH1 0x60 ADD PUSH1 0x40 MSTORE SWAP1 DUP2 PUSH0 DUP3 ADD SLOAD DUP2 MSTORE PUSH1 0x20 ADD PUSH1 0x1 DUP3 ADD SLOAD DUP2 MSTORE PUSH1 0x20 ADD PUSH1 0x2 DUP3 ADD SLOAD DUP2 MSTORE POP POP SWAP1 POP PUSH0 DUP4 SUB PUSH2 0x1B7 JUMPI DUP1 PUSH0 ADD MLOAD SWAP2 POP POP PUSH2 0x21C JUMP JUMPDEST PUSH1 0x1 DUP4 SUB PUSH2 0x1CC JUMPI DUP1 PUSH1 0x20 ADD MLOAD SWAP2 POP POP PUSH2 0x21C JUMP JUMPDEST PUSH1 0x2 DUP4 SUB PUSH2 0x1E1 JUMPI DUP1 PUSH1 0x40 ADD MLOAD SWAP2 POP POP PUSH2 0x21C JUMP JUMPDEST PUSH1 0x40 MLOAD PUSH32 0x8C379A000000000000000000000000000000000000000000000000000000000 DUP2 MSTORE PUSH1 0x4 ADD PUSH2 0x213 SWAP1 PUSH2 0x5E2 JUMP JUMPDEST PUSH1 0x40 MLOAD DUP1 SWAP2 SUB SWAP1 REVERT JUMPDEST SWAP3 SWAP2 POP POP JUMP JUMPDEST PUSH0 PUSH1 0x40 MLOAD SWAP1 POP SWAP1 JUMP JUMPDEST PUSH0 DUP1 REVERT JUMPDEST PUSH0 DUP1 REVERT JUMPDEST PUSH0 DUP1 REVERT JUMPDEST PUSH0 DUP1 REVERT JUMPDEST PUSH0 PUSH1 0x1F NOT PUSH1 0x1F DUP4 ADD AND SWAP1 POP SWAP2 SWAP1 POP JUMP JUMPDEST PUSH32 0x4E487B7100000000000000000000000000000000000000000000000000000000 PUSH0 MSTORE PUSH1 0x41 PUSH1 0x4 MSTORE PUSH1 0x24 PUSH0 REVERT JUMPDEST PUSH2 0x281 DUP3 PUSH2 0x23B JUMP JUMPDEST DUP2 ADD DUP2 DUP2 LT PUSH8 0xFFFFFFFFFFFFFFFF DUP3 GT OR ISZERO PUSH2 0x2A0 JUMPI PUSH2 0x29F PUSH2 0x24B JUMP JUMPDEST JUMPDEST DUP1 PUSH1 0x40 MSTORE POP POP POP JUMP JUMPDEST PUSH0 PUSH2 0x2B2 PUSH2 0x222 JUMP JUMPDEST SWAP1 POP PUSH2 0x2BE DUP3 DUP3 PUSH2 0x278 JUMP JUMPDEST SWAP2 SWAP1 POP JUMP JUMPDEST PUSH0 PUSH8 0xFFFFFFFFFFFFFFFF DUP3 GT ISZERO PUSH2 0x2DD JUMPI PUSH2 0x2DC PUSH2 0x24B JUMP JUMPDEST JUMPDEST PUSH2 0x2E6 DUP3 PUSH2 0x23B JUMP JUMPDEST SWAP1 POP PUSH1 0x20 DUP2 ADD SWAP1 POP SWAP2 SWAP1 POP JUMP JUMPDEST DUP3 DUP2 DUP4 CALLDATACOPY PUSH0 DUP4 DUP4 ADD MSTORE POP POP POP JUMP JUMPDEST PUSH0 PUSH2 0x313 PUSH2 0x30E DUP5 PUSH2 0x2C3 JUMP JUMPDEST PUSH2 0x2A9 JUMP JUMPDEST SWAP1 POP DUP3 DUP2 MSTORE PUSH1 0x20 DUP2 ADD DUP5 DUP5 DUP5 ADD GT ISZERO PUSH2 0x32F JUMPI PUSH2 0x32E PUSH2 0x237 JUMP JUMPDEST JUMPDEST PUSH2 0x33A DUP5 DUP3 DUP6 PUSH2 0x2F3 JUMP JUMPDEST POP SWAP4 SWAP3 POP POP POP JUMP JUMPDEST PUSH0 DUP3 PUSH1 0x1F DUP4 ADD SLT PUSH2 0x356 JUMPI PUSH2 0x355 PUSH2 0x233 JUMP JUMPDEST JUMPDEST DUP2 CALLDATALOAD PUSH2 0x366 DUP5 DUP3 PUSH1 0x20 DUP7 ADD PUSH2 0x301 JUMP JUMPDEST SWAP2 POP POP SWAP3 SWAP2 POP POP JUMP JUMPDEST PUSH0 PUSH1 0x20 DUP3 DUP5 SUB SLT ISZERO PUSH2 0x384 JUMPI PUSH2 0x383 PUSH2 0x22B JUMP JUMPDEST JUMPDEST PUSH0 DUP3 ADD CALLDATALOAD PUSH8 0xFFFFFFFFFFFFFFFF DUP2 GT ISZERO PUSH2 0x3A1 JUMPI PUSH2 0x3A0 PUSH2 0x22F JUMP JUMPDEST JUMPDEST PUSH2 0x3AD DUP5 DUP3 DUP6 ADD PUSH2 0x342 JUMP JUMPDEST SWAP2 POP POP SWAP3 SWAP2 POP POP JUMP JUMPDEST PUSH0 DUP2 SWAP1 POP SWAP2 SWAP1 POP JUMP JUMPDEST PUSH2 0x3C8 DUP2 PUSH2 0x3B6 JUMP JUMPDEST DUP3 MSTORE POP POP JUMP JUMPDEST PUSH0 PUSH1 0x60 DUP3 ADD SWAP1 POP PUSH2 0x3E1 PUSH0 DUP4 ADD DUP7 PUSH2 0x3BF JUMP JUMPDEST PUSH2 0x3EE PUSH1 0x20 DUP4 ADD DUP6 PUSH2 0x3BF JUMP JUMPDEST PUSH2 0x3FB PUSH1 0x40 DUP4 ADD DUP5 PUSH2 0x3BF JUMP JUMPDEST SWAP5 SWAP4 POP POP POP POP JUMP JUMPDEST PUSH2 0x40C DUP2 PUSH2 0x3B6 JUMP JUMPDEST DUP2 EQ PUSH2 0x416 JUMPI PUSH0 DUP1 REVERT JUMPDEST POP JUMP JUMPDEST PUSH0 DUP2 CALLDATALOAD SWAP1 POP PUSH2 0x427 DUP2 PUSH2 0x403 JUMP JUMPDEST SWAP3 SWAP2 POP POP JUMP JUMPDEST PUSH0 DUP1 PUSH0 DUP1 PUSH1 0x80 DUP6 DUP8 SUB SLT ISZERO PUSH2 0x445 JUMPI PUSH2 0x444 PUSH2 0x22B JUMP JUMPDEST JUMPDEST PUSH0 DUP6 ADD CALLDATALOAD PUSH8 0xFFFFFFFFFFFFFFFF DUP2 GT ISZERO PUSH2 0x462 JUMPI PUSH2 0x461 PUSH2 0x22F JUMP JUMPDEST JUMPDEST PUSH2 0x46E DUP8 DUP3 DUP9 ADD PUSH2 0x342 JUMP JUMPDEST SWAP5 POP POP PUSH1 0x20 PUSH2 0x47F DUP8 DUP3 DUP9 ADD PUSH2 0x419 JUMP JUMPDEST SWAP4 POP POP PUSH1 0x40 PUSH2 0x490 DUP8 DUP3 DUP9 ADD PUSH2 0x419 JUMP JUMPDEST SWAP3 POP POP PUSH1 0x60 PUSH2 0x4A1 DUP8 DUP3 DUP9 ADD PUSH2 0x419 JUMP JUMPDEST SWAP2 POP POP SWAP3 SWAP6 SWAP2 SWAP5 POP SWAP3 POP JUMP JUMPDEST PUSH0 DUP1 PUSH1 0x40 DUP4 DUP6 SUB SLT ISZERO PUSH2 0x4C3 JUMPI PUSH2 0x4C2 PUSH2 0x22B JUMP JUMPDEST JUMPDEST PUSH0 DUP4 ADD CALLDATALOAD PUSH8 0xFFFFFFFFFFFFFFFF DUP2 GT ISZERO PUSH2 0x4E0 JUMPI PUSH2 0x4DF PUSH2 0x22F JUMP JUMPDEST JUMPDEST PUSH2 0x4EC DUP6 DUP3 DUP7 ADD PUSH2 0x342 JUMP JUMPDEST SWAP3 POP POP PUSH1 0x20 PUSH2 0x4FD DUP6 DUP3 DUP7 ADD PUSH2 0x419 JUMP JUMPDEST SWAP2 POP POP SWAP3 POP SWAP3 SWAP1 POP JUMP JUMPDEST PUSH0 PUSH1 0x20 DUP3 ADD SWAP1 POP PUSH2 0x51A PUSH0 DUP4 ADD DUP5 PUSH2 0x3BF JUMP JUMPDEST SWAP3 SWAP2 POP POP JUMP JUMPDEST PUSH0 DUP2 MLOAD SWAP1 POP SWAP2 SWAP1 POP JUMP JUMPDEST PUSH0 DUP2 SWAP1 POP SWAP3 SWAP2 POP POP JUMP JUMPDEST DUP3 DUP2 DUP4 MCOPY PUSH0 DUP4 DUP4 ADD MSTORE POP POP POP JUMP JUMPDEST PUSH0 PUSH2 0x54C DUP3 PUSH2 0x520 JUMP JUMPDEST PUSH2 0x556 DUP2 DUP6 PUSH2 0x52A JUMP JUMPDEST SWAP4 POP PUSH2 0x566 DUP2 DUP6 PUSH1 0x20 DUP7 ADD PUSH2 0x534 JUMP JUMPDEST DUP1 DUP5 ADD SWAP2 POP POP SWAP3 SWAP2 POP POP JUMP JUMPDEST PUSH0 PUSH2 0x57D DUP3 DUP5 PUSH2 0x542 JUMP JUMPDEST SWAP2 POP DUP2 SWAP1 POP SWAP3 SWAP2 POP POP JUMP JUMPDEST PUSH0 DUP3 DUP3 MSTORE PUSH1 0x20 DUP3 ADD SWAP1 POP SWAP3 SWAP2 POP POP JUMP JUMPDEST PUSH32 0x496E76616C6964207365617420636C6173732E00000000000000000000000000 PUSH0 DUP3 ADD MSTORE POP JUMP JUMPDEST PUSH0 PUSH2 0x5CC PUSH1 0x13 DUP4 PUSH2 0x588 JUMP JUMPDEST SWAP2 POP PUSH2 0x5D7 DUP3 PUSH2 0x598 JUMP JUMPDEST PUSH1 0x20 DUP3 ADD SWAP1 POP SWAP2 SWAP1 POP JUMP JUMPDEST PUSH0 PUSH1 0x20 DUP3 ADD SWAP1 POP DUP2 DUP2 SUB PUSH0 DUP4 ADD MSTORE PUSH2 0x5F9 DUP2 PUSH2 0x5C0 JUMP JUMPDEST SWAP1 POP SWAP2 SWAP1 POP JUMP INVALID LOG2 PUSH5 0x6970667358 0x22 SLT KECCAK256 0xEA 0x26 0xA9 0xB8 PUSH23 0x95210B9A57F2A7397CB92BE0631CB314A20B7DE8AB6E7E 0xF9 PUSH27 0xDFF264736F6C634300081900330000000000000000000000000000 "
				},
				"gasEstimates": {
					"creation": {
						"codeDepositCost": "318000",
						"executionCost": "353",
						"totalCost": "318353"
					},
					"external": {
						"flightPrices(string)": "infinite",
						"getFlightPrice(string,uint256)": "infinite",
						"setFlightPrice(string,uint256,uint256,uint256)": "infinite"
					}
				},
				"methodIdentifiers": {
					"flightPrices(string)": "271a6dea",
					"getFlightPrice(string,uint256)": "fc215748",
					"setFlightPrice(string,uint256,uint256,uint256)": "35a85184"
				}
			},
			"storageLayout": {
				"storage": [
					{
						"astId": 13,
						"contract": "contracts/FlightPricing.sol:FlightPricing",
						"label": "flightPrices",
						"offset": 0,
						"slot": "0",
						"type": "t_mapping(t_string_memory_ptr,t_struct(Price)8_storage)"
					}
				],
				"types": {
					"t_mapping(t_string_memory_ptr,t_struct(Price)8_storage)": {
						"encoding": "mapping",
						"key": "t_string_memory_ptr",
						"label": "mapping(string => struct FlightPricing.Price)",
						"numberOfBytes": "32",
						"value": "t_struct(Price)8_storage"
					},
					"t_string_memory_ptr": {
						"encoding": "bytes",
						"label": "string",
						"numberOfBytes": "32"
					},
					"t_struct(Price)8_storage": {
						"encoding": "inplace",
						"label": "struct FlightPricing.Price",
						"members": [
							{
								"astId": 3,
								"contract": "contracts/FlightPricing.sol:FlightPricing",
								"label": "economy",
								"offset": 0,
								"slot": "0",
								"type": "t_uint256"
							},
							{
								"astId": 5,
								"contract": "contracts/FlightPricing.sol:FlightPricing",
								"label": "business",
								"offset": 0,
								"slot": "1",
								"type": "t_uint256"
							},
							{
								"astId": 7,
								"contract": "contracts/FlightPricing.sol:FlightPricing",
								"label": "firstClass",
								"offset": 0,
								"slot": "2",
								"type": "t_uint256"
							}
						],
						"numberOfBytes": "96"
					},
					"t_uint256": {
						"encoding": "inplace",
						"label": "uint256",
						"numberOfBytes": "32"
					}
				}
			},
			"userdoc": {
				"kind": "user",
				"methods": {},
				"version": 1
			}
		}
	}
}