{
	"contracts/AirlineManagement.sol": {
		"AirlineManagement": {
			"abi": [
				{
					"inputs": [],
					"stateMutability": "nonpayable",
					"type": "constructor"
				},
				{
					"inputs": [
						{
							"internalType": "string",
							"name": "flightNumber",
							"type": "string"
						},
						{
							"internalType": "uint256",
							"name": "price",
							"type": "uint256"
						}
					],
					"name": "addFlight",
					"outputs": [],
					"stateMutability": "nonpayable",
					"type": "function"
				},
				{
					"inputs": [],
					"name": "admin",
					"outputs": [
						{
							"internalType": "address",
							"name": "",
							"type": "address"
						}
					],
					"stateMutability": "view",
					"type": "function"
				},
				{
					"inputs": [
						{
							"internalType": "string",
							"name": "",
							"type": "string"
						}
					],
					"name": "flights",
					"outputs": [
						{
							"internalType": "string",
							"name": "flightNumber",
							"type": "string"
						},
						{
							"internalType": "uint256",
							"name": "price",
							"type": "uint256"
						},
						{
							"internalType": "bool",
							"name": "isActive",
							"type": "bool"
						}
					],
					"stateMutability": "view",
					"type": "function"
				},
				{
					"inputs": [
						{
							"internalType": "string",
							"name": "flightNumber",
							"type": "string"
						}
					],
					"name": "getFlightDetails",
					"outputs": [
						{
							"components": [
								{
									"internalType": "string",
									"name": "flightNumber",
									"type": "string"
								},
								{
									"internalType": "uint256",
									"name": "price",
									"type": "uint256"
								},
								{
									"internalType": "bool",
									"name": "isActive",
									"type": "bool"
								}
							],
							"internalType": "struct AirlineManagement.Flight",
							"name": "",
							"type": "tuple"
						}
					],
					"stateMutability": "view",
					"type": "function"
				},
				{
					"inputs": [
						{
							"internalType": "string",
							"name": "flightNumber",
							"type": "string"
						},
						{
							"internalType": "bool",
							"name": "isActive",
							"type": "bool"
						}
					],
					"name": "updateFlightStatus",
					"outputs": [],
					"stateMutability": "nonpayable",
					"type": "function"
				}
			],
			"devdoc": {
				"kind": "dev",
				"methods": {},
				"version": 1
			},
			"evm": {
				"assembly": "    /* \"contracts/AirlineManagement.sol\":58:900  contract AirlineManagement {... */\n  mstore(0x40, 0x80)\n    /* \"contracts/AirlineManagement.sol\":264:313  constructor() {... */\n  callvalue\n  dup1\n  iszero\n  tag_1\n  jumpi\n  0x00\n  dup1\n  revert\ntag_1:\n  pop\n    /* \"contracts/AirlineManagement.sol\":296:306  msg.sender */\n  caller\n    /* \"contracts/AirlineManagement.sol\":288:293  admin */\n  0x00\n  dup1\n    /* \"contracts/AirlineManagement.sol\":288:306  admin = msg.sender */\n  0x0100\n  exp\n  dup2\n  sload\n  dup2\n  0xffffffffffffffffffffffffffffffffffffffff\n  mul\n  not\n  and\n  swap1\n  dup4\n  0xffffffffffffffffffffffffffffffffffffffff\n  and\n  mul\n  or\n  swap1\n  sstore\n  pop\n    /* \"contracts/AirlineManagement.sol\":58:900  contract AirlineManagement {... */\n  dataSize(sub_0)\n  dup1\n  dataOffset(sub_0)\n  0x00\n  codecopy\n  0x00\n  return\nstop\n\nsub_0: assembly {\n        /* \"contracts/AirlineManagement.sol\":58:900  contract AirlineManagement {... */\n      mstore(0x40, 0x80)\n      callvalue\n      dup1\n      iszero\n      tag_1\n      jumpi\n      0x00\n      dup1\n      revert\n    tag_1:\n      pop\n      jumpi(tag_2, lt(calldatasize, 0x04))\n      shr(0xe0, calldataload(0x00))\n      dup1\n      0x2faa4d05\n      eq\n      tag_3\n      jumpi\n      dup1\n      0x3b6de417\n      eq\n      tag_4\n      jumpi\n      dup1\n      0x6f75d5a7\n      eq\n      tag_5\n      jumpi\n      dup1\n      0xf0690d7e\n      eq\n      tag_6\n      jumpi\n      dup1\n      0xf851a440\n      eq\n      tag_7\n      jumpi\n    tag_2:\n      0x00\n      dup1\n      revert\n        /* \"contracts/AirlineManagement.sol\":763:898  function getFlightDetails(string memory flightNumber) public view returns (Flight memory) {... */\n    tag_3:\n      tag_8\n      0x04\n      dup1\n      calldatasize\n      sub\n      dup2\n      add\n      swap1\n      tag_9\n      swap2\n      swap1\n      tag_10\n      jump\t// in\n    tag_9:\n      tag_11\n      jump\t// in\n    tag_8:\n      mload(0x40)\n      tag_12\n      swap2\n      swap1\n      tag_13\n      jump\t// in\n    tag_12:\n      mload(0x40)\n      dup1\n      swap2\n      sub\n      swap1\n      return\n        /* \"contracts/AirlineManagement.sol\":455:605  function addFlight(string memory flightNumber, uint price) public onlyAdmin {... */\n    tag_4:\n      tag_14\n      0x04\n      dup1\n      calldatasize\n      sub\n      dup2\n      add\n      swap1\n      tag_15\n      swap2\n      swap1\n      tag_16\n      jump\t// in\n    tag_15:\n      tag_17\n      jump\t// in\n    tag_14:\n      stop\n        /* \"contracts/AirlineManagement.sol\":611:757  function updateFlightStatus(string memory flightNumber, bool isActive) public onlyAdmin {... */\n    tag_5:\n      tag_18\n      0x04\n      dup1\n      calldatasize\n      sub\n      dup2\n      add\n      swap1\n      tag_19\n      swap2\n      swap1\n      tag_20\n      jump\t// in\n    tag_19:\n      tag_21\n      jump\t// in\n    tag_18:\n      stop\n        /* \"contracts/AirlineManagement.sol\":217:257  mapping(string => Flight) public flights */\n    tag_6:\n      tag_22\n      0x04\n      dup1\n      calldatasize\n      sub\n      dup2\n      add\n      swap1\n      tag_23\n      swap2\n      swap1\n      tag_10\n      jump\t// in\n    tag_23:\n      tag_24\n      jump\t// in\n    tag_22:\n      mload(0x40)\n      tag_25\n      swap4\n      swap3\n      swap2\n      swap1\n      tag_26\n      jump\t// in\n    tag_25:\n      mload(0x40)\n      dup1\n      swap2\n      sub\n      swap1\n      return\n        /* \"contracts/AirlineManagement.sol\":91:111  address public admin */\n    tag_7:\n      tag_27\n      tag_28\n      jump\t// in\n    tag_27:\n      mload(0x40)\n      tag_29\n      swap2\n      swap1\n      tag_30\n      jump\t// in\n    tag_29:\n      mload(0x40)\n      dup1\n      swap2\n      sub\n      swap1\n      return\n        /* \"contracts/AirlineManagement.sol\":763:898  function getFlightDetails(string memory flightNumber) public view returns (Flight memory) {... */\n    tag_11:\n        /* \"contracts/AirlineManagement.sol\":838:851  Flight memory */\n      tag_31\n      tag_32\n      jump\t// in\n    tag_31:\n        /* \"contracts/AirlineManagement.sol\":870:877  flights */\n      0x01\n        /* \"contracts/AirlineManagement.sol\":878:890  flightNumber */\n      dup3\n        /* \"contracts/AirlineManagement.sol\":870:891  flights[flightNumber] */\n      mload(0x40)\n      tag_34\n      swap2\n      swap1\n      tag_35\n      jump\t// in\n    tag_34:\n      swap1\n      dup2\n      mstore\n      0x20\n      add\n      mload(0x40)\n      dup1\n      swap2\n      sub\n      swap1\n      keccak256\n        /* \"contracts/AirlineManagement.sol\":863:891  return flights[flightNumber] */\n      mload(0x40)\n      dup1\n      0x60\n      add\n      0x40\n      mstore\n      swap1\n      dup2\n      0x00\n      dup3\n      add\n      dup1\n      sload\n      tag_36\n      swap1\n      tag_37\n      jump\t// in\n    tag_36:\n      dup1\n      0x1f\n      add\n      0x20\n      dup1\n      swap2\n      div\n      mul\n      0x20\n      add\n      mload(0x40)\n      swap1\n      dup2\n      add\n      0x40\n      mstore\n      dup1\n      swap3\n      swap2\n      swap1\n      dup2\n      dup2\n      mstore\n      0x20\n      add\n      dup3\n      dup1\n      sload\n      tag_38\n      swap1\n      tag_37\n      jump\t// in\n    tag_38:\n      dup1\n      iszero\n      tag_39\n      jumpi\n      dup1\n      0x1f\n      lt\n      tag_40\n      jumpi\n      0x0100\n      dup1\n      dup4\n      sload\n      div\n      mul\n      dup4\n      mstore\n      swap2\n      0x20\n      add\n      swap2\n      jump(tag_39)\n    tag_40:\n      dup3\n      add\n      swap2\n      swap1\n      0x00\n      mstore\n      keccak256(0x00, 0x20)\n      swap1\n    tag_41:\n      dup2\n      sload\n      dup2\n      mstore\n      swap1\n      0x01\n      add\n      swap1\n      0x20\n      add\n      dup1\n      dup4\n      gt\n      tag_41\n      jumpi\n      dup3\n      swap1\n      sub\n      0x1f\n      and\n      dup3\n      add\n      swap2\n    tag_39:\n      pop\n      pop\n      pop\n      pop\n      pop\n      dup2\n      mstore\n      0x20\n      add\n      0x01\n      dup3\n      add\n      sload\n      dup2\n      mstore\n      0x20\n      add\n      0x02\n      dup3\n      add\n      0x00\n      swap1\n      sload\n      swap1\n      0x0100\n      exp\n      swap1\n      div\n      0xff\n      and\n      iszero\n      iszero\n      iszero\n      iszero\n      dup2\n      mstore\n      pop\n      pop\n      swap1\n      pop\n        /* \"contracts/AirlineManagement.sol\":763:898  function getFlightDetails(string memory flightNumber) public view returns (Flight memory) {... */\n      swap2\n      swap1\n      pop\n      jump\t// out\n        /* \"contracts/AirlineManagement.sol\":455:605  function addFlight(string memory flightNumber, uint price) public onlyAdmin {... */\n    tag_17:\n        /* \"contracts/AirlineManagement.sol\":372:377  admin */\n      0x00\n      dup1\n      sload\n      swap1\n      0x0100\n      exp\n      swap1\n      div\n      0xffffffffffffffffffffffffffffffffffffffff\n      and\n        /* \"contracts/AirlineManagement.sol\":358:377  msg.sender == admin */\n      0xffffffffffffffffffffffffffffffffffffffff\n      and\n        /* \"contracts/AirlineManagement.sol\":358:368  msg.sender */\n      caller\n        /* \"contracts/AirlineManagement.sol\":358:377  msg.sender == admin */\n      0xffffffffffffffffffffffffffffffffffffffff\n      and\n      eq\n        /* \"contracts/AirlineManagement.sol\":350:431  require(msg.sender == admin, \"Unauthorized: Only admin can perform this action.\") */\n      tag_43\n      jumpi\n      mload(0x40)\n      0x08c379a000000000000000000000000000000000000000000000000000000000\n      dup2\n      mstore\n      0x04\n      add\n      tag_44\n      swap1\n      tag_45\n      jump\t// in\n    tag_44:\n      mload(0x40)\n      dup1\n      swap2\n      sub\n      swap1\n      revert\n    tag_43:\n        /* \"contracts/AirlineManagement.sol\":565:598  Flight(flightNumber, price, true) */\n      mload(0x40)\n      dup1\n      0x60\n      add\n      0x40\n      mstore\n      dup1\n        /* \"contracts/AirlineManagement.sol\":572:584  flightNumber */\n      dup4\n        /* \"contracts/AirlineManagement.sol\":565:598  Flight(flightNumber, price, true) */\n      dup2\n      mstore\n      0x20\n      add\n        /* \"contracts/AirlineManagement.sol\":586:591  price */\n      dup3\n        /* \"contracts/AirlineManagement.sol\":565:598  Flight(flightNumber, price, true) */\n      dup2\n      mstore\n      0x20\n      add\n        /* \"contracts/AirlineManagement.sol\":593:597  true */\n      0x01\n        /* \"contracts/AirlineManagement.sol\":565:598  Flight(flightNumber, price, true) */\n      iszero\n      iszero\n      dup2\n      mstore\n      pop\n        /* \"contracts/AirlineManagement.sol\":541:548  flights */\n      0x01\n        /* \"contracts/AirlineManagement.sol\":549:561  flightNumber */\n      dup4\n        /* \"contracts/AirlineManagement.sol\":541:562  flights[flightNumber] */\n      mload(0x40)\n      tag_47\n      swap2\n      swap1\n      tag_35\n      jump\t// in\n    tag_47:\n      swap1\n      dup2\n      mstore\n      0x20\n      add\n      mload(0x40)\n      dup1\n      swap2\n      sub\n      swap1\n      keccak256\n        /* \"contracts/AirlineManagement.sol\":541:598  flights[flightNumber] = Flight(flightNumber, price, true) */\n      0x00\n      dup3\n      add\n      mload\n      dup2\n      0x00\n      add\n      swap1\n      dup2\n      tag_48\n      swap2\n      swap1\n      tag_49\n      jump\t// in\n    tag_48:\n      pop\n      0x20\n      dup3\n      add\n      mload\n      dup2\n      0x01\n      add\n      sstore\n      0x40\n      dup3\n      add\n      mload\n      dup2\n      0x02\n      add\n      exp(0x0100, 0x00)\n      dup2\n      sload\n      dup2\n      0xff\n      mul\n      not\n      and\n      swap1\n      dup4\n      iszero\n      iszero\n      mul\n      or\n      swap1\n      sstore\n      pop\n      swap1\n      pop\n      pop\n        /* \"contracts/AirlineManagement.sol\":455:605  function addFlight(string memory flightNumber, uint price) public onlyAdmin {... */\n      pop\n      pop\n      jump\t// out\n        /* \"contracts/AirlineManagement.sol\":611:757  function updateFlightStatus(string memory flightNumber, bool isActive) public onlyAdmin {... */\n    tag_21:\n        /* \"contracts/AirlineManagement.sol\":372:377  admin */\n      0x00\n      dup1\n      sload\n      swap1\n      0x0100\n      exp\n      swap1\n      div\n      0xffffffffffffffffffffffffffffffffffffffff\n      and\n        /* \"contracts/AirlineManagement.sol\":358:377  msg.sender == admin */\n      0xffffffffffffffffffffffffffffffffffffffff\n      and\n        /* \"contracts/AirlineManagement.sol\":358:368  msg.sender */\n      caller\n        /* \"contracts/AirlineManagement.sol\":358:377  msg.sender == admin */\n      0xffffffffffffffffffffffffffffffffffffffff\n      and\n      eq\n        /* \"contracts/AirlineManagement.sol\":350:431  require(msg.sender == admin, \"Unauthorized: Only admin can perform this action.\") */\n      tag_51\n      jumpi\n      mload(0x40)\n      0x08c379a000000000000000000000000000000000000000000000000000000000\n      dup2\n      mstore\n      0x04\n      add\n      tag_52\n      swap1\n      tag_45\n      jump\t// in\n    tag_52:\n      mload(0x40)\n      dup1\n      swap2\n      sub\n      swap1\n      revert\n    tag_51:\n        /* \"contracts/AirlineManagement.sol\":742:750  isActive */\n      dup1\n        /* \"contracts/AirlineManagement.sol\":709:716  flights */\n      0x01\n        /* \"contracts/AirlineManagement.sol\":717:729  flightNumber */\n      dup4\n        /* \"contracts/AirlineManagement.sol\":709:730  flights[flightNumber] */\n      mload(0x40)\n      tag_54\n      swap2\n      swap1\n      tag_35\n      jump\t// in\n    tag_54:\n      swap1\n      dup2\n      mstore\n      0x20\n      add\n      mload(0x40)\n      dup1\n      swap2\n      sub\n      swap1\n      keccak256\n        /* \"contracts/AirlineManagement.sol\":709:739  flights[flightNumber].isActive */\n      0x02\n      add\n      0x00\n        /* \"contracts/AirlineManagement.sol\":709:750  flights[flightNumber].isActive = isActive */\n      0x0100\n      exp\n      dup2\n      sload\n      dup2\n      0xff\n      mul\n      not\n      and\n      swap1\n      dup4\n      iszero\n      iszero\n      mul\n      or\n      swap1\n      sstore\n      pop\n        /* \"contracts/AirlineManagement.sol\":611:757  function updateFlightStatus(string memory flightNumber, bool isActive) public onlyAdmin {... */\n      pop\n      pop\n      jump\t// out\n        /* \"contracts/AirlineManagement.sol\":217:257  mapping(string => Flight) public flights */\n    tag_24:\n      0x01\n      dup2\n      dup1\n      mload\n      0x20\n      dup2\n      add\n      dup3\n      add\n      dup1\n      mload\n      dup5\n      dup3\n      mstore\n      0x20\n      dup4\n      add\n      0x20\n      dup6\n      add\n      keccak256\n      dup2\n      dup4\n      mstore\n      dup1\n      swap6\n      pop\n      pop\n      pop\n      pop\n      pop\n      pop\n      0x00\n      swap2\n      pop\n      swap1\n      pop\n      dup1\n      0x00\n      add\n      dup1\n      sload\n      tag_55\n      swap1\n      tag_37\n      jump\t// in\n    tag_55:\n      dup1\n      0x1f\n      add\n      0x20\n      dup1\n      swap2\n      div\n      mul\n      0x20\n      add\n      mload(0x40)\n      swap1\n      dup2\n      add\n      0x40\n      mstore\n      dup1\n      swap3\n      swap2\n      swap1\n      dup2\n      dup2\n      mstore\n      0x20\n      add\n      dup3\n      dup1\n      sload\n      tag_56\n      swap1\n      tag_37\n      jump\t// in\n    tag_56:\n      dup1\n      iszero\n      tag_57\n      jumpi\n      dup1\n      0x1f\n      lt\n      tag_58\n      jumpi\n      0x0100\n      dup1\n      dup4\n      sload\n      div\n      mul\n      dup4\n      mstore\n      swap2\n      0x20\n      add\n      swap2\n      jump(tag_57)\n    tag_58:\n      dup3\n      add\n      swap2\n      swap1\n      0x00\n      mstore\n      keccak256(0x00, 0x20)\n      swap1\n    tag_59:\n      dup2\n      sload\n      dup2\n      mstore\n      swap1\n      0x01\n      add\n      swap1\n      0x20\n      add\n      dup1\n      dup4\n      gt\n      tag_59\n      jumpi\n      dup3\n      swap1\n      sub\n      0x1f\n      and\n      dup3\n      add\n      swap2\n    tag_57:\n      pop\n      pop\n      pop\n      pop\n      pop\n      swap1\n      dup1\n      0x01\n      add\n      sload\n      swap1\n      dup1\n      0x02\n      add\n      0x00\n      swap1\n      sload\n      swap1\n      0x0100\n      exp\n      swap1\n      div\n      0xff\n      and\n      swap1\n      pop\n      dup4\n      jump\t// out\n        /* \"contracts/AirlineManagement.sol\":91:111  address public admin */\n    tag_28:\n      0x00\n      dup1\n      sload\n      swap1\n      0x0100\n      exp\n      swap1\n      div\n      0xffffffffffffffffffffffffffffffffffffffff\n      and\n      dup2\n      jump\t// out\n    tag_32:\n      mload(0x40)\n      dup1\n      0x60\n      add\n      0x40\n      mstore\n      dup1\n      0x60\n      dup2\n      mstore\n      0x20\n      add\n      0x00\n      dup2\n      mstore\n      0x20\n      add\n      iszero(iszero(0x00))\n      dup2\n      mstore\n      pop\n      swap1\n      jump\t// out\n        /* \"#utility.yul\":7:82   */\n    tag_60:\n        /* \"#utility.yul\":40:46   */\n      0x00\n        /* \"#utility.yul\":73:75   */\n      0x40\n        /* \"#utility.yul\":67:76   */\n      mload\n        /* \"#utility.yul\":57:76   */\n      swap1\n      pop\n        /* \"#utility.yul\":7:82   */\n      swap1\n      jump\t// out\n        /* \"#utility.yul\":88:205   */\n    tag_61:\n        /* \"#utility.yul\":197:198   */\n      0x00\n        /* \"#utility.yul\":194:195   */\n      dup1\n        /* \"#utility.yul\":187:199   */\n      revert\n        /* \"#utility.yul\":211:328   */\n    tag_62:\n        /* \"#utility.yul\":320:321   */\n      0x00\n        /* \"#utility.yul\":317:318   */\n      dup1\n        /* \"#utility.yul\":310:322   */\n      revert\n        /* \"#utility.yul\":334:451   */\n    tag_63:\n        /* \"#utility.yul\":443:444   */\n      0x00\n        /* \"#utility.yul\":440:441   */\n      dup1\n        /* \"#utility.yul\":433:445   */\n      revert\n        /* \"#utility.yul\":457:574   */\n    tag_64:\n        /* \"#utility.yul\":566:567   */\n      0x00\n        /* \"#utility.yul\":563:564   */\n      dup1\n        /* \"#utility.yul\":556:568   */\n      revert\n        /* \"#utility.yul\":580:682   */\n    tag_65:\n        /* \"#utility.yul\":621:627   */\n      0x00\n        /* \"#utility.yul\":672:674   */\n      0x1f\n        /* \"#utility.yul\":668:675   */\n      not\n        /* \"#utility.yul\":663:665   */\n      0x1f\n        /* \"#utility.yul\":656:661   */\n      dup4\n        /* \"#utility.yul\":652:666   */\n      add\n        /* \"#utility.yul\":648:676   */\n      and\n        /* \"#utility.yul\":638:676   */\n      swap1\n      pop\n        /* \"#utility.yul\":580:682   */\n      swap2\n      swap1\n      pop\n      jump\t// out\n        /* \"#utility.yul\":688:868   */\n    tag_66:\n        /* \"#utility.yul\":736:813   */\n      0x4e487b7100000000000000000000000000000000000000000000000000000000\n        /* \"#utility.yul\":733:734   */\n      0x00\n        /* \"#utility.yul\":726:814   */\n      mstore\n        /* \"#utility.yul\":833:837   */\n      0x41\n        /* \"#utility.yul\":830:831   */\n      0x04\n        /* \"#utility.yul\":823:838   */\n      mstore\n        /* \"#utility.yul\":857:861   */\n      0x24\n        /* \"#utility.yul\":854:855   */\n      0x00\n        /* \"#utility.yul\":847:862   */\n      revert\n        /* \"#utility.yul\":874:1155   */\n    tag_67:\n        /* \"#utility.yul\":957:984   */\n      tag_122\n        /* \"#utility.yul\":979:983   */\n      dup3\n        /* \"#utility.yul\":957:984   */\n      tag_65\n      jump\t// in\n    tag_122:\n        /* \"#utility.yul\":949:955   */\n      dup2\n        /* \"#utility.yul\":945:985   */\n      add\n        /* \"#utility.yul\":1087:1093   */\n      dup2\n        /* \"#utility.yul\":1075:1085   */\n      dup2\n        /* \"#utility.yul\":1072:1094   */\n      lt\n        /* \"#utility.yul\":1051:1069   */\n      0xffffffffffffffff\n        /* \"#utility.yul\":1039:1049   */\n      dup3\n        /* \"#utility.yul\":1036:1070   */\n      gt\n        /* \"#utility.yul\":1033:1095   */\n      or\n        /* \"#utility.yul\":1030:1118   */\n      iszero\n      tag_123\n      jumpi\n        /* \"#utility.yul\":1098:1116   */\n      tag_124\n      tag_66\n      jump\t// in\n    tag_124:\n        /* \"#utility.yul\":1030:1118   */\n    tag_123:\n        /* \"#utility.yul\":1138:1148   */\n      dup1\n        /* \"#utility.yul\":1134:1136   */\n      0x40\n        /* \"#utility.yul\":1127:1149   */\n      mstore\n        /* \"#utility.yul\":917:1155   */\n      pop\n        /* \"#utility.yul\":874:1155   */\n      pop\n      pop\n      jump\t// out\n        /* \"#utility.yul\":1161:1290   */\n    tag_68:\n        /* \"#utility.yul\":1195:1201   */\n      0x00\n        /* \"#utility.yul\":1222:1242   */\n      tag_126\n      tag_60\n      jump\t// in\n    tag_126:\n        /* \"#utility.yul\":1212:1242   */\n      swap1\n      pop\n        /* \"#utility.yul\":1251:1284   */\n      tag_127\n        /* \"#utility.yul\":1279:1283   */\n      dup3\n        /* \"#utility.yul\":1271:1277   */\n      dup3\n        /* \"#utility.yul\":1251:1284   */\n      tag_67\n      jump\t// in\n    tag_127:\n        /* \"#utility.yul\":1161:1290   */\n      swap2\n      swap1\n      pop\n      jump\t// out\n        /* \"#utility.yul\":1296:1604   */\n    tag_69:\n        /* \"#utility.yul\":1358:1362   */\n      0x00\n        /* \"#utility.yul\":1448:1466   */\n      0xffffffffffffffff\n        /* \"#utility.yul\":1440:1446   */\n      dup3\n        /* \"#utility.yul\":1437:1467   */\n      gt\n        /* \"#utility.yul\":1434:1490   */\n      iszero\n      tag_129\n      jumpi\n        /* \"#utility.yul\":1470:1488   */\n      tag_130\n      tag_66\n      jump\t// in\n    tag_130:\n        /* \"#utility.yul\":1434:1490   */\n    tag_129:\n        /* \"#utility.yul\":1508:1537   */\n      tag_131\n        /* \"#utility.yul\":1530:1536   */\n      dup3\n        /* \"#utility.yul\":1508:1537   */\n      tag_65\n      jump\t// in\n    tag_131:\n        /* \"#utility.yul\":1500:1537   */\n      swap1\n      pop\n        /* \"#utility.yul\":1592:1596   */\n      0x20\n        /* \"#utility.yul\":1586:1590   */\n      dup2\n        /* \"#utility.yul\":1582:1597   */\n      add\n        /* \"#utility.yul\":1574:1597   */\n      swap1\n      pop\n        /* \"#utility.yul\":1296:1604   */\n      swap2\n      swap1\n      pop\n      jump\t// out\n        /* \"#utility.yul\":1610:1758   */\n    tag_70:\n        /* \"#utility.yul\":1708:1714   */\n      dup3\n        /* \"#utility.yul\":1703:1706   */\n      dup2\n        /* \"#utility.yul\":1698:1701   */\n      dup4\n        /* \"#utility.yul\":1685:1715   */\n      calldatacopy\n        /* \"#utility.yul\":1749:1750   */\n      0x00\n        /* \"#utility.yul\":1740:1746   */\n      dup4\n        /* \"#utility.yul\":1735:1738   */\n      dup4\n        /* \"#utility.yul\":1731:1747   */\n      add\n        /* \"#utility.yul\":1724:1751   */\n      mstore\n        /* \"#utility.yul\":1610:1758   */\n      pop\n      pop\n      pop\n      jump\t// out\n        /* \"#utility.yul\":1764:2189   */\n    tag_71:\n        /* \"#utility.yul\":1842:1847   */\n      0x00\n        /* \"#utility.yul\":1867:1933   */\n      tag_134\n        /* \"#utility.yul\":1883:1932   */\n      tag_135\n        /* \"#utility.yul\":1925:1931   */\n      dup5\n        /* \"#utility.yul\":1883:1932   */\n      tag_69\n      jump\t// in\n    tag_135:\n        /* \"#utility.yul\":1867:1933   */\n      tag_68\n      jump\t// in\n    tag_134:\n        /* \"#utility.yul\":1858:1933   */\n      swap1\n      pop\n        /* \"#utility.yul\":1956:1962   */\n      dup3\n        /* \"#utility.yul\":1949:1954   */\n      dup2\n        /* \"#utility.yul\":1942:1963   */\n      mstore\n        /* \"#utility.yul\":1994:1998   */\n      0x20\n        /* \"#utility.yul\":1987:1992   */\n      dup2\n        /* \"#utility.yul\":1983:1999   */\n      add\n        /* \"#utility.yul\":2032:2035   */\n      dup5\n        /* \"#utility.yul\":2023:2029   */\n      dup5\n        /* \"#utility.yul\":2018:2021   */\n      dup5\n        /* \"#utility.yul\":2014:2030   */\n      add\n        /* \"#utility.yul\":2011:2036   */\n      gt\n        /* \"#utility.yul\":2008:2120   */\n      iszero\n      tag_136\n      jumpi\n        /* \"#utility.yul\":2039:2118   */\n      tag_137\n      tag_64\n      jump\t// in\n    tag_137:\n        /* \"#utility.yul\":2008:2120   */\n    tag_136:\n        /* \"#utility.yul\":2129:2183   */\n      tag_138\n        /* \"#utility.yul\":2176:2182   */\n      dup5\n        /* \"#utility.yul\":2171:2174   */\n      dup3\n        /* \"#utility.yul\":2166:2169   */\n      dup6\n        /* \"#utility.yul\":2129:2183   */\n      tag_70\n      jump\t// in\n    tag_138:\n        /* \"#utility.yul\":1848:2189   */\n      pop\n        /* \"#utility.yul\":1764:2189   */\n      swap4\n      swap3\n      pop\n      pop\n      pop\n      jump\t// out\n        /* \"#utility.yul\":2209:2549   */\n    tag_72:\n        /* \"#utility.yul\":2265:2270   */\n      0x00\n        /* \"#utility.yul\":2314:2317   */\n      dup3\n        /* \"#utility.yul\":2307:2311   */\n      0x1f\n        /* \"#utility.yul\":2299:2305   */\n      dup4\n        /* \"#utility.yul\":2295:2312   */\n      add\n        /* \"#utility.yul\":2291:2318   */\n      slt\n        /* \"#utility.yul\":2281:2403   */\n      tag_140\n      jumpi\n        /* \"#utility.yul\":2322:2401   */\n      tag_141\n      tag_63\n      jump\t// in\n    tag_141:\n        /* \"#utility.yul\":2281:2403   */\n    tag_140:\n        /* \"#utility.yul\":2439:2445   */\n      dup2\n        /* \"#utility.yul\":2426:2446   */\n      calldataload\n        /* \"#utility.yul\":2464:2543   */\n      tag_142\n        /* \"#utility.yul\":2539:2542   */\n      dup5\n        /* \"#utility.yul\":2531:2537   */\n      dup3\n        /* \"#utility.yul\":2524:2528   */\n      0x20\n        /* \"#utility.yul\":2516:2522   */\n      dup7\n        /* \"#utility.yul\":2512:2529   */\n      add\n        /* \"#utility.yul\":2464:2543   */\n      tag_71\n      jump\t// in\n    tag_142:\n        /* \"#utility.yul\":2455:2543   */\n      swap2\n      pop\n        /* \"#utility.yul\":2271:2549   */\n      pop\n        /* \"#utility.yul\":2209:2549   */\n      swap3\n      swap2\n      pop\n      pop\n      jump\t// out\n        /* \"#utility.yul\":2555:3064   */\n    tag_10:\n        /* \"#utility.yul\":2624:2630   */\n      0x00\n        /* \"#utility.yul\":2673:2675   */\n      0x20\n        /* \"#utility.yul\":2661:2670   */\n      dup3\n        /* \"#utility.yul\":2652:2659   */\n      dup5\n        /* \"#utility.yul\":2648:2671   */\n      sub\n        /* \"#utility.yul\":2644:2676   */\n      slt\n        /* \"#utility.yul\":2641:2760   */\n      iszero\n      tag_144\n      jumpi\n        /* \"#utility.yul\":2679:2758   */\n      tag_145\n      tag_61\n      jump\t// in\n    tag_145:\n        /* \"#utility.yul\":2641:2760   */\n    tag_144:\n        /* \"#utility.yul\":2827:2828   */\n      0x00\n        /* \"#utility.yul\":2816:2825   */\n      dup3\n        /* \"#utility.yul\":2812:2829   */\n      add\n        /* \"#utility.yul\":2799:2830   */\n      calldataload\n        /* \"#utility.yul\":2857:2875   */\n      0xffffffffffffffff\n        /* \"#utility.yul\":2849:2855   */\n      dup2\n        /* \"#utility.yul\":2846:2876   */\n      gt\n        /* \"#utility.yul\":2843:2960   */\n      iszero\n      tag_146\n      jumpi\n        /* \"#utility.yul\":2879:2958   */\n      tag_147\n      tag_62\n      jump\t// in\n    tag_147:\n        /* \"#utility.yul\":2843:2960   */\n    tag_146:\n        /* \"#utility.yul\":2984:3047   */\n      tag_148\n        /* \"#utility.yul\":3039:3046   */\n      dup5\n        /* \"#utility.yul\":3030:3036   */\n      dup3\n        /* \"#utility.yul\":3019:3028   */\n      dup6\n        /* \"#utility.yul\":3015:3037   */\n      add\n        /* \"#utility.yul\":2984:3047   */\n      tag_72\n      jump\t// in\n    tag_148:\n        /* \"#utility.yul\":2974:3047   */\n      swap2\n      pop\n        /* \"#utility.yul\":2770:3057   */\n      pop\n        /* \"#utility.yul\":2555:3064   */\n      swap3\n      swap2\n      pop\n      pop\n      jump\t// out\n        /* \"#utility.yul\":3070:3169   */\n    tag_73:\n        /* \"#utility.yul\":3122:3128   */\n      0x00\n        /* \"#utility.yul\":3156:3161   */\n      dup2\n        /* \"#utility.yul\":3150:3162   */\n      mload\n        /* \"#utility.yul\":3140:3162   */\n      swap1\n      pop\n        /* \"#utility.yul\":3070:3169   */\n      swap2\n      swap1\n      pop\n      jump\t// out\n        /* \"#utility.yul\":3175:3334   */\n    tag_74:\n        /* \"#utility.yul\":3249:3260   */\n      0x00\n        /* \"#utility.yul\":3283:3289   */\n      dup3\n        /* \"#utility.yul\":3278:3281   */\n      dup3\n        /* \"#utility.yul\":3271:3290   */\n      mstore\n        /* \"#utility.yul\":3323:3327   */\n      0x20\n        /* \"#utility.yul\":3318:3321   */\n      dup3\n        /* \"#utility.yul\":3314:3328   */\n      add\n        /* \"#utility.yul\":3299:3328   */\n      swap1\n      pop\n        /* \"#utility.yul\":3175:3334   */\n      swap3\n      swap2\n      pop\n      pop\n      jump\t// out\n        /* \"#utility.yul\":3340:3479   */\n    tag_75:\n        /* \"#utility.yul\":3429:3435   */\n      dup3\n        /* \"#utility.yul\":3424:3427   */\n      dup2\n        /* \"#utility.yul\":3419:3422   */\n      dup4\n        /* \"#utility.yul\":3413:3436   */\n      mcopy\n        /* \"#utility.yul\":3470:3471   */\n      0x00\n        /* \"#utility.yul\":3461:3467   */\n      dup4\n        /* \"#utility.yul\":3456:3459   */\n      dup4\n        /* \"#utility.yul\":3452:3468   */\n      add\n        /* \"#utility.yul\":3445:3472   */\n      mstore\n        /* \"#utility.yul\":3340:3479   */\n      pop\n      pop\n      pop\n      jump\t// out\n        /* \"#utility.yul\":3485:3842   */\n    tag_76:\n        /* \"#utility.yul\":3563:3566   */\n      0x00\n        /* \"#utility.yul\":3591:3630   */\n      tag_153\n        /* \"#utility.yul\":3624:3629   */\n      dup3\n        /* \"#utility.yul\":3591:3630   */\n      tag_73\n      jump\t// in\n    tag_153:\n        /* \"#utility.yul\":3646:3707   */\n      tag_154\n        /* \"#utility.yul\":3700:3706   */\n      dup2\n        /* \"#utility.yul\":3695:3698   */\n      dup6\n        /* \"#utility.yul\":3646:3707   */\n      tag_74\n      jump\t// in\n    tag_154:\n        /* \"#utility.yul\":3639:3707   */\n      swap4\n      pop\n        /* \"#utility.yul\":3716:3781   */\n      tag_155\n        /* \"#utility.yul\":3774:3780   */\n      dup2\n        /* \"#utility.yul\":3769:3772   */\n      dup6\n        /* \"#utility.yul\":3762:3766   */\n      0x20\n        /* \"#utility.yul\":3755:3760   */\n      dup7\n        /* \"#utility.yul\":3751:3767   */\n      add\n        /* \"#utility.yul\":3716:3781   */\n      tag_75\n      jump\t// in\n    tag_155:\n        /* \"#utility.yul\":3806:3835   */\n      tag_156\n        /* \"#utility.yul\":3828:3834   */\n      dup2\n        /* \"#utility.yul\":3806:3835   */\n      tag_65\n      jump\t// in\n    tag_156:\n        /* \"#utility.yul\":3801:3804   */\n      dup5\n        /* \"#utility.yul\":3797:3836   */\n      add\n        /* \"#utility.yul\":3790:3836   */\n      swap2\n      pop\n        /* \"#utility.yul\":3567:3842   */\n      pop\n        /* \"#utility.yul\":3485:3842   */\n      swap3\n      swap2\n      pop\n      pop\n      jump\t// out\n        /* \"#utility.yul\":3848:3925   */\n    tag_77:\n        /* \"#utility.yul\":3885:3892   */\n      0x00\n        /* \"#utility.yul\":3914:3919   */\n      dup2\n        /* \"#utility.yul\":3903:3919   */\n      swap1\n      pop\n        /* \"#utility.yul\":3848:3925   */\n      swap2\n      swap1\n      pop\n      jump\t// out\n        /* \"#utility.yul\":3931:4039   */\n    tag_78:\n        /* \"#utility.yul\":4008:4032   */\n      tag_159\n        /* \"#utility.yul\":4026:4031   */\n      dup2\n        /* \"#utility.yul\":4008:4032   */\n      tag_77\n      jump\t// in\n    tag_159:\n        /* \"#utility.yul\":4003:4006   */\n      dup3\n        /* \"#utility.yul\":3996:4033   */\n      mstore\n        /* \"#utility.yul\":3931:4039   */\n      pop\n      pop\n      jump\t// out\n        /* \"#utility.yul\":4045:4135   */\n    tag_79:\n        /* \"#utility.yul\":4079:4086   */\n      0x00\n        /* \"#utility.yul\":4122:4127   */\n      dup2\n        /* \"#utility.yul\":4115:4128   */\n      iszero\n        /* \"#utility.yul\":4108:4129   */\n      iszero\n        /* \"#utility.yul\":4097:4129   */\n      swap1\n      pop\n        /* \"#utility.yul\":4045:4135   */\n      swap2\n      swap1\n      pop\n      jump\t// out\n        /* \"#utility.yul\":4141:4240   */\n    tag_80:\n        /* \"#utility.yul\":4212:4233   */\n      tag_162\n        /* \"#utility.yul\":4227:4232   */\n      dup2\n        /* \"#utility.yul\":4212:4233   */\n      tag_79\n      jump\t// in\n    tag_162:\n        /* \"#utility.yul\":4207:4210   */\n      dup3\n        /* \"#utility.yul\":4200:4234   */\n      mstore\n        /* \"#utility.yul\":4141:4240   */\n      pop\n      pop\n      jump\t// out\n        /* \"#utility.yul\":4320:5101   */\n    tag_81:\n        /* \"#utility.yul\":4433:4436   */\n      0x00\n        /* \"#utility.yul\":4469:4473   */\n      0x60\n        /* \"#utility.yul\":4464:4467   */\n      dup4\n        /* \"#utility.yul\":4460:4474   */\n      add\n        /* \"#utility.yul\":4564:4568   */\n      0x00\n        /* \"#utility.yul\":4557:4562   */\n      dup4\n        /* \"#utility.yul\":4553:4569   */\n      add\n        /* \"#utility.yul\":4547:4570   */\n      mload\n        /* \"#utility.yul\":4617:4620   */\n      dup5\n        /* \"#utility.yul\":4611:4615   */\n      dup3\n        /* \"#utility.yul\":4607:4621   */\n      sub\n        /* \"#utility.yul\":4600:4604   */\n      0x00\n        /* \"#utility.yul\":4595:4598   */\n      dup7\n        /* \"#utility.yul\":4591:4605   */\n      add\n        /* \"#utility.yul\":4584:4622   */\n      mstore\n        /* \"#utility.yul\":4643:4716   */\n      tag_164\n        /* \"#utility.yul\":4711:4715   */\n      dup3\n        /* \"#utility.yul\":4697:4709   */\n      dup3\n        /* \"#utility.yul\":4643:4716   */\n      tag_76\n      jump\t// in\n    tag_164:\n        /* \"#utility.yul\":4635:4716   */\n      swap2\n      pop\n        /* \"#utility.yul\":4484:4727   */\n      pop\n        /* \"#utility.yul\":4810:4814   */\n      0x20\n        /* \"#utility.yul\":4803:4808   */\n      dup4\n        /* \"#utility.yul\":4799:4815   */\n      add\n        /* \"#utility.yul\":4793:4816   */\n      mload\n        /* \"#utility.yul\":4829:4892   */\n      tag_165\n        /* \"#utility.yul\":4886:4890   */\n      0x20\n        /* \"#utility.yul\":4881:4884   */\n      dup7\n        /* \"#utility.yul\":4877:4891   */\n      add\n        /* \"#utility.yul\":4863:4875   */\n      dup3\n        /* \"#utility.yul\":4829:4892   */\n      tag_78\n      jump\t// in\n    tag_165:\n        /* \"#utility.yul\":4737:4902   */\n      pop\n        /* \"#utility.yul\":4988:4992   */\n      0x40\n        /* \"#utility.yul\":4981:4986   */\n      dup4\n        /* \"#utility.yul\":4977:4993   */\n      add\n        /* \"#utility.yul\":4971:4994   */\n      mload\n        /* \"#utility.yul\":5007:5064   */\n      tag_166\n        /* \"#utility.yul\":5058:5062   */\n      0x40\n        /* \"#utility.yul\":5053:5056   */\n      dup7\n        /* \"#utility.yul\":5049:5063   */\n      add\n        /* \"#utility.yul\":5035:5047   */\n      dup3\n        /* \"#utility.yul\":5007:5064   */\n      tag_80\n      jump\t// in\n    tag_166:\n        /* \"#utility.yul\":4912:5074   */\n      pop\n        /* \"#utility.yul\":5091:5095   */\n      dup1\n        /* \"#utility.yul\":5084:5095   */\n      swap2\n      pop\n        /* \"#utility.yul\":4438:5101   */\n      pop\n        /* \"#utility.yul\":4320:5101   */\n      swap3\n      swap2\n      pop\n      pop\n      jump\t// out\n        /* \"#utility.yul\":5107:5468   */\n    tag_13:\n        /* \"#utility.yul\":5244:5248   */\n      0x00\n        /* \"#utility.yul\":5282:5284   */\n      0x20\n        /* \"#utility.yul\":5271:5280   */\n      dup3\n        /* \"#utility.yul\":5267:5285   */\n      add\n        /* \"#utility.yul\":5259:5285   */\n      swap1\n      pop\n        /* \"#utility.yul\":5331:5340   */\n      dup2\n        /* \"#utility.yul\":5325:5329   */\n      dup2\n        /* \"#utility.yul\":5321:5341   */\n      sub\n        /* \"#utility.yul\":5317:5318   */\n      0x00\n        /* \"#utility.yul\":5306:5315   */\n      dup4\n        /* \"#utility.yul\":5302:5319   */\n      add\n        /* \"#utility.yul\":5295:5342   */\n      mstore\n        /* \"#utility.yul\":5359:5461   */\n      tag_168\n        /* \"#utility.yul\":5456:5460   */\n      dup2\n        /* \"#utility.yul\":5447:5453   */\n      dup5\n        /* \"#utility.yul\":5359:5461   */\n      tag_81\n      jump\t// in\n    tag_168:\n        /* \"#utility.yul\":5351:5461   */\n      swap1\n      pop\n        /* \"#utility.yul\":5107:5468   */\n      swap3\n      swap2\n      pop\n      pop\n      jump\t// out\n        /* \"#utility.yul\":5474:5596   */\n    tag_82:\n        /* \"#utility.yul\":5547:5571   */\n      tag_170\n        /* \"#utility.yul\":5565:5570   */\n      dup2\n        /* \"#utility.yul\":5547:5571   */\n      tag_77\n      jump\t// in\n    tag_170:\n        /* \"#utility.yul\":5540:5545   */\n      dup2\n        /* \"#utility.yul\":5537:5572   */\n      eq\n        /* \"#utility.yul\":5527:5590   */\n      tag_171\n      jumpi\n        /* \"#utility.yul\":5586:5587   */\n      0x00\n        /* \"#utility.yul\":5583:5584   */\n      dup1\n        /* \"#utility.yul\":5576:5588   */\n      revert\n        /* \"#utility.yul\":5527:5590   */\n    tag_171:\n        /* \"#utility.yul\":5474:5596   */\n      pop\n      jump\t// out\n        /* \"#utility.yul\":5602:5741   */\n    tag_83:\n        /* \"#utility.yul\":5648:5653   */\n      0x00\n        /* \"#utility.yul\":5686:5692   */\n      dup2\n        /* \"#utility.yul\":5673:5693   */\n      calldataload\n        /* \"#utility.yul\":5664:5693   */\n      swap1\n      pop\n        /* \"#utility.yul\":5702:5735   */\n      tag_173\n        /* \"#utility.yul\":5729:5734   */\n      dup2\n        /* \"#utility.yul\":5702:5735   */\n      tag_82\n      jump\t// in\n    tag_173:\n        /* \"#utility.yul\":5602:5741   */\n      swap3\n      swap2\n      pop\n      pop\n      jump\t// out\n        /* \"#utility.yul\":5747:6401   */\n    tag_16:\n        /* \"#utility.yul\":5825:5831   */\n      0x00\n        /* \"#utility.yul\":5833:5839   */\n      dup1\n        /* \"#utility.yul\":5882:5884   */\n      0x40\n        /* \"#utility.yul\":5870:5879   */\n      dup4\n        /* \"#utility.yul\":5861:5868   */\n      dup6\n        /* \"#utility.yul\":5857:5880   */\n      sub\n        /* \"#utility.yul\":5853:5885   */\n      slt\n        /* \"#utility.yul\":5850:5969   */\n      iszero\n      tag_175\n      jumpi\n        /* \"#utility.yul\":5888:5967   */\n      tag_176\n      tag_61\n      jump\t// in\n    tag_176:\n        /* \"#utility.yul\":5850:5969   */\n    tag_175:\n        /* \"#utility.yul\":6036:6037   */\n      0x00\n        /* \"#utility.yul\":6025:6034   */\n      dup4\n        /* \"#utility.yul\":6021:6038   */\n      add\n        /* \"#utility.yul\":6008:6039   */\n      calldataload\n        /* \"#utility.yul\":6066:6084   */\n      0xffffffffffffffff\n        /* \"#utility.yul\":6058:6064   */\n      dup2\n        /* \"#utility.yul\":6055:6085   */\n      gt\n        /* \"#utility.yul\":6052:6169   */\n      iszero\n      tag_177\n      jumpi\n        /* \"#utility.yul\":6088:6167   */\n      tag_178\n      tag_62\n      jump\t// in\n    tag_178:\n        /* \"#utility.yul\":6052:6169   */\n    tag_177:\n        /* \"#utility.yul\":6193:6256   */\n      tag_179\n        /* \"#utility.yul\":6248:6255   */\n      dup6\n        /* \"#utility.yul\":6239:6245   */\n      dup3\n        /* \"#utility.yul\":6228:6237   */\n      dup7\n        /* \"#utility.yul\":6224:6246   */\n      add\n        /* \"#utility.yul\":6193:6256   */\n      tag_72\n      jump\t// in\n    tag_179:\n        /* \"#utility.yul\":6183:6256   */\n      swap3\n      pop\n        /* \"#utility.yul\":5979:6266   */\n      pop\n        /* \"#utility.yul\":6305:6307   */\n      0x20\n        /* \"#utility.yul\":6331:6384   */\n      tag_180\n        /* \"#utility.yul\":6376:6383   */\n      dup6\n        /* \"#utility.yul\":6367:6373   */\n      dup3\n        /* \"#utility.yul\":6356:6365   */\n      dup7\n        /* \"#utility.yul\":6352:6374   */\n      add\n        /* \"#utility.yul\":6331:6384   */\n      tag_83\n      jump\t// in\n    tag_180:\n        /* \"#utility.yul\":6321:6384   */\n      swap2\n      pop\n        /* \"#utility.yul\":6276:6394   */\n      pop\n        /* \"#utility.yul\":5747:6401   */\n      swap3\n      pop\n      swap3\n      swap1\n      pop\n      jump\t// out\n        /* \"#utility.yul\":6407:6523   */\n    tag_84:\n        /* \"#utility.yul\":6477:6498   */\n      tag_182\n        /* \"#utility.yul\":6492:6497   */\n      dup2\n        /* \"#utility.yul\":6477:6498   */\n      tag_79\n      jump\t// in\n    tag_182:\n        /* \"#utility.yul\":6470:6475   */\n      dup2\n        /* \"#utility.yul\":6467:6499   */\n      eq\n        /* \"#utility.yul\":6457:6517   */\n      tag_183\n      jumpi\n        /* \"#utility.yul\":6513:6514   */\n      0x00\n        /* \"#utility.yul\":6510:6511   */\n      dup1\n        /* \"#utility.yul\":6503:6515   */\n      revert\n        /* \"#utility.yul\":6457:6517   */\n    tag_183:\n        /* \"#utility.yul\":6407:6523   */\n      pop\n      jump\t// out\n        /* \"#utility.yul\":6529:6662   */\n    tag_85:\n        /* \"#utility.yul\":6572:6577   */\n      0x00\n        /* \"#utility.yul\":6610:6616   */\n      dup2\n        /* \"#utility.yul\":6597:6617   */\n      calldataload\n        /* \"#utility.yul\":6588:6617   */\n      swap1\n      pop\n        /* \"#utility.yul\":6626:6656   */\n      tag_185\n        /* \"#utility.yul\":6650:6655   */\n      dup2\n        /* \"#utility.yul\":6626:6656   */\n      tag_84\n      jump\t// in\n    tag_185:\n        /* \"#utility.yul\":6529:6662   */\n      swap3\n      swap2\n      pop\n      pop\n      jump\t// out\n        /* \"#utility.yul\":6668:7316   */\n    tag_20:\n        /* \"#utility.yul\":6743:6749   */\n      0x00\n        /* \"#utility.yul\":6751:6757   */\n      dup1\n        /* \"#utility.yul\":6800:6802   */\n      0x40\n        /* \"#utility.yul\":6788:6797   */\n      dup4\n        /* \"#utility.yul\":6779:6786   */\n      dup6\n        /* \"#utility.yul\":6775:6798   */\n      sub\n        /* \"#utility.yul\":6771:6803   */\n      slt\n        /* \"#utility.yul\":6768:6887   */\n      iszero\n      tag_187\n      jumpi\n        /* \"#utility.yul\":6806:6885   */\n      tag_188\n      tag_61\n      jump\t// in\n    tag_188:\n        /* \"#utility.yul\":6768:6887   */\n    tag_187:\n        /* \"#utility.yul\":6954:6955   */\n      0x00\n        /* \"#utility.yul\":6943:6952   */\n      dup4\n        /* \"#utility.yul\":6939:6956   */\n      add\n        /* \"#utility.yul\":6926:6957   */\n      calldataload\n        /* \"#utility.yul\":6984:7002   */\n      0xffffffffffffffff\n        /* \"#utility.yul\":6976:6982   */\n      dup2\n        /* \"#utility.yul\":6973:7003   */\n      gt\n        /* \"#utility.yul\":6970:7087   */\n      iszero\n      tag_189\n      jumpi\n        /* \"#utility.yul\":7006:7085   */\n      tag_190\n      tag_62\n      jump\t// in\n    tag_190:\n        /* \"#utility.yul\":6970:7087   */\n    tag_189:\n        /* \"#utility.yul\":7111:7174   */\n      tag_191\n        /* \"#utility.yul\":7166:7173   */\n      dup6\n        /* \"#utility.yul\":7157:7163   */\n      dup3\n        /* \"#utility.yul\":7146:7155   */\n      dup7\n        /* \"#utility.yul\":7142:7164   */\n      add\n        /* \"#utility.yul\":7111:7174   */\n      tag_72\n      jump\t// in\n    tag_191:\n        /* \"#utility.yul\":7101:7174   */\n      swap3\n      pop\n        /* \"#utility.yul\":6897:7184   */\n      pop\n        /* \"#utility.yul\":7223:7225   */\n      0x20\n        /* \"#utility.yul\":7249:7299   */\n      tag_192\n        /* \"#utility.yul\":7291:7298   */\n      dup6\n        /* \"#utility.yul\":7282:7288   */\n      dup3\n        /* \"#utility.yul\":7271:7280   */\n      dup7\n        /* \"#utility.yul\":7267:7289   */\n      add\n        /* \"#utility.yul\":7249:7299   */\n      tag_85\n      jump\t// in\n    tag_192:\n        /* \"#utility.yul\":7239:7299   */\n      swap2\n      pop\n        /* \"#utility.yul\":7194:7309   */\n      pop\n        /* \"#utility.yul\":6668:7316   */\n      swap3\n      pop\n      swap3\n      swap1\n      pop\n      jump\t// out\n        /* \"#utility.yul\":7322:7491   */\n    tag_86:\n        /* \"#utility.yul\":7406:7417   */\n      0x00\n        /* \"#utility.yul\":7440:7446   */\n      dup3\n        /* \"#utility.yul\":7435:7438   */\n      dup3\n        /* \"#utility.yul\":7428:7447   */\n      mstore\n        /* \"#utility.yul\":7480:7484   */\n      0x20\n        /* \"#utility.yul\":7475:7478   */\n      dup3\n        /* \"#utility.yul\":7471:7485   */\n      add\n        /* \"#utility.yul\":7456:7485   */\n      swap1\n      pop\n        /* \"#utility.yul\":7322:7491   */\n      swap3\n      swap2\n      pop\n      pop\n      jump\t// out\n        /* \"#utility.yul\":7497:7874   */\n    tag_87:\n        /* \"#utility.yul\":7585:7588   */\n      0x00\n        /* \"#utility.yul\":7613:7652   */\n      tag_195\n        /* \"#utility.yul\":7646:7651   */\n      dup3\n        /* \"#utility.yul\":7613:7652   */\n      tag_73\n      jump\t// in\n    tag_195:\n        /* \"#utility.yul\":7668:7739   */\n      tag_196\n        /* \"#utility.yul\":7732:7738   */\n      dup2\n        /* \"#utility.yul\":7727:7730   */\n      dup6\n        /* \"#utility.yul\":7668:7739   */\n      tag_86\n      jump\t// in\n    tag_196:\n        /* \"#utility.yul\":7661:7739   */\n      swap4\n      pop\n        /* \"#utility.yul\":7748:7813   */\n      tag_197\n        /* \"#utility.yul\":7806:7812   */\n      dup2\n        /* \"#utility.yul\":7801:7804   */\n      dup6\n        /* \"#utility.yul\":7794:7798   */\n      0x20\n        /* \"#utility.yul\":7787:7792   */\n      dup7\n        /* \"#utility.yul\":7783:7799   */\n      add\n        /* \"#utility.yul\":7748:7813   */\n      tag_75\n      jump\t// in\n    tag_197:\n        /* \"#utility.yul\":7838:7867   */\n      tag_198\n        /* \"#utility.yul\":7860:7866   */\n      dup2\n        /* \"#utility.yul\":7838:7867   */\n      tag_65\n      jump\t// in\n    tag_198:\n        /* \"#utility.yul\":7833:7836   */\n      dup5\n        /* \"#utility.yul\":7829:7868   */\n      add\n        /* \"#utility.yul\":7822:7868   */\n      swap2\n      pop\n        /* \"#utility.yul\":7589:7874   */\n      pop\n        /* \"#utility.yul\":7497:7874   */\n      swap3\n      swap2\n      pop\n      pop\n      jump\t// out\n        /* \"#utility.yul\":7880:7998   */\n    tag_88:\n        /* \"#utility.yul\":7967:7991   */\n      tag_200\n        /* \"#utility.yul\":7985:7990   */\n      dup2\n        /* \"#utility.yul\":7967:7991   */\n      tag_77\n      jump\t// in\n    tag_200:\n        /* \"#utility.yul\":7962:7965   */\n      dup3\n        /* \"#utility.yul\":7955:7992   */\n      mstore\n        /* \"#utility.yul\":7880:7998   */\n      pop\n      pop\n      jump\t// out\n        /* \"#utility.yul\":8004:8113   */\n    tag_89:\n        /* \"#utility.yul\":8085:8106   */\n      tag_202\n        /* \"#utility.yul\":8100:8105   */\n      dup2\n        /* \"#utility.yul\":8085:8106   */\n      tag_79\n      jump\t// in\n    tag_202:\n        /* \"#utility.yul\":8080:8083   */\n      dup3\n        /* \"#utility.yul\":8073:8107   */\n      mstore\n        /* \"#utility.yul\":8004:8113   */\n      pop\n      pop\n      jump\t// out\n        /* \"#utility.yul\":8119:8640   */\n    tag_26:\n        /* \"#utility.yul\":8282:8286   */\n      0x00\n        /* \"#utility.yul\":8320:8322   */\n      0x60\n        /* \"#utility.yul\":8309:8318   */\n      dup3\n        /* \"#utility.yul\":8305:8323   */\n      add\n        /* \"#utility.yul\":8297:8323   */\n      swap1\n      pop\n        /* \"#utility.yul\":8369:8378   */\n      dup2\n        /* \"#utility.yul\":8363:8367   */\n      dup2\n        /* \"#utility.yul\":8359:8379   */\n      sub\n        /* \"#utility.yul\":8355:8356   */\n      0x00\n        /* \"#utility.yul\":8344:8353   */\n      dup4\n        /* \"#utility.yul\":8340:8357   */\n      add\n        /* \"#utility.yul\":8333:8380   */\n      mstore\n        /* \"#utility.yul\":8397:8475   */\n      tag_204\n        /* \"#utility.yul\":8470:8474   */\n      dup2\n        /* \"#utility.yul\":8461:8467   */\n      dup7\n        /* \"#utility.yul\":8397:8475   */\n      tag_87\n      jump\t// in\n    tag_204:\n        /* \"#utility.yul\":8389:8475   */\n      swap1\n      pop\n        /* \"#utility.yul\":8485:8557   */\n      tag_205\n        /* \"#utility.yul\":8553:8555   */\n      0x20\n        /* \"#utility.yul\":8542:8551   */\n      dup4\n        /* \"#utility.yul\":8538:8556   */\n      add\n        /* \"#utility.yul\":8529:8535   */\n      dup6\n        /* \"#utility.yul\":8485:8557   */\n      tag_88\n      jump\t// in\n    tag_205:\n        /* \"#utility.yul\":8567:8633   */\n      tag_206\n        /* \"#utility.yul\":8629:8631   */\n      0x40\n        /* \"#utility.yul\":8618:8627   */\n      dup4\n        /* \"#utility.yul\":8614:8632   */\n      add\n        /* \"#utility.yul\":8605:8611   */\n      dup5\n        /* \"#utility.yul\":8567:8633   */\n      tag_89\n      jump\t// in\n    tag_206:\n        /* \"#utility.yul\":8119:8640   */\n      swap5\n      swap4\n      pop\n      pop\n      pop\n      pop\n      jump\t// out\n        /* \"#utility.yul\":8646:8772   */\n    tag_90:\n        /* \"#utility.yul\":8683:8690   */\n      0x00\n        /* \"#utility.yul\":8723:8765   */\n      0xffffffffffffffffffffffffffffffffffffffff\n        /* \"#utility.yul\":8716:8721   */\n      dup3\n        /* \"#utility.yul\":8712:8766   */\n      and\n        /* \"#utility.yul\":8701:8766   */\n      swap1\n      pop\n        /* \"#utility.yul\":8646:8772   */\n      swap2\n      swap1\n      pop\n      jump\t// out\n        /* \"#utility.yul\":8778:8874   */\n    tag_91:\n        /* \"#utility.yul\":8815:8822   */\n      0x00\n        /* \"#utility.yul\":8844:8868   */\n      tag_209\n        /* \"#utility.yul\":8862:8867   */\n      dup3\n        /* \"#utility.yul\":8844:8868   */\n      tag_90\n      jump\t// in\n    tag_209:\n        /* \"#utility.yul\":8833:8868   */\n      swap1\n      pop\n        /* \"#utility.yul\":8778:8874   */\n      swap2\n      swap1\n      pop\n      jump\t// out\n        /* \"#utility.yul\":8880:8998   */\n    tag_92:\n        /* \"#utility.yul\":8967:8991   */\n      tag_211\n        /* \"#utility.yul\":8985:8990   */\n      dup2\n        /* \"#utility.yul\":8967:8991   */\n      tag_91\n      jump\t// in\n    tag_211:\n        /* \"#utility.yul\":8962:8965   */\n      dup3\n        /* \"#utility.yul\":8955:8992   */\n      mstore\n        /* \"#utility.yul\":8880:8998   */\n      pop\n      pop\n      jump\t// out\n        /* \"#utility.yul\":9004:9226   */\n    tag_30:\n        /* \"#utility.yul\":9097:9101   */\n      0x00\n        /* \"#utility.yul\":9135:9137   */\n      0x20\n        /* \"#utility.yul\":9124:9133   */\n      dup3\n        /* \"#utility.yul\":9120:9138   */\n      add\n        /* \"#utility.yul\":9112:9138   */\n      swap1\n      pop\n        /* \"#utility.yul\":9148:9219   */\n      tag_213\n        /* \"#utility.yul\":9216:9217   */\n      0x00\n        /* \"#utility.yul\":9205:9214   */\n      dup4\n        /* \"#utility.yul\":9201:9218   */\n      add\n        /* \"#utility.yul\":9192:9198   */\n      dup5\n        /* \"#utility.yul\":9148:9219   */\n      tag_92\n      jump\t// in\n    tag_213:\n        /* \"#utility.yul\":9004:9226   */\n      swap3\n      swap2\n      pop\n      pop\n      jump\t// out\n        /* \"#utility.yul\":9232:9380   */\n    tag_93:\n        /* \"#utility.yul\":9334:9345   */\n      0x00\n        /* \"#utility.yul\":9371:9374   */\n      dup2\n        /* \"#utility.yul\":9356:9374   */\n      swap1\n      pop\n        /* \"#utility.yul\":9232:9380   */\n      swap3\n      swap2\n      pop\n      pop\n      jump\t// out\n        /* \"#utility.yul\":9386:9776   */\n    tag_94:\n        /* \"#utility.yul\":9492:9495   */\n      0x00\n        /* \"#utility.yul\":9520:9559   */\n      tag_216\n        /* \"#utility.yul\":9553:9558   */\n      dup3\n        /* \"#utility.yul\":9520:9559   */\n      tag_73\n      jump\t// in\n    tag_216:\n        /* \"#utility.yul\":9575:9664   */\n      tag_217\n        /* \"#utility.yul\":9657:9663   */\n      dup2\n        /* \"#utility.yul\":9652:9655   */\n      dup6\n        /* \"#utility.yul\":9575:9664   */\n      tag_93\n      jump\t// in\n    tag_217:\n        /* \"#utility.yul\":9568:9664   */\n      swap4\n      pop\n        /* \"#utility.yul\":9673:9738   */\n      tag_218\n        /* \"#utility.yul\":9731:9737   */\n      dup2\n        /* \"#utility.yul\":9726:9729   */\n      dup6\n        /* \"#utility.yul\":9719:9723   */\n      0x20\n        /* \"#utility.yul\":9712:9717   */\n      dup7\n        /* \"#utility.yul\":9708:9724   */\n      add\n        /* \"#utility.yul\":9673:9738   */\n      tag_75\n      jump\t// in\n    tag_218:\n        /* \"#utility.yul\":9763:9769   */\n      dup1\n        /* \"#utility.yul\":9758:9761   */\n      dup5\n        /* \"#utility.yul\":9754:9770   */\n      add\n        /* \"#utility.yul\":9747:9770   */\n      swap2\n      pop\n        /* \"#utility.yul\":9496:9776   */\n      pop\n        /* \"#utility.yul\":9386:9776   */\n      swap3\n      swap2\n      pop\n      pop\n      jump\t// out\n        /* \"#utility.yul\":9782:10057   */\n    tag_35:\n        /* \"#utility.yul\":9914:9917   */\n      0x00\n        /* \"#utility.yul\":9936:10031   */\n      tag_220\n        /* \"#utility.yul\":10027:10030   */\n      dup3\n        /* \"#utility.yul\":10018:10024   */\n      dup5\n        /* \"#utility.yul\":9936:10031   */\n      tag_94\n      jump\t// in\n    tag_220:\n        /* \"#utility.yul\":9929:10031   */\n      swap2\n      pop\n        /* \"#utility.yul\":10048:10051   */\n      dup2\n        /* \"#utility.yul\":10041:10051   */\n      swap1\n      pop\n        /* \"#utility.yul\":9782:10057   */\n      swap3\n      swap2\n      pop\n      pop\n      jump\t// out\n        /* \"#utility.yul\":10063:10243   */\n    tag_95:\n        /* \"#utility.yul\":10111:10188   */\n      0x4e487b7100000000000000000000000000000000000000000000000000000000\n        /* \"#utility.yul\":10108:10109   */\n      0x00\n        /* \"#utility.yul\":10101:10189   */\n      mstore\n        /* \"#utility.yul\":10208:10212   */\n      0x22\n        /* \"#utility.yul\":10205:10206   */\n      0x04\n        /* \"#utility.yul\":10198:10213   */\n      mstore\n        /* \"#utility.yul\":10232:10236   */\n      0x24\n        /* \"#utility.yul\":10229:10230   */\n      0x00\n        /* \"#utility.yul\":10222:10237   */\n      revert\n        /* \"#utility.yul\":10249:10569   */\n    tag_37:\n        /* \"#utility.yul\":10293:10299   */\n      0x00\n        /* \"#utility.yul\":10330:10331   */\n      0x02\n        /* \"#utility.yul\":10324:10328   */\n      dup3\n        /* \"#utility.yul\":10320:10332   */\n      div\n        /* \"#utility.yul\":10310:10332   */\n      swap1\n      pop\n        /* \"#utility.yul\":10377:10378   */\n      0x01\n        /* \"#utility.yul\":10371:10375   */\n      dup3\n        /* \"#utility.yul\":10367:10379   */\n      and\n        /* \"#utility.yul\":10398:10416   */\n      dup1\n        /* \"#utility.yul\":10388:10469   */\n      tag_223\n      jumpi\n        /* \"#utility.yul\":10454:10458   */\n      0x7f\n        /* \"#utility.yul\":10446:10452   */\n      dup3\n        /* \"#utility.yul\":10442:10459   */\n      and\n        /* \"#utility.yul\":10432:10459   */\n      swap2\n      pop\n        /* \"#utility.yul\":10388:10469   */\n    tag_223:\n        /* \"#utility.yul\":10516:10518   */\n      0x20\n        /* \"#utility.yul\":10508:10514   */\n      dup3\n        /* \"#utility.yul\":10505:10519   */\n      lt\n        /* \"#utility.yul\":10485:10503   */\n      dup2\n        /* \"#utility.yul\":10482:10520   */\n      sub\n        /* \"#utility.yul\":10479:10563   */\n      tag_224\n      jumpi\n        /* \"#utility.yul\":10535:10553   */\n      tag_225\n      tag_95\n      jump\t// in\n    tag_225:\n        /* \"#utility.yul\":10479:10563   */\n    tag_224:\n        /* \"#utility.yul\":10300:10569   */\n      pop\n        /* \"#utility.yul\":10249:10569   */\n      swap2\n      swap1\n      pop\n      jump\t// out\n        /* \"#utility.yul\":10575:10811   */\n    tag_96:\n        /* \"#utility.yul\":10715:10749   */\n      0x556e617574686f72697a65643a204f6e6c792061646d696e2063616e20706572\n        /* \"#utility.yul\":10711:10712   */\n      0x00\n        /* \"#utility.yul\":10703:10709   */\n      dup3\n        /* \"#utility.yul\":10699:10713   */\n      add\n        /* \"#utility.yul\":10692:10750   */\n      mstore\n        /* \"#utility.yul\":10784:10803   */\n      0x666f726d207468697320616374696f6e2e000000000000000000000000000000\n        /* \"#utility.yul\":10779:10781   */\n      0x20\n        /* \"#utility.yul\":10771:10777   */\n      dup3\n        /* \"#utility.yul\":10767:10782   */\n      add\n        /* \"#utility.yul\":10760:10804   */\n      mstore\n        /* \"#utility.yul\":10575:10811   */\n      pop\n      jump\t// out\n        /* \"#utility.yul\":10817:11183   */\n    tag_97:\n        /* \"#utility.yul\":10959:10962   */\n      0x00\n        /* \"#utility.yul\":10980:11047   */\n      tag_228\n        /* \"#utility.yul\":11044:11046   */\n      0x31\n        /* \"#utility.yul\":11039:11042   */\n      dup4\n        /* \"#utility.yul\":10980:11047   */\n      tag_86\n      jump\t// in\n    tag_228:\n        /* \"#utility.yul\":10973:11047   */\n      swap2\n      pop\n        /* \"#utility.yul\":11056:11149   */\n      tag_229\n        /* \"#utility.yul\":11145:11148   */\n      dup3\n        /* \"#utility.yul\":11056:11149   */\n      tag_96\n      jump\t// in\n    tag_229:\n        /* \"#utility.yul\":11174:11176   */\n      0x40\n        /* \"#utility.yul\":11169:11172   */\n      dup3\n        /* \"#utility.yul\":11165:11177   */\n      add\n        /* \"#utility.yul\":11158:11177   */\n      swap1\n      pop\n        /* \"#utility.yul\":10817:11183   */\n      swap2\n      swap1\n      pop\n      jump\t// out\n        /* \"#utility.yul\":11189:11608   */\n    tag_45:\n        /* \"#utility.yul\":11355:11359   */\n      0x00\n        /* \"#utility.yul\":11393:11395   */\n      0x20\n        /* \"#utility.yul\":11382:11391   */\n      dup3\n        /* \"#utility.yul\":11378:11396   */\n      add\n        /* \"#utility.yul\":11370:11396   */\n      swap1\n      pop\n        /* \"#utility.yul\":11442:11451   */\n      dup2\n        /* \"#utility.yul\":11436:11440   */\n      dup2\n        /* \"#utility.yul\":11432:11452   */\n      sub\n        /* \"#utility.yul\":11428:11429   */\n      0x00\n        /* \"#utility.yul\":11417:11426   */\n      dup4\n        /* \"#utility.yul\":11413:11430   */\n      add\n        /* \"#utility.yul\":11406:11453   */\n      mstore\n        /* \"#utility.yul\":11470:11601   */\n      tag_231\n        /* \"#utility.yul\":11596:11600   */\n      dup2\n        /* \"#utility.yul\":11470:11601   */\n      tag_97\n      jump\t// in\n    tag_231:\n        /* \"#utility.yul\":11462:11601   */\n      swap1\n      pop\n        /* \"#utility.yul\":11189:11608   */\n      swap2\n      swap1\n      pop\n      jump\t// out\n        /* \"#utility.yul\":11614:11755   */\n    tag_98:\n        /* \"#utility.yul\":11663:11667   */\n      0x00\n        /* \"#utility.yul\":11686:11689   */\n      dup2\n        /* \"#utility.yul\":11678:11689   */\n      swap1\n      pop\n        /* \"#utility.yul\":11709:11712   */\n      dup2\n        /* \"#utility.yul\":11706:11707   */\n      0x00\n        /* \"#utility.yul\":11699:11713   */\n      mstore\n        /* \"#utility.yul\":11743:11747   */\n      0x20\n        /* \"#utility.yul\":11740:11741   */\n      0x00\n        /* \"#utility.yul\":11730:11748   */\n      keccak256\n        /* \"#utility.yul\":11722:11748   */\n      swap1\n      pop\n        /* \"#utility.yul\":11614:11755   */\n      swap2\n      swap1\n      pop\n      jump\t// out\n        /* \"#utility.yul\":11761:11854   */\n    tag_99:\n        /* \"#utility.yul\":11798:11804   */\n      0x00\n        /* \"#utility.yul\":11845:11847   */\n      0x20\n        /* \"#utility.yul\":11840:11842   */\n      0x1f\n        /* \"#utility.yul\":11833:11838   */\n      dup4\n        /* \"#utility.yul\":11829:11843   */\n      add\n        /* \"#utility.yul\":11825:11848   */\n      div\n        /* \"#utility.yul\":11815:11848   */\n      swap1\n      pop\n        /* \"#utility.yul\":11761:11854   */\n      swap2\n      swap1\n      pop\n      jump\t// out\n        /* \"#utility.yul\":11860:11967   */\n    tag_100:\n        /* \"#utility.yul\":11904:11912   */\n      0x00\n        /* \"#utility.yul\":11954:11959   */\n      dup3\n        /* \"#utility.yul\":11948:11952   */\n      dup3\n        /* \"#utility.yul\":11944:11960   */\n      shl\n        /* \"#utility.yul\":11923:11960   */\n      swap1\n      pop\n        /* \"#utility.yul\":11860:11967   */\n      swap3\n      swap2\n      pop\n      pop\n      jump\t// out\n        /* \"#utility.yul\":11973:12366   */\n    tag_101:\n        /* \"#utility.yul\":12042:12048   */\n      0x00\n        /* \"#utility.yul\":12092:12093   */\n      0x08\n        /* \"#utility.yul\":12080:12090   */\n      dup4\n        /* \"#utility.yul\":12076:12094   */\n      mul\n        /* \"#utility.yul\":12115:12212   */\n      tag_236\n        /* \"#utility.yul\":12145:12211   */\n      0xffffffffffffffffffffffffffffffffffffffffffffffffffffffffffffffff\n        /* \"#utility.yul\":12134:12143   */\n      dup3\n        /* \"#utility.yul\":12115:12212   */\n      tag_100\n      jump\t// in\n    tag_236:\n        /* \"#utility.yul\":12233:12272   */\n      tag_237\n        /* \"#utility.yul\":12263:12271   */\n      dup7\n        /* \"#utility.yul\":12252:12261   */\n      dup4\n        /* \"#utility.yul\":12233:12272   */\n      tag_100\n      jump\t// in\n    tag_237:\n        /* \"#utility.yul\":12221:12272   */\n      swap6\n      pop\n        /* \"#utility.yul\":12305:12309   */\n      dup1\n        /* \"#utility.yul\":12301:12310   */\n      not\n        /* \"#utility.yul\":12294:12299   */\n      dup5\n        /* \"#utility.yul\":12290:12311   */\n      and\n        /* \"#utility.yul\":12281:12311   */\n      swap4\n      pop\n        /* \"#utility.yul\":12354:12358   */\n      dup1\n        /* \"#utility.yul\":12344:12352   */\n      dup7\n        /* \"#utility.yul\":12340:12359   */\n      and\n        /* \"#utility.yul\":12333:12338   */\n      dup5\n        /* \"#utility.yul\":12330:12360   */\n      or\n        /* \"#utility.yul\":12320:12360   */\n      swap3\n      pop\n        /* \"#utility.yul\":12049:12366   */\n      pop\n      pop\n        /* \"#utility.yul\":11973:12366   */\n      swap4\n      swap3\n      pop\n      pop\n      pop\n      jump\t// out\n        /* \"#utility.yul\":12372:12432   */\n    tag_102:\n        /* \"#utility.yul\":12400:12403   */\n      0x00\n        /* \"#utility.yul\":12421:12426   */\n      dup2\n        /* \"#utility.yul\":12414:12426   */\n      swap1\n      pop\n        /* \"#utility.yul\":12372:12432   */\n      swap2\n      swap1\n      pop\n      jump\t// out\n        /* \"#utility.yul\":12438:12580   */\n    tag_103:\n        /* \"#utility.yul\":12488:12497   */\n      0x00\n        /* \"#utility.yul\":12521:12574   */\n      tag_240\n        /* \"#utility.yul\":12539:12573   */\n      tag_241\n        /* \"#utility.yul\":12548:12572   */\n      tag_242\n        /* \"#utility.yul\":12566:12571   */\n      dup5\n        /* \"#utility.yul\":12548:12572   */\n      tag_77\n      jump\t// in\n    tag_242:\n        /* \"#utility.yul\":12539:12573   */\n      tag_102\n      jump\t// in\n    tag_241:\n        /* \"#utility.yul\":12521:12574   */\n      tag_77\n      jump\t// in\n    tag_240:\n        /* \"#utility.yul\":12508:12574   */\n      swap1\n      pop\n        /* \"#utility.yul\":12438:12580   */\n      swap2\n      swap1\n      pop\n      jump\t// out\n        /* \"#utility.yul\":12586:12661   */\n    tag_104:\n        /* \"#utility.yul\":12629:12632   */\n      0x00\n        /* \"#utility.yul\":12650:12655   */\n      dup2\n        /* \"#utility.yul\":12643:12655   */\n      swap1\n      pop\n        /* \"#utility.yul\":12586:12661   */\n      swap2\n      swap1\n      pop\n      jump\t// out\n        /* \"#utility.yul\":12667:12936   */\n    tag_105:\n        /* \"#utility.yul\":12777:12816   */\n      tag_245\n        /* \"#utility.yul\":12808:12815   */\n      dup4\n        /* \"#utility.yul\":12777:12816   */\n      tag_103\n      jump\t// in\n    tag_245:\n        /* \"#utility.yul\":12838:12929   */\n      tag_246\n        /* \"#utility.yul\":12887:12928   */\n      tag_247\n        /* \"#utility.yul\":12911:12927   */\n      dup3\n        /* \"#utility.yul\":12887:12928   */\n      tag_104\n      jump\t// in\n    tag_247:\n        /* \"#utility.yul\":12879:12885   */\n      dup5\n        /* \"#utility.yul\":12872:12876   */\n      dup5\n        /* \"#utility.yul\":12866:12877   */\n      sload\n        /* \"#utility.yul\":12838:12929   */\n      tag_101\n      jump\t// in\n    tag_246:\n        /* \"#utility.yul\":12832:12836   */\n      dup3\n        /* \"#utility.yul\":12825:12930   */\n      sstore\n        /* \"#utility.yul\":12743:12936   */\n      pop\n        /* \"#utility.yul\":12667:12936   */\n      pop\n      pop\n      pop\n      jump\t// out\n        /* \"#utility.yul\":12942:13015   */\n    tag_106:\n        /* \"#utility.yul\":12987:12990   */\n      0x00\n        /* \"#utility.yul\":12942:13015   */\n      swap1\n      jump\t// out\n        /* \"#utility.yul\":13021:13210   */\n    tag_107:\n        /* \"#utility.yul\":13098:13130   */\n      tag_250\n      tag_106\n      jump\t// in\n    tag_250:\n        /* \"#utility.yul\":13139:13204   */\n      tag_251\n        /* \"#utility.yul\":13197:13203   */\n      dup2\n        /* \"#utility.yul\":13189:13195   */\n      dup5\n        /* \"#utility.yul\":13183:13187   */\n      dup5\n        /* \"#utility.yul\":13139:13204   */\n      tag_105\n      jump\t// in\n    tag_251:\n        /* \"#utility.yul\":13074:13210   */\n      pop\n        /* \"#utility.yul\":13021:13210   */\n      pop\n      pop\n      jump\t// out\n        /* \"#utility.yul\":13216:13402   */\n    tag_108:\n        /* \"#utility.yul\":13276:13396   */\n    tag_253:\n        /* \"#utility.yul\":13293:13296   */\n      dup2\n        /* \"#utility.yul\":13286:13291   */\n      dup2\n        /* \"#utility.yul\":13283:13297   */\n      lt\n        /* \"#utility.yul\":13276:13396   */\n      iszero\n      tag_255\n      jumpi\n        /* \"#utility.yul\":13347:13386   */\n      tag_256\n        /* \"#utility.yul\":13384:13385   */\n      0x00\n        /* \"#utility.yul\":13377:13382   */\n      dup3\n        /* \"#utility.yul\":13347:13386   */\n      tag_107\n      jump\t// in\n    tag_256:\n        /* \"#utility.yul\":13320:13321   */\n      0x01\n        /* \"#utility.yul\":13313:13318   */\n      dup2\n        /* \"#utility.yul\":13309:13322   */\n      add\n        /* \"#utility.yul\":13300:13322   */\n      swap1\n      pop\n        /* \"#utility.yul\":13276:13396   */\n      jump(tag_253)\n    tag_255:\n        /* \"#utility.yul\":13216:13402   */\n      pop\n      pop\n      jump\t// out\n        /* \"#utility.yul\":13408:13951   */\n    tag_109:\n        /* \"#utility.yul\":13509:13511   */\n      0x1f\n        /* \"#utility.yul\":13504:13507   */\n      dup3\n        /* \"#utility.yul\":13501:13512   */\n      gt\n        /* \"#utility.yul\":13498:13944   */\n      iszero\n      tag_258\n      jumpi\n        /* \"#utility.yul\":13543:13581   */\n      tag_259\n        /* \"#utility.yul\":13575:13580   */\n      dup2\n        /* \"#utility.yul\":13543:13581   */\n      tag_98\n      jump\t// in\n    tag_259:\n        /* \"#utility.yul\":13627:13656   */\n      tag_260\n        /* \"#utility.yul\":13645:13655   */\n      dup5\n        /* \"#utility.yul\":13627:13656   */\n      tag_99\n      jump\t// in\n    tag_260:\n        /* \"#utility.yul\":13617:13625   */\n      dup2\n        /* \"#utility.yul\":13613:13657   */\n      add\n        /* \"#utility.yul\":13810:13812   */\n      0x20\n        /* \"#utility.yul\":13798:13808   */\n      dup6\n        /* \"#utility.yul\":13795:13813   */\n      lt\n        /* \"#utility.yul\":13792:13841   */\n      iszero\n      tag_261\n      jumpi\n        /* \"#utility.yul\":13831:13839   */\n      dup2\n        /* \"#utility.yul\":13816:13839   */\n      swap1\n      pop\n        /* \"#utility.yul\":13792:13841   */\n    tag_261:\n        /* \"#utility.yul\":13854:13934   */\n      tag_262\n        /* \"#utility.yul\":13910:13932   */\n      tag_263\n        /* \"#utility.yul\":13928:13931   */\n      dup6\n        /* \"#utility.yul\":13910:13932   */\n      tag_99\n      jump\t// in\n    tag_263:\n        /* \"#utility.yul\":13900:13908   */\n      dup4\n        /* \"#utility.yul\":13896:13933   */\n      add\n        /* \"#utility.yul\":13883:13894   */\n      dup3\n        /* \"#utility.yul\":13854:13934   */\n      tag_108\n      jump\t// in\n    tag_262:\n        /* \"#utility.yul\":13513:13944   */\n      pop\n      pop\n        /* \"#utility.yul\":13498:13944   */\n    tag_258:\n        /* \"#utility.yul\":13408:13951   */\n      pop\n      pop\n      pop\n      jump\t// out\n        /* \"#utility.yul\":13957:14074   */\n    tag_110:\n        /* \"#utility.yul\":14011:14019   */\n      0x00\n        /* \"#utility.yul\":14061:14066   */\n      dup3\n        /* \"#utility.yul\":14055:14059   */\n      dup3\n        /* \"#utility.yul\":14051:14067   */\n      shr\n        /* \"#utility.yul\":14030:14067   */\n      swap1\n      pop\n        /* \"#utility.yul\":13957:14074   */\n      swap3\n      swap2\n      pop\n      pop\n      jump\t// out\n        /* \"#utility.yul\":14080:14249   */\n    tag_111:\n        /* \"#utility.yul\":14124:14130   */\n      0x00\n        /* \"#utility.yul\":14157:14208   */\n      tag_266\n        /* \"#utility.yul\":14205:14206   */\n      0x00\n        /* \"#utility.yul\":14201:14207   */\n      not\n        /* \"#utility.yul\":14193:14198   */\n      dup5\n        /* \"#utility.yul\":14190:14191   */\n      0x08\n        /* \"#utility.yul\":14186:14199   */\n      mul\n        /* \"#utility.yul\":14157:14208   */\n      tag_110\n      jump\t// in\n    tag_266:\n        /* \"#utility.yul\":14153:14209   */\n      not\n        /* \"#utility.yul\":14238:14242   */\n      dup1\n        /* \"#utility.yul\":14232:14236   */\n      dup4\n        /* \"#utility.yul\":14228:14243   */\n      and\n        /* \"#utility.yul\":14218:14243   */\n      swap2\n      pop\n        /* \"#utility.yul\":14131:14249   */\n      pop\n        /* \"#utility.yul\":14080:14249   */\n      swap3\n      swap2\n      pop\n      pop\n      jump\t// out\n        /* \"#utility.yul\":14254:14549   */\n    tag_112:\n        /* \"#utility.yul\":14330:14334   */\n      0x00\n        /* \"#utility.yul\":14476:14505   */\n      tag_268\n        /* \"#utility.yul\":14501:14504   */\n      dup4\n        /* \"#utility.yul\":14495:14499   */\n      dup4\n        /* \"#utility.yul\":14476:14505   */\n      tag_111\n      jump\t// in\n    tag_268:\n        /* \"#utility.yul\":14468:14505   */\n      swap2\n      pop\n        /* \"#utility.yul\":14538:14541   */\n      dup3\n        /* \"#utility.yul\":14535:14536   */\n      0x02\n        /* \"#utility.yul\":14531:14542   */\n      mul\n        /* \"#utility.yul\":14525:14529   */\n      dup3\n        /* \"#utility.yul\":14522:14543   */\n      or\n        /* \"#utility.yul\":14514:14543   */\n      swap1\n      pop\n        /* \"#utility.yul\":14254:14549   */\n      swap3\n      swap2\n      pop\n      pop\n      jump\t// out\n        /* \"#utility.yul\":14554:15949   */\n    tag_49:\n        /* \"#utility.yul\":14671:14708   */\n      tag_270\n        /* \"#utility.yul\":14704:14707   */\n      dup3\n        /* \"#utility.yul\":14671:14708   */\n      tag_73\n      jump\t// in\n    tag_270:\n        /* \"#utility.yul\":14773:14791   */\n      0xffffffffffffffff\n        /* \"#utility.yul\":14765:14771   */\n      dup2\n        /* \"#utility.yul\":14762:14792   */\n      gt\n        /* \"#utility.yul\":14759:14815   */\n      iszero\n      tag_271\n      jumpi\n        /* \"#utility.yul\":14795:14813   */\n      tag_272\n      tag_66\n      jump\t// in\n    tag_272:\n        /* \"#utility.yul\":14759:14815   */\n    tag_271:\n        /* \"#utility.yul\":14839:14877   */\n      tag_273\n        /* \"#utility.yul\":14871:14875   */\n      dup3\n        /* \"#utility.yul\":14865:14876   */\n      sload\n        /* \"#utility.yul\":14839:14877   */\n      tag_37\n      jump\t// in\n    tag_273:\n        /* \"#utility.yul\":14924:14991   */\n      tag_274\n        /* \"#utility.yul\":14984:14990   */\n      dup3\n        /* \"#utility.yul\":14976:14982   */\n      dup3\n        /* \"#utility.yul\":14970:14974   */\n      dup6\n        /* \"#utility.yul\":14924:14991   */\n      tag_109\n      jump\t// in\n    tag_274:\n        /* \"#utility.yul\":15018:15019   */\n      0x00\n        /* \"#utility.yul\":15042:15046   */\n      0x20\n        /* \"#utility.yul\":15029:15046   */\n      swap1\n      pop\n        /* \"#utility.yul\":15074:15076   */\n      0x1f\n        /* \"#utility.yul\":15066:15072   */\n      dup4\n        /* \"#utility.yul\":15063:15077   */\n      gt\n        /* \"#utility.yul\":15091:15092   */\n      0x01\n        /* \"#utility.yul\":15086:15704   */\n      dup2\n      eq\n      tag_276\n      jumpi\n        /* \"#utility.yul\":15748:15749   */\n      0x00\n        /* \"#utility.yul\":15765:15771   */\n      dup5\n        /* \"#utility.yul\":15762:15839   */\n      iszero\n      tag_277\n      jumpi\n        /* \"#utility.yul\":15814:15823   */\n      dup3\n        /* \"#utility.yul\":15809:15812   */\n      dup8\n        /* \"#utility.yul\":15805:15824   */\n      add\n        /* \"#utility.yul\":15799:15825   */\n      mload\n        /* \"#utility.yul\":15790:15825   */\n      swap1\n      pop\n        /* \"#utility.yul\":15762:15839   */\n    tag_277:\n        /* \"#utility.yul\":15865:15932   */\n      tag_278\n        /* \"#utility.yul\":15925:15931   */\n      dup6\n        /* \"#utility.yul\":15918:15923   */\n      dup3\n        /* \"#utility.yul\":15865:15932   */\n      tag_112\n      jump\t// in\n    tag_278:\n        /* \"#utility.yul\":15859:15863   */\n      dup7\n        /* \"#utility.yul\":15852:15933   */\n      sstore\n        /* \"#utility.yul\":15721:15943   */\n      pop\n        /* \"#utility.yul\":15056:15943   */\n      jump(tag_275)\n        /* \"#utility.yul\":15086:15704   */\n    tag_276:\n        /* \"#utility.yul\":15138:15142   */\n      0x1f\n        /* \"#utility.yul\":15134:15143   */\n      not\n        /* \"#utility.yul\":15126:15132   */\n      dup5\n        /* \"#utility.yul\":15122:15144   */\n      and\n        /* \"#utility.yul\":15172:15209   */\n      tag_279\n        /* \"#utility.yul\":15204:15208   */\n      dup7\n        /* \"#utility.yul\":15172:15209   */\n      tag_98\n      jump\t// in\n    tag_279:\n        /* \"#utility.yul\":15231:15232   */\n      0x00\n        /* \"#utility.yul\":15245:15453   */\n    tag_280:\n        /* \"#utility.yul\":15259:15266   */\n      dup3\n        /* \"#utility.yul\":15256:15257   */\n      dup2\n        /* \"#utility.yul\":15253:15267   */\n      lt\n        /* \"#utility.yul\":15245:15453   */\n      iszero\n      tag_282\n      jumpi\n        /* \"#utility.yul\":15338:15347   */\n      dup5\n        /* \"#utility.yul\":15333:15336   */\n      dup10\n        /* \"#utility.yul\":15329:15348   */\n      add\n        /* \"#utility.yul\":15323:15349   */\n      mload\n        /* \"#utility.yul\":15315:15321   */\n      dup3\n        /* \"#utility.yul\":15308:15350   */\n      sstore\n        /* \"#utility.yul\":15389:15390   */\n      0x01\n        /* \"#utility.yul\":15381:15387   */\n      dup3\n        /* \"#utility.yul\":15377:15391   */\n      add\n        /* \"#utility.yul\":15367:15391   */\n      swap2\n      pop\n        /* \"#utility.yul\":15436:15438   */\n      0x20\n        /* \"#utility.yul\":15425:15434   */\n      dup6\n        /* \"#utility.yul\":15421:15439   */\n      add\n        /* \"#utility.yul\":15408:15439   */\n      swap5\n      pop\n        /* \"#utility.yul\":15282:15286   */\n      0x20\n        /* \"#utility.yul\":15279:15280   */\n      dup2\n        /* \"#utility.yul\":15275:15287   */\n      add\n        /* \"#utility.yul\":15270:15287   */\n      swap1\n      pop\n        /* \"#utility.yul\":15245:15453   */\n      jump(tag_280)\n    tag_282:\n        /* \"#utility.yul\":15481:15487   */\n      dup7\n        /* \"#utility.yul\":15472:15479   */\n      dup4\n        /* \"#utility.yul\":15469:15488   */\n      lt\n        /* \"#utility.yul\":15466:15645   */\n      iszero\n      tag_283\n      jumpi\n        /* \"#utility.yul\":15539:15548   */\n      dup5\n        /* \"#utility.yul\":15534:15537   */\n      dup10\n        /* \"#utility.yul\":15530:15549   */\n      add\n        /* \"#utility.yul\":15524:15550   */\n      mload\n        /* \"#utility.yul\":15582:15630   */\n      tag_284\n        /* \"#utility.yul\":15624:15628   */\n      0x1f\n        /* \"#utility.yul\":15616:15622   */\n      dup10\n        /* \"#utility.yul\":15612:15629   */\n      and\n        /* \"#utility.yul\":15601:15610   */\n      dup3\n        /* \"#utility.yul\":15582:15630   */\n      tag_111\n      jump\t// in\n    tag_284:\n        /* \"#utility.yul\":15574:15580   */\n      dup4\n        /* \"#utility.yul\":15567:15631   */\n      sstore\n        /* \"#utility.yul\":15489:15645   */\n      pop\n        /* \"#utility.yul\":15466:15645   */\n    tag_283:\n        /* \"#utility.yul\":15691:15692   */\n      0x01\n        /* \"#utility.yul\":15687:15688   */\n      0x02\n        /* \"#utility.yul\":15679:15685   */\n      dup9\n        /* \"#utility.yul\":15675:15689   */\n      mul\n        /* \"#utility.yul\":15671:15693   */\n      add\n        /* \"#utility.yul\":15665:15669   */\n      dup9\n        /* \"#utility.yul\":15658:15694   */\n      sstore\n        /* \"#utility.yul\":15093:15704   */\n      pop\n      pop\n      pop\n        /* \"#utility.yul\":15056:15943   */\n    tag_275:\n      pop\n        /* \"#utility.yul\":14646:15949   */\n      pop\n      pop\n      pop\n        /* \"#utility.yul\":14554:15949   */\n      pop\n      pop\n      jump\t// out\n\n    auxdata: 0xa26469706673582212200cd3e7e1dbd67d0475633aa6f6945217f1dda83a043d9c0f48472936e38b32ef64736f6c63430008190033\n}\n",
				"bytecode": {
					"linkReferences": {},
					"object": "6080604052348015600e575f80fd5b50335f806101000a81548173ffffffffffffffffffffffffffffffffffffffff021916908373ffffffffffffffffffffffffffffffffffffffff160217905550610d588061005b5f395ff3fe608060405234801561000f575f80fd5b5060043610610055575f3560e01c80632faa4d05146100595780633b6de417146100895780636f75d5a7146100a5578063f0690d7e146100c1578063f851a440146100f3575b5f80fd5b610073600480360381019061006e9190610633565b610111565b6040516100809190610759565b60405180910390f35b6100a3600480360381019061009e91906107a3565b6101fc565b005b6100bf60048036038101906100ba9190610827565b610309565b005b6100db60048036038101906100d69190610633565b6103d2565b6040516100ea939291906108e7565b60405180910390f35b6100fb6104a2565b6040516101089190610962565b60405180910390f35b6101196104c5565b60018260405161012991906109b5565b90815260200160405180910390206040518060600160405290815f82018054610151906109f8565b80601f016020809104026020016040519081016040528092919081815260200182805461017d906109f8565b80156101c85780601f1061019f576101008083540402835291602001916101c8565b820191905f5260205f20905b8154815290600101906020018083116101ab57829003601f168201915b5050505050815260200160018201548152602001600282015f9054906101000a900460ff1615151515815250509050919050565b5f8054906101000a900473ffffffffffffffffffffffffffffffffffffffff1673ffffffffffffffffffffffffffffffffffffffff163373ffffffffffffffffffffffffffffffffffffffff1614610289576040517f08c379a000000000000000000000000000000000000000000000000000000000815260040161028090610a98565b60405180910390fd5b6040518060600160405280838152602001828152602001600115158152506001836040516102b791906109b5565b90815260200160405180910390205f820151815f0190816102d89190610c53565b50602082015181600101556040820151816002015f6101000a81548160ff0219169083151502179055509050505050565b5f8054906101000a900473ffffffffffffffffffffffffffffffffffffffff1673ffffffffffffffffffffffffffffffffffffffff163373ffffffffffffffffffffffffffffffffffffffff1614610396576040517f08c379a000000000000000000000000000000000000000000000000000000000815260040161038d90610a98565b60405180910390fd5b806001836040516103a791906109b5565b90815260200160405180910390206002015f6101000a81548160ff0219169083151502179055505050565b6001818051602081018201805184825260208301602085012081835280955050505050505f91509050805f018054610409906109f8565b80601f0160208091040260200160405190810160405280929190818152602001828054610435906109f8565b80156104805780601f1061045757610100808354040283529160200191610480565b820191905f5260205f20905b81548152906001019060200180831161046357829003601f168201915b505050505090806001015490806002015f9054906101000a900460ff16905083565b5f8054906101000a900473ffffffffffffffffffffffffffffffffffffffff1681565b6040518060600160405280606081526020015f81526020015f151581525090565b5f604051905090565b5f80fd5b5f80fd5b5f80fd5b5f80fd5b5f601f19601f8301169050919050565b7f4e487b71000000000000000000000000000000000000000000000000000000005f52604160045260245ffd5b610545826104ff565b810181811067ffffffffffffffff821117156105645761056361050f565b5b80604052505050565b5f6105766104e6565b9050610582828261053c565b919050565b5f67ffffffffffffffff8211156105a1576105a061050f565b5b6105aa826104ff565b9050602081019050919050565b828183375f83830152505050565b5f6105d76105d284610587565b61056d565b9050828152602081018484840111156105f3576105f26104fb565b5b6105fe8482856105b7565b509392505050565b5f82601f83011261061a576106196104f7565b5b813561062a8482602086016105c5565b91505092915050565b5f60208284031215610648576106476104ef565b5b5f82013567ffffffffffffffff811115610665576106646104f3565b5b61067184828501610606565b91505092915050565b5f81519050919050565b5f82825260208201905092915050565b8281835e5f83830152505050565b5f6106ac8261067a565b6106b68185610684565b93506106c6818560208601610694565b6106cf816104ff565b840191505092915050565b5f819050919050565b6106ec816106da565b82525050565b5f8115159050919050565b610706816106f2565b82525050565b5f606083015f8301518482035f86015261072682826106a2565b915050602083015161073b60208601826106e3565b50604083015161074e60408601826106fd565b508091505092915050565b5f6020820190508181035f830152610771818461070c565b905092915050565b610782816106da565b811461078c575f80fd5b50565b5f8135905061079d81610779565b92915050565b5f80604083850312156107b9576107b86104ef565b5b5f83013567ffffffffffffffff8111156107d6576107d56104f3565b5b6107e285828601610606565b92505060206107f38582860161078f565b9150509250929050565b610806816106f2565b8114610810575f80fd5b50565b5f81359050610821816107fd565b92915050565b5f806040838503121561083d5761083c6104ef565b5b5f83013567ffffffffffffffff81111561085a576108596104f3565b5b61086685828601610606565b925050602061087785828601610813565b9150509250929050565b5f82825260208201905092915050565b5f61089b8261067a565b6108a58185610881565b93506108b5818560208601610694565b6108be816104ff565b840191505092915050565b6108d2816106da565b82525050565b6108e1816106f2565b82525050565b5f6060820190508181035f8301526108ff8186610891565b905061090e60208301856108c9565b61091b60408301846108d8565b949350505050565b5f73ffffffffffffffffffffffffffffffffffffffff82169050919050565b5f61094c82610923565b9050919050565b61095c81610942565b82525050565b5f6020820190506109755f830184610953565b92915050565b5f81905092915050565b5f61098f8261067a565b610999818561097b565b93506109a9818560208601610694565b80840191505092915050565b5f6109c08284610985565b915081905092915050565b7f4e487b71000000000000000000000000000000000000000000000000000000005f52602260045260245ffd5b5f6002820490506001821680610a0f57607f821691505b602082108103610a2257610a216109cb565b5b50919050565b7f556e617574686f72697a65643a204f6e6c792061646d696e2063616e207065725f8201527f666f726d207468697320616374696f6e2e000000000000000000000000000000602082015250565b5f610a82603183610881565b9150610a8d82610a28565b604082019050919050565b5f6020820190508181035f830152610aaf81610a76565b9050919050565b5f819050815f5260205f209050919050565b5f6020601f8301049050919050565b5f82821b905092915050565b5f60088302610b127fffffffffffffffffffffffffffffffffffffffffffffffffffffffffffffffff82610ad7565b610b1c8683610ad7565b95508019841693508086168417925050509392505050565b5f819050919050565b5f610b57610b52610b4d846106da565b610b34565b6106da565b9050919050565b5f819050919050565b610b7083610b3d565b610b84610b7c82610b5e565b848454610ae3565b825550505050565b5f90565b610b98610b8c565b610ba3818484610b67565b505050565b5b81811015610bc657610bbb5f82610b90565b600181019050610ba9565b5050565b601f821115610c0b57610bdc81610ab6565b610be584610ac8565b81016020851015610bf4578190505b610c08610c0085610ac8565b830182610ba8565b50505b505050565b5f82821c905092915050565b5f610c2b5f1984600802610c10565b1980831691505092915050565b5f610c438383610c1c565b9150826002028217905092915050565b610c5c8261067a565b67ffffffffffffffff811115610c7557610c7461050f565b5b610c7f82546109f8565b610c8a828285610bca565b5f60209050601f831160018114610cbb575f8415610ca9578287015190505b610cb38582610c38565b865550610d1a565b601f198416610cc986610ab6565b5f5b82811015610cf057848901518255600182019150602085019450602081019050610ccb565b86831015610d0d5784890151610d09601f891682610c1c565b8355505b6001600288020188555050505b50505050505056fea26469706673582212200cd3e7e1dbd67d0475633aa6f6945217f1dda83a043d9c0f48472936e38b32ef64736f6c63430008190033",
					"opcodes": "PUSH1 0x80 PUSH1 0x40 MSTORE CALLVALUE DUP1 ISZERO PUSH1 0xE JUMPI PUSH0 DUP1 REVERT JUMPDEST POP CALLER PUSH0 DUP1 PUSH2 0x100 EXP DUP2 SLOAD DUP2 PUSH20 0xFFFFFFFFFFFFFFFFFFFFFFFFFFFFFFFFFFFFFFFF MUL NOT AND SWAP1 DUP4 PUSH20 0xFFFFFFFFFFFFFFFFFFFFFFFFFFFFFFFFFFFFFFFF AND MUL OR SWAP1 SSTORE POP PUSH2 0xD58 DUP1 PUSH2 0x5B PUSH0 CODECOPY PUSH0 RETURN INVALID PUSH1 0x80 PUSH1 0x40 MSTORE CALLVALUE DUP1 ISZERO PUSH2 0xF JUMPI PUSH0 DUP1 REVERT JUMPDEST POP PUSH1 0x4 CALLDATASIZE LT PUSH2 0x55 JUMPI PUSH0 CALLDATALOAD PUSH1 0xE0 SHR DUP1 PUSH4 0x2FAA4D05 EQ PUSH2 0x59 JUMPI DUP1 PUSH4 0x3B6DE417 EQ PUSH2 0x89 JUMPI DUP1 PUSH4 0x6F75D5A7 EQ PUSH2 0xA5 JUMPI DUP1 PUSH4 0xF0690D7E EQ PUSH2 0xC1 JUMPI DUP1 PUSH4 0xF851A440 EQ PUSH2 0xF3 JUMPI JUMPDEST PUSH0 DUP1 REVERT JUMPDEST PUSH2 0x73 PUSH1 0x4 DUP1 CALLDATASIZE SUB DUP2 ADD SWAP1 PUSH2 0x6E SWAP2 SWAP1 PUSH2 0x633 JUMP JUMPDEST PUSH2 0x111 JUMP JUMPDEST PUSH1 0x40 MLOAD PUSH2 0x80 SWAP2 SWAP1 PUSH2 0x759 JUMP JUMPDEST PUSH1 0x40 MLOAD DUP1 SWAP2 SUB SWAP1 RETURN JUMPDEST PUSH2 0xA3 PUSH1 0x4 DUP1 CALLDATASIZE SUB DUP2 ADD SWAP1 PUSH2 0x9E SWAP2 SWAP1 PUSH2 0x7A3 JUMP JUMPDEST PUSH2 0x1FC JUMP JUMPDEST STOP JUMPDEST PUSH2 0xBF PUSH1 0x4 DUP1 CALLDATASIZE SUB DUP2 ADD SWAP1 PUSH2 0xBA SWAP2 SWAP1 PUSH2 0x827 JUMP JUMPDEST PUSH2 0x309 JUMP JUMPDEST STOP JUMPDEST PUSH2 0xDB PUSH1 0x4 DUP1 CALLDATASIZE SUB DUP2 ADD SWAP1 PUSH2 0xD6 SWAP2 SWAP1 PUSH2 0x633 JUMP JUMPDEST PUSH2 0x3D2 JUMP JUMPDEST PUSH1 0x40 MLOAD PUSH2 0xEA SWAP4 SWAP3 SWAP2 SWAP1 PUSH2 0x8E7 JUMP JUMPDEST PUSH1 0x40 MLOAD DUP1 SWAP2 SUB SWAP1 RETURN JUMPDEST PUSH2 0xFB PUSH2 0x4A2 JUMP JUMPDEST PUSH1 0x40 MLOAD PUSH2 0x108 SWAP2 SWAP1 PUSH2 0x962 JUMP JUMPDEST PUSH1 0x40 MLOAD DUP1 SWAP2 SUB SWAP1 RETURN JUMPDEST PUSH2 0x119 PUSH2 0x4C5 JUMP JUMPDEST PUSH1 0x1 DUP3 PUSH1 0x40 MLOAD PUSH2 0x129 SWAP2 SWAP1 PUSH2 0x9B5 JUMP JUMPDEST SWAP1 DUP2 MSTORE PUSH1 0x20 ADD PUSH1 0x40 MLOAD DUP1 SWAP2 SUB SWAP1 KECCAK256 PUSH1 0x40 MLOAD DUP1 PUSH1 0x60 ADD PUSH1 0x40 MSTORE SWAP1 DUP2 PUSH0 DUP3 ADD DUP1 SLOAD PUSH2 0x151 SWAP1 PUSH2 0x9F8 JUMP JUMPDEST DUP1 PUSH1 0x1F ADD PUSH1 0x20 DUP1 SWAP2 DIV MUL PUSH1 0x20 ADD PUSH1 0x40 MLOAD SWAP1 DUP2 ADD PUSH1 0x40 MSTORE DUP1 SWAP3 SWAP2 SWAP1 DUP2 DUP2 MSTORE PUSH1 0x20 ADD DUP3 DUP1 SLOAD PUSH2 0x17D SWAP1 PUSH2 0x9F8 JUMP JUMPDEST DUP1 ISZERO PUSH2 0x1C8 JUMPI DUP1 PUSH1 0x1F LT PUSH2 0x19F JUMPI PUSH2 0x100 DUP1 DUP4 SLOAD DIV MUL DUP4 MSTORE SWAP2 PUSH1 0x20 ADD SWAP2 PUSH2 0x1C8 JUMP JUMPDEST DUP3 ADD SWAP2 SWAP1 PUSH0 MSTORE PUSH1 0x20 PUSH0 KECCAK256 SWAP1 JUMPDEST DUP2 SLOAD DUP2 MSTORE SWAP1 PUSH1 0x1 ADD SWAP1 PUSH1 0x20 ADD DUP1 DUP4 GT PUSH2 0x1AB JUMPI DUP3 SWAP1 SUB PUSH1 0x1F AND DUP3 ADD SWAP2 JUMPDEST POP POP POP POP POP DUP2 MSTORE PUSH1 0x20 ADD PUSH1 0x1 DUP3 ADD SLOAD DUP2 MSTORE PUSH1 0x20 ADD PUSH1 0x2 DUP3 ADD PUSH0 SWAP1 SLOAD SWAP1 PUSH2 0x100 EXP SWAP1 DIV PUSH1 0xFF AND ISZERO ISZERO ISZERO ISZERO DUP2 MSTORE POP POP SWAP1 POP SWAP2 SWAP1 POP JUMP JUMPDEST PUSH0 DUP1 SLOAD SWAP1 PUSH2 0x100 EXP SWAP1 DIV PUSH20 0xFFFFFFFFFFFFFFFFFFFFFFFFFFFFFFFFFFFFFFFF AND PUSH20 0xFFFFFFFFFFFFFFFFFFFFFFFFFFFFFFFFFFFFFFFF AND CALLER PUSH20 0xFFFFFFFFFFFFFFFFFFFFFFFFFFFFFFFFFFFFFFFF AND EQ PUSH2 0x289 JUMPI PUSH1 0x40 MLOAD PUSH32 0x8C379A000000000000000000000000000000000000000000000000000000000 DUP2 MSTORE PUSH1 0x4 ADD PUSH2 0x280 SWAP1 PUSH2 0xA98 JUMP JUMPDEST PUSH1 0x40 MLOAD DUP1 SWAP2 SUB SWAP1 REVERT JUMPDEST PUSH1 0x40 MLOAD DUP1 PUSH1 0x60 ADD PUSH1 0x40 MSTORE DUP1 DUP4 DUP2 MSTORE PUSH1 0x20 ADD DUP3 DUP2 MSTORE PUSH1 0x20 ADD PUSH1 0x1 ISZERO ISZERO DUP2 MSTORE POP PUSH1 0x1 DUP4 PUSH1 0x40 MLOAD PUSH2 0x2B7 SWAP2 SWAP1 PUSH2 0x9B5 JUMP JUMPDEST SWAP1 DUP2 MSTORE PUSH1 0x20 ADD PUSH1 0x40 MLOAD DUP1 SWAP2 SUB SWAP1 KECCAK256 PUSH0 DUP3 ADD MLOAD DUP2 PUSH0 ADD SWAP1 DUP2 PUSH2 0x2D8 SWAP2 SWAP1 PUSH2 0xC53 JUMP JUMPDEST POP PUSH1 0x20 DUP3 ADD MLOAD DUP2 PUSH1 0x1 ADD SSTORE PUSH1 0x40 DUP3 ADD MLOAD DUP2 PUSH1 0x2 ADD PUSH0 PUSH2 0x100 EXP DUP2 SLOAD DUP2 PUSH1 0xFF MUL NOT AND SWAP1 DUP4 ISZERO ISZERO MUL OR SWAP1 SSTORE POP SWAP1 POP POP POP POP JUMP JUMPDEST PUSH0 DUP1 SLOAD SWAP1 PUSH2 0x100 EXP SWAP1 DIV PUSH20 0xFFFFFFFFFFFFFFFFFFFFFFFFFFFFFFFFFFFFFFFF AND PUSH20 0xFFFFFFFFFFFFFFFFFFFFFFFFFFFFFFFFFFFFFFFF AND CALLER PUSH20 0xFFFFFFFFFFFFFFFFFFFFFFFFFFFFFFFFFFFFFFFF AND EQ PUSH2 0x396 JUMPI PUSH1 0x40 MLOAD PUSH32 0x8C379A000000000000000000000000000000000000000000000000000000000 DUP2 MSTORE PUSH1 0x4 ADD PUSH2 0x38D SWAP1 PUSH2 0xA98 JUMP JUMPDEST PUSH1 0x40 MLOAD DUP1 SWAP2 SUB SWAP1 REVERT JUMPDEST DUP1 PUSH1 0x1 DUP4 PUSH1 0x40 MLOAD PUSH2 0x3A7 SWAP2 SWAP1 PUSH2 0x9B5 JUMP JUMPDEST SWAP1 DUP2 MSTORE PUSH1 0x20 ADD PUSH1 0x40 MLOAD DUP1 SWAP2 SUB SWAP1 KECCAK256 PUSH1 0x2 ADD PUSH0 PUSH2 0x100 EXP DUP2 SLOAD DUP2 PUSH1 0xFF MUL NOT AND SWAP1 DUP4 ISZERO ISZERO MUL OR SWAP1 SSTORE POP POP POP JUMP JUMPDEST PUSH1 0x1 DUP2 DUP1 MLOAD PUSH1 0x20 DUP2 ADD DUP3 ADD DUP1 MLOAD DUP5 DUP3 MSTORE PUSH1 0x20 DUP4 ADD PUSH1 0x20 DUP6 ADD KECCAK256 DUP2 DUP4 MSTORE DUP1 SWAP6 POP POP POP POP POP POP PUSH0 SWAP2 POP SWAP1 POP DUP1 PUSH0 ADD DUP1 SLOAD PUSH2 0x409 SWAP1 PUSH2 0x9F8 JUMP JUMPDEST DUP1 PUSH1 0x1F ADD PUSH1 0x20 DUP1 SWAP2 DIV MUL PUSH1 0x20 ADD PUSH1 0x40 MLOAD SWAP1 DUP2 ADD PUSH1 0x40 MSTORE DUP1 SWAP3 SWAP2 SWAP1 DUP2 DUP2 MSTORE PUSH1 0x20 ADD DUP3 DUP1 SLOAD PUSH2 0x435 SWAP1 PUSH2 0x9F8 JUMP JUMPDEST DUP1 ISZERO PUSH2 0x480 JUMPI DUP1 PUSH1 0x1F LT PUSH2 0x457 JUMPI PUSH2 0x100 DUP1 DUP4 SLOAD DIV MUL DUP4 MSTORE SWAP2 PUSH1 0x20 ADD SWAP2 PUSH2 0x480 JUMP JUMPDEST DUP3 ADD SWAP2 SWAP1 PUSH0 MSTORE PUSH1 0x20 PUSH0 KECCAK256 SWAP1 JUMPDEST DUP2 SLOAD DUP2 MSTORE SWAP1 PUSH1 0x1 ADD SWAP1 PUSH1 0x20 ADD DUP1 DUP4 GT PUSH2 0x463 JUMPI DUP3 SWAP1 SUB PUSH1 0x1F AND DUP3 ADD SWAP2 JUMPDEST POP POP POP POP POP SWAP1 DUP1 PUSH1 0x1 ADD SLOAD SWAP1 DUP1 PUSH1 0x2 ADD PUSH0 SWAP1 SLOAD SWAP1 PUSH2 0x100 EXP SWAP1 DIV PUSH1 0xFF AND SWAP1 POP DUP4 JUMP JUMPDEST PUSH0 DUP1 SLOAD SWAP1 PUSH2 0x100 EXP SWAP1 DIV PUSH20 0xFFFFFFFFFFFFFFFFFFFFFFFFFFFFFFFFFFFFFFFF AND DUP2 JUMP JUMPDEST PUSH1 0x40 MLOAD DUP1 PUSH1 0x60 ADD PUSH1 0x40 MSTORE DUP1 PUSH1 0x60 DUP2 MSTORE PUSH1 0x20 ADD PUSH0 DUP2 MSTORE PUSH1 0x20 ADD PUSH0 ISZERO ISZERO DUP2 MSTORE POP SWAP1 JUMP JUMPDEST PUSH0 PUSH1 0x40 MLOAD SWAP1 POP SWAP1 JUMP JUMPDEST PUSH0 DUP1 REVERT JUMPDEST PUSH0 DUP1 REVERT JUMPDEST PUSH0 DUP1 REVERT JUMPDEST PUSH0 DUP1 REVERT JUMPDEST PUSH0 PUSH1 0x1F NOT PUSH1 0x1F DUP4 ADD AND SWAP1 POP SWAP2 SWAP1 POP JUMP JUMPDEST PUSH32 0x4E487B7100000000000000000000000000000000000000000000000000000000 PUSH0 MSTORE PUSH1 0x41 PUSH1 0x4 MSTORE PUSH1 0x24 PUSH0 REVERT JUMPDEST PUSH2 0x545 DUP3 PUSH2 0x4FF JUMP JUMPDEST DUP2 ADD DUP2 DUP2 LT PUSH8 0xFFFFFFFFFFFFFFFF DUP3 GT OR ISZERO PUSH2 0x564 JUMPI PUSH2 0x563 PUSH2 0x50F JUMP JUMPDEST JUMPDEST DUP1 PUSH1 0x40 MSTORE POP POP POP JUMP JUMPDEST PUSH0 PUSH2 0x576 PUSH2 0x4E6 JUMP JUMPDEST SWAP1 POP PUSH2 0x582 DUP3 DUP3 PUSH2 0x53C JUMP JUMPDEST SWAP2 SWAP1 POP JUMP JUMPDEST PUSH0 PUSH8 0xFFFFFFFFFFFFFFFF DUP3 GT ISZERO PUSH2 0x5A1 JUMPI PUSH2 0x5A0 PUSH2 0x50F JUMP JUMPDEST JUMPDEST PUSH2 0x5AA DUP3 PUSH2 0x4FF JUMP JUMPDEST SWAP1 POP PUSH1 0x20 DUP2 ADD SWAP1 POP SWAP2 SWAP1 POP JUMP JUMPDEST DUP3 DUP2 DUP4 CALLDATACOPY PUSH0 DUP4 DUP4 ADD MSTORE POP POP POP JUMP JUMPDEST PUSH0 PUSH2 0x5D7 PUSH2 0x5D2 DUP5 PUSH2 0x587 JUMP JUMPDEST PUSH2 0x56D JUMP JUMPDEST SWAP1 POP DUP3 DUP2 MSTORE PUSH1 0x20 DUP2 ADD DUP5 DUP5 DUP5 ADD GT ISZERO PUSH2 0x5F3 JUMPI PUSH2 0x5F2 PUSH2 0x4FB JUMP JUMPDEST JUMPDEST PUSH2 0x5FE DUP5 DUP3 DUP6 PUSH2 0x5B7 JUMP JUMPDEST POP SWAP4 SWAP3 POP POP POP JUMP JUMPDEST PUSH0 DUP3 PUSH1 0x1F DUP4 ADD SLT PUSH2 0x61A JUMPI PUSH2 0x619 PUSH2 0x4F7 JUMP JUMPDEST JUMPDEST DUP2 CALLDATALOAD PUSH2 0x62A DUP5 DUP3 PUSH1 0x20 DUP7 ADD PUSH2 0x5C5 JUMP JUMPDEST SWAP2 POP POP SWAP3 SWAP2 POP POP JUMP JUMPDEST PUSH0 PUSH1 0x20 DUP3 DUP5 SUB SLT ISZERO PUSH2 0x648 JUMPI PUSH2 0x647 PUSH2 0x4EF JUMP JUMPDEST JUMPDEST PUSH0 DUP3 ADD CALLDATALOAD PUSH8 0xFFFFFFFFFFFFFFFF DUP2 GT ISZERO PUSH2 0x665 JUMPI PUSH2 0x664 PUSH2 0x4F3 JUMP JUMPDEST JUMPDEST PUSH2 0x671 DUP5 DUP3 DUP6 ADD PUSH2 0x606 JUMP JUMPDEST SWAP2 POP POP SWAP3 SWAP2 POP POP JUMP JUMPDEST PUSH0 DUP2 MLOAD SWAP1 POP SWAP2 SWAP1 POP JUMP JUMPDEST PUSH0 DUP3 DUP3 MSTORE PUSH1 0x20 DUP3 ADD SWAP1 POP SWAP3 SWAP2 POP POP JUMP JUMPDEST DUP3 DUP2 DUP4 MCOPY PUSH0 DUP4 DUP4 ADD MSTORE POP POP POP JUMP JUMPDEST PUSH0 PUSH2 0x6AC DUP3 PUSH2 0x67A JUMP JUMPDEST PUSH2 0x6B6 DUP2 DUP6 PUSH2 0x684 JUMP JUMPDEST SWAP4 POP PUSH2 0x6C6 DUP2 DUP6 PUSH1 0x20 DUP7 ADD PUSH2 0x694 JUMP JUMPDEST PUSH2 0x6CF DUP2 PUSH2 0x4FF JUMP JUMPDEST DUP5 ADD SWAP2 POP POP SWAP3 SWAP2 POP POP JUMP JUMPDEST PUSH0 DUP2 SWAP1 POP SWAP2 SWAP1 POP JUMP JUMPDEST PUSH2 0x6EC DUP2 PUSH2 0x6DA JUMP JUMPDEST DUP3 MSTORE POP POP JUMP JUMPDEST PUSH0 DUP2 ISZERO ISZERO SWAP1 POP SWAP2 SWAP1 POP JUMP JUMPDEST PUSH2 0x706 DUP2 PUSH2 0x6F2 JUMP JUMPDEST DUP3 MSTORE POP POP JUMP JUMPDEST PUSH0 PUSH1 0x60 DUP4 ADD PUSH0 DUP4 ADD MLOAD DUP5 DUP3 SUB PUSH0 DUP7 ADD MSTORE PUSH2 0x726 DUP3 DUP3 PUSH2 0x6A2 JUMP JUMPDEST SWAP2 POP POP PUSH1 0x20 DUP4 ADD MLOAD PUSH2 0x73B PUSH1 0x20 DUP7 ADD DUP3 PUSH2 0x6E3 JUMP JUMPDEST POP PUSH1 0x40 DUP4 ADD MLOAD PUSH2 0x74E PUSH1 0x40 DUP7 ADD DUP3 PUSH2 0x6FD JUMP JUMPDEST POP DUP1 SWAP2 POP POP SWAP3 SWAP2 POP POP JUMP JUMPDEST PUSH0 PUSH1 0x20 DUP3 ADD SWAP1 POP DUP2 DUP2 SUB PUSH0 DUP4 ADD MSTORE PUSH2 0x771 DUP2 DUP5 PUSH2 0x70C JUMP JUMPDEST SWAP1 POP SWAP3 SWAP2 POP POP JUMP JUMPDEST PUSH2 0x782 DUP2 PUSH2 0x6DA JUMP JUMPDEST DUP2 EQ PUSH2 0x78C JUMPI PUSH0 DUP1 REVERT JUMPDEST POP JUMP JUMPDEST PUSH0 DUP2 CALLDATALOAD SWAP1 POP PUSH2 0x79D DUP2 PUSH2 0x779 JUMP JUMPDEST SWAP3 SWAP2 POP POP JUMP JUMPDEST PUSH0 DUP1 PUSH1 0x40 DUP4 DUP6 SUB SLT ISZERO PUSH2 0x7B9 JUMPI PUSH2 0x7B8 PUSH2 0x4EF JUMP JUMPDEST JUMPDEST PUSH0 DUP4 ADD CALLDATALOAD PUSH8 0xFFFFFFFFFFFFFFFF DUP2 GT ISZERO PUSH2 0x7D6 JUMPI PUSH2 0x7D5 PUSH2 0x4F3 JUMP JUMPDEST JUMPDEST PUSH2 0x7E2 DUP6 DUP3 DUP7 ADD PUSH2 0x606 JUMP JUMPDEST SWAP3 POP POP PUSH1 0x20 PUSH2 0x7F3 DUP6 DUP3 DUP7 ADD PUSH2 0x78F JUMP JUMPDEST SWAP2 POP POP SWAP3 POP SWAP3 SWAP1 POP JUMP JUMPDEST PUSH2 0x806 DUP2 PUSH2 0x6F2 JUMP JUMPDEST DUP2 EQ PUSH2 0x810 JUMPI PUSH0 DUP1 REVERT JUMPDEST POP JUMP JUMPDEST PUSH0 DUP2 CALLDATALOAD SWAP1 POP PUSH2 0x821 DUP2 PUSH2 0x7FD JUMP JUMPDEST SWAP3 SWAP2 POP POP JUMP JUMPDEST PUSH0 DUP1 PUSH1 0x40 DUP4 DUP6 SUB SLT ISZERO PUSH2 0x83D JUMPI PUSH2 0x83C PUSH2 0x4EF JUMP JUMPDEST JUMPDEST PUSH0 DUP4 ADD CALLDATALOAD PUSH8 0xFFFFFFFFFFFFFFFF DUP2 GT ISZERO PUSH2 0x85A JUMPI PUSH2 0x859 PUSH2 0x4F3 JUMP JUMPDEST JUMPDEST PUSH2 0x866 DUP6 DUP3 DUP7 ADD PUSH2 0x606 JUMP JUMPDEST SWAP3 POP POP PUSH1 0x20 PUSH2 0x877 DUP6 DUP3 DUP7 ADD PUSH2 0x813 JUMP JUMPDEST SWAP2 POP POP SWAP3 POP SWAP3 SWAP1 POP JUMP JUMPDEST PUSH0 DUP3 DUP3 MSTORE PUSH1 0x20 DUP3 ADD SWAP1 POP SWAP3 SWAP2 POP POP JUMP JUMPDEST PUSH0 PUSH2 0x89B DUP3 PUSH2 0x67A JUMP JUMPDEST PUSH2 0x8A5 DUP2 DUP6 PUSH2 0x881 JUMP JUMPDEST SWAP4 POP PUSH2 0x8B5 DUP2 DUP6 PUSH1 0x20 DUP7 ADD PUSH2 0x694 JUMP JUMPDEST PUSH2 0x8BE DUP2 PUSH2 0x4FF JUMP JUMPDEST DUP5 ADD SWAP2 POP POP SWAP3 SWAP2 POP POP JUMP JUMPDEST PUSH2 0x8D2 DUP2 PUSH2 0x6DA JUMP JUMPDEST DUP3 MSTORE POP POP JUMP JUMPDEST PUSH2 0x8E1 DUP2 PUSH2 0x6F2 JUMP JUMPDEST DUP3 MSTORE POP POP JUMP JUMPDEST PUSH0 PUSH1 0x60 DUP3 ADD SWAP1 POP DUP2 DUP2 SUB PUSH0 DUP4 ADD MSTORE PUSH2 0x8FF DUP2 DUP7 PUSH2 0x891 JUMP JUMPDEST SWAP1 POP PUSH2 0x90E PUSH1 0x20 DUP4 ADD DUP6 PUSH2 0x8C9 JUMP JUMPDEST PUSH2 0x91B PUSH1 0x40 DUP4 ADD DUP5 PUSH2 0x8D8 JUMP JUMPDEST SWAP5 SWAP4 POP POP POP POP JUMP JUMPDEST PUSH0 PUSH20 0xFFFFFFFFFFFFFFFFFFFFFFFFFFFFFFFFFFFFFFFF DUP3 AND SWAP1 POP SWAP2 SWAP1 POP JUMP JUMPDEST PUSH0 PUSH2 0x94C DUP3 PUSH2 0x923 JUMP JUMPDEST SWAP1 POP SWAP2 SWAP1 POP JUMP JUMPDEST PUSH2 0x95C DUP2 PUSH2 0x942 JUMP JUMPDEST DUP3 MSTORE POP POP JUMP JUMPDEST PUSH0 PUSH1 0x20 DUP3 ADD SWAP1 POP PUSH2 0x975 PUSH0 DUP4 ADD DUP5 PUSH2 0x953 JUMP JUMPDEST SWAP3 SWAP2 POP POP JUMP JUMPDEST PUSH0 DUP2 SWAP1 POP SWAP3 SWAP2 POP POP JUMP JUMPDEST PUSH0 PUSH2 0x98F DUP3 PUSH2 0x67A JUMP JUMPDEST PUSH2 0x999 DUP2 DUP6 PUSH2 0x97B JUMP JUMPDEST SWAP4 POP PUSH2 0x9A9 DUP2 DUP6 PUSH1 0x20 DUP7 ADD PUSH2 0x694 JUMP JUMPDEST DUP1 DUP5 ADD SWAP2 POP POP SWAP3 SWAP2 POP POP JUMP JUMPDEST PUSH0 PUSH2 0x9C0 DUP3 DUP5 PUSH2 0x985 JUMP JUMPDEST SWAP2 POP DUP2 SWAP1 POP SWAP3 SWAP2 POP POP JUMP JUMPDEST PUSH32 0x4E487B7100000000000000000000000000000000000000000000000000000000 PUSH0 MSTORE PUSH1 0x22 PUSH1 0x4 MSTORE PUSH1 0x24 PUSH0 REVERT JUMPDEST PUSH0 PUSH1 0x2 DUP3 DIV SWAP1 POP PUSH1 0x1 DUP3 AND DUP1 PUSH2 0xA0F JUMPI PUSH1 0x7F DUP3 AND SWAP2 POP JUMPDEST PUSH1 0x20 DUP3 LT DUP2 SUB PUSH2 0xA22 JUMPI PUSH2 0xA21 PUSH2 0x9CB JUMP JUMPDEST JUMPDEST POP SWAP2 SWAP1 POP JUMP JUMPDEST PUSH32 0x556E617574686F72697A65643A204F6E6C792061646D696E2063616E20706572 PUSH0 DUP3 ADD MSTORE PUSH32 0x666F726D207468697320616374696F6E2E000000000000000000000000000000 PUSH1 0x20 DUP3 ADD MSTORE POP JUMP JUMPDEST PUSH0 PUSH2 0xA82 PUSH1 0x31 DUP4 PUSH2 0x881 JUMP JUMPDEST SWAP2 POP PUSH2 0xA8D DUP3 PUSH2 0xA28 JUMP JUMPDEST PUSH1 0x40 DUP3 ADD SWAP1 POP SWAP2 SWAP1 POP JUMP JUMPDEST PUSH0 PUSH1 0x20 DUP3 ADD SWAP1 POP DUP2 DUP2 SUB PUSH0 DUP4 ADD MSTORE PUSH2 0xAAF DUP2 PUSH2 0xA76 JUMP JUMPDEST SWAP1 POP SWAP2 SWAP1 POP JUMP JUMPDEST PUSH0 DUP2 SWAP1 POP DUP2 PUSH0 MSTORE PUSH1 0x20 PUSH0 KECCAK256 SWAP1 POP SWAP2 SWAP1 POP JUMP JUMPDEST PUSH0 PUSH1 0x20 PUSH1 0x1F DUP4 ADD DIV SWAP1 POP SWAP2 SWAP1 POP JUMP JUMPDEST PUSH0 DUP3 DUP3 SHL SWAP1 POP SWAP3 SWAP2 POP POP JUMP JUMPDEST PUSH0 PUSH1 0x8 DUP4 MUL PUSH2 0xB12 PUSH32 0xFFFFFFFFFFFFFFFFFFFFFFFFFFFFFFFFFFFFFFFFFFFFFFFFFFFFFFFFFFFFFFFF DUP3 PUSH2 0xAD7 JUMP JUMPDEST PUSH2 0xB1C DUP7 DUP4 PUSH2 0xAD7 JUMP JUMPDEST SWAP6 POP DUP1 NOT DUP5 AND SWAP4 POP DUP1 DUP7 AND DUP5 OR SWAP3 POP POP POP SWAP4 SWAP3 POP POP POP JUMP JUMPDEST PUSH0 DUP2 SWAP1 POP SWAP2 SWAP1 POP JUMP JUMPDEST PUSH0 PUSH2 0xB57 PUSH2 0xB52 PUSH2 0xB4D DUP5 PUSH2 0x6DA JUMP JUMPDEST PUSH2 0xB34 JUMP JUMPDEST PUSH2 0x6DA JUMP JUMPDEST SWAP1 POP SWAP2 SWAP1 POP JUMP JUMPDEST PUSH0 DUP2 SWAP1 POP SWAP2 SWAP1 POP JUMP JUMPDEST PUSH2 0xB70 DUP4 PUSH2 0xB3D JUMP JUMPDEST PUSH2 0xB84 PUSH2 0xB7C DUP3 PUSH2 0xB5E JUMP JUMPDEST DUP5 DUP5 SLOAD PUSH2 0xAE3 JUMP JUMPDEST DUP3 SSTORE POP POP POP POP JUMP JUMPDEST PUSH0 SWAP1 JUMP JUMPDEST PUSH2 0xB98 PUSH2 0xB8C JUMP JUMPDEST PUSH2 0xBA3 DUP2 DUP5 DUP5 PUSH2 0xB67 JUMP JUMPDEST POP POP POP JUMP JUMPDEST JUMPDEST DUP2 DUP2 LT ISZERO PUSH2 0xBC6 JUMPI PUSH2 0xBBB PUSH0 DUP3 PUSH2 0xB90 JUMP JUMPDEST PUSH1 0x1 DUP2 ADD SWAP1 POP PUSH2 0xBA9 JUMP JUMPDEST POP POP JUMP JUMPDEST PUSH1 0x1F DUP3 GT ISZERO PUSH2 0xC0B JUMPI PUSH2 0xBDC DUP2 PUSH2 0xAB6 JUMP JUMPDEST PUSH2 0xBE5 DUP5 PUSH2 0xAC8 JUMP JUMPDEST DUP2 ADD PUSH1 0x20 DUP6 LT ISZERO PUSH2 0xBF4 JUMPI DUP2 SWAP1 POP JUMPDEST PUSH2 0xC08 PUSH2 0xC00 DUP6 PUSH2 0xAC8 JUMP JUMPDEST DUP4 ADD DUP3 PUSH2 0xBA8 JUMP JUMPDEST POP POP JUMPDEST POP POP POP JUMP JUMPDEST PUSH0 DUP3 DUP3 SHR SWAP1 POP SWAP3 SWAP2 POP POP JUMP JUMPDEST PUSH0 PUSH2 0xC2B PUSH0 NOT DUP5 PUSH1 0x8 MUL PUSH2 0xC10 JUMP JUMPDEST NOT DUP1 DUP4 AND SWAP2 POP POP SWAP3 SWAP2 POP POP JUMP JUMPDEST PUSH0 PUSH2 0xC43 DUP4 DUP4 PUSH2 0xC1C JUMP JUMPDEST SWAP2 POP DUP3 PUSH1 0x2 MUL DUP3 OR SWAP1 POP SWAP3 SWAP2 POP POP JUMP JUMPDEST PUSH2 0xC5C DUP3 PUSH2 0x67A JUMP JUMPDEST PUSH8 0xFFFFFFFFFFFFFFFF DUP2 GT ISZERO PUSH2 0xC75 JUMPI PUSH2 0xC74 PUSH2 0x50F JUMP JUMPDEST JUMPDEST PUSH2 0xC7F DUP3 SLOAD PUSH2 0x9F8 JUMP JUMPDEST PUSH2 0xC8A DUP3 DUP3 DUP6 PUSH2 0xBCA JUMP JUMPDEST PUSH0 PUSH1 0x20 SWAP1 POP PUSH1 0x1F DUP4 GT PUSH1 0x1 DUP2 EQ PUSH2 0xCBB JUMPI PUSH0 DUP5 ISZERO PUSH2 0xCA9 JUMPI DUP3 DUP8 ADD MLOAD SWAP1 POP JUMPDEST PUSH2 0xCB3 DUP6 DUP3 PUSH2 0xC38 JUMP JUMPDEST DUP7 SSTORE POP PUSH2 0xD1A JUMP JUMPDEST PUSH1 0x1F NOT DUP5 AND PUSH2 0xCC9 DUP7 PUSH2 0xAB6 JUMP JUMPDEST PUSH0 JUMPDEST DUP3 DUP2 LT ISZERO PUSH2 0xCF0 JUMPI DUP5 DUP10 ADD MLOAD DUP3 SSTORE PUSH1 0x1 DUP3 ADD SWAP2 POP PUSH1 0x20 DUP6 ADD SWAP5 POP PUSH1 0x20 DUP2 ADD SWAP1 POP PUSH2 0xCCB JUMP JUMPDEST DUP7 DUP4 LT ISZERO PUSH2 0xD0D JUMPI DUP5 DUP10 ADD MLOAD PUSH2 0xD09 PUSH1 0x1F DUP10 AND DUP3 PUSH2 0xC1C JUMP JUMPDEST DUP4 SSTORE POP JUMPDEST PUSH1 0x1 PUSH1 0x2 DUP9 MUL ADD DUP9 SSTORE POP POP POP JUMPDEST POP POP POP POP POP POP JUMP INVALID LOG2 PUSH5 0x6970667358 0x22 SLT KECCAK256 0xC 0xD3 0xE7 0xE1 0xDB 0xD6 PUSH30 0x475633AA6F6945217F1DDA83A043D9C0F48472936E38B32EF64736F6C63 NUMBER STOP ADDMOD NOT STOP CALLER "
				},
				"gasEstimates": {
					"creation": {
						"codeDepositCost": "683200",
						"executionCost": "24978",
						"totalCost": "708178"
					},
					"external": {
						"addFlight(string,uint256)": "infinite",
						"admin()": "2571",
						"flights(string)": "infinite",
						"getFlightDetails(string)": "infinite",
						"updateFlightStatus(string,bool)": "infinite"
					}
				},
				"methodIdentifiers": {
					"addFlight(string,uint256)": "3b6de417",
					"admin()": "f851a440",
					"flights(string)": "f0690d7e",
					"getFlightDetails(string)": "2faa4d05",
					"updateFlightStatus(string,bool)": "6f75d5a7"
				}
			},
			"storageLayout": {
				"storage": [
					{
						"astId": 3,
						"contract": "contracts/AirlineManagement.sol:AirlineManagement",
						"label": "admin",
						"offset": 0,
						"slot": "0",
						"type": "t_address"
					},
					{
						"astId": 15,
						"contract": "contracts/AirlineManagement.sol:AirlineManagement",
						"label": "flights",
						"offset": 0,
						"slot": "1",
						"type": "t_mapping(t_string_memory_ptr,t_struct(Flight)10_storage)"
					}
				],
				"types": {
					"t_address": {
						"encoding": "inplace",
						"label": "address",
						"numberOfBytes": "20"
					},
					"t_bool": {
						"encoding": "inplace",
						"label": "bool",
						"numberOfBytes": "1"
					},
					"t_mapping(t_string_memory_ptr,t_struct(Flight)10_storage)": {
						"encoding": "mapping",
						"key": "t_string_memory_ptr",
						"label": "mapping(string => struct AirlineManagement.Flight)",
						"numberOfBytes": "32",
						"value": "t_struct(Flight)10_storage"
					},
					"t_string_memory_ptr": {
						"encoding": "bytes",
						"label": "string",
						"numberOfBytes": "32"
					},
					"t_string_storage": {
						"encoding": "bytes",
						"label": "string",
						"numberOfBytes": "32"
					},
					"t_struct(Flight)10_storage": {
						"encoding": "inplace",
						"label": "struct AirlineManagement.Flight",
						"members": [
							{
								"astId": 5,
								"contract": "contracts/AirlineManagement.sol:AirlineManagement",
								"label": "flightNumber",
								"offset": 0,
								"slot": "0",
								"type": "t_string_storage"
							},
							{
								"astId": 7,
								"contract": "contracts/AirlineManagement.sol:AirlineManagement",
								"label": "price",
								"offset": 0,
								"slot": "1",
								"type": "t_uint256"
							},
							{
								"astId": 9,
								"contract": "contracts/AirlineManagement.sol:AirlineManagement",
								"label": "isActive",
								"offset": 0,
								"slot": "2",
								"type": "t_bool"
							}
						],
						"numberOfBytes": "96"
					},
					"t_uint256": {
						"encoding": "inplace",
						"label": "uint256",
						"numberOfBytes": "32"
					}
				}
			},
			"userdoc": {
				"kind": "user",
				"methods": {},
				"version": 1
			}
		}
	}
}